{
  "_format": "hh-sol-artifact-1",
  "contractName": "CrtToken",
  "sourceName": "contracts/CRT/token/CrtToken.sol",
  "abi": [
    {
      "inputs": [],
      "stateMutability": "nonpayable",
      "type": "constructor"
    },
    {
      "anonymous": false,
      "inputs": [
        {
          "indexed": true,
          "internalType": "address",
          "name": "owner",
          "type": "address"
        },
        {
          "indexed": true,
          "internalType": "address",
          "name": "spender",
          "type": "address"
        },
        {
          "indexed": false,
          "internalType": "uint256",
          "name": "value",
          "type": "uint256"
        }
      ],
      "name": "Approval",
      "type": "event"
    },
    {
      "anonymous": false,
      "inputs": [
        {
          "indexed": true,
          "internalType": "address",
          "name": "account",
          "type": "address"
        },
        {
          "indexed": false,
          "internalType": "uint256",
          "name": "amount",
          "type": "uint256"
        }
      ],
      "name": "LockCRT",
      "type": "event"
    },
    {
      "anonymous": false,
      "inputs": [
        {
          "indexed": true,
          "internalType": "address",
          "name": "from",
          "type": "address"
        },
        {
          "indexed": true,
          "internalType": "address",
          "name": "to",
          "type": "address"
        },
        {
          "indexed": false,
          "internalType": "uint256",
          "name": "value",
          "type": "uint256"
        }
      ],
      "name": "Transfer",
      "type": "event"
    },
    {
      "anonymous": false,
      "inputs": [
        {
          "indexed": true,
          "internalType": "address",
          "name": "account",
          "type": "address"
        },
        {
          "indexed": false,
          "internalType": "uint256",
          "name": "amount",
          "type": "uint256"
        }
      ],
      "name": "UnlockCRT",
      "type": "event"
    },
    {
      "inputs": [],
      "name": "DOMAIN_SEPARATOR",
      "outputs": [
        {
          "internalType": "bytes32",
          "name": "",
          "type": "bytes32"
        }
      ],
      "stateMutability": "view",
      "type": "function"
    },
    {
      "inputs": [],
      "name": "EIP712_REVISION",
      "outputs": [
        {
          "internalType": "bytes",
          "name": "",
          "type": "bytes"
        }
      ],
      "stateMutability": "view",
      "type": "function"
    },
    {
      "inputs": [],
      "name": "PERMIT_TYPEHASH",
      "outputs": [
        {
          "internalType": "bytes32",
          "name": "",
          "type": "bytes32"
        }
      ],
      "stateMutability": "view",
      "type": "function"
    },
    {
      "inputs": [],
      "name": "REVISION",
      "outputs": [
        {
          "internalType": "uint256",
          "name": "",
          "type": "uint256"
        }
      ],
      "stateMutability": "view",
      "type": "function"
    },
    {
      "inputs": [
        {
          "internalType": "address",
          "name": "",
          "type": "address"
        }
      ],
      "name": "_nonces",
      "outputs": [
        {
          "internalType": "uint256",
          "name": "",
          "type": "uint256"
        }
      ],
      "stateMutability": "view",
      "type": "function"
    },
    {
      "inputs": [
        {
          "internalType": "address",
          "name": "owner",
          "type": "address"
        },
        {
          "internalType": "address",
          "name": "spender",
          "type": "address"
        }
      ],
      "name": "allowance",
      "outputs": [
        {
          "internalType": "uint256",
          "name": "",
          "type": "uint256"
        }
      ],
      "stateMutability": "view",
      "type": "function"
    },
    {
      "inputs": [
        {
          "internalType": "address",
          "name": "spender",
          "type": "address"
        },
        {
          "internalType": "uint256",
          "name": "amount",
          "type": "uint256"
        }
      ],
      "name": "approve",
      "outputs": [
        {
          "internalType": "bool",
          "name": "",
          "type": "bool"
        }
      ],
      "stateMutability": "nonpayable",
      "type": "function"
    },
    {
      "inputs": [
        {
          "internalType": "address",
          "name": "account",
          "type": "address"
        }
      ],
      "name": "balanceOf",
      "outputs": [
        {
          "internalType": "uint256",
          "name": "",
          "type": "uint256"
        }
      ],
      "stateMutability": "view",
      "type": "function"
    },
    {
      "inputs": [],
      "name": "decimals",
      "outputs": [
        {
          "internalType": "uint8",
          "name": "",
          "type": "uint8"
        }
      ],
      "stateMutability": "view",
      "type": "function"
    },
    {
      "inputs": [
        {
          "internalType": "address",
          "name": "spender",
          "type": "address"
        },
        {
          "internalType": "uint256",
          "name": "subtractedValue",
          "type": "uint256"
        }
      ],
      "name": "decreaseAllowance",
      "outputs": [
        {
          "internalType": "bool",
          "name": "",
          "type": "bool"
        }
      ],
      "stateMutability": "nonpayable",
      "type": "function"
    },
    {
      "inputs": [
        {
          "internalType": "address",
          "name": "spender",
          "type": "address"
        },
        {
          "internalType": "uint256",
          "name": "addedValue",
          "type": "uint256"
        }
      ],
      "name": "increaseAllowance",
      "outputs": [
        {
          "internalType": "bool",
          "name": "",
          "type": "bool"
        }
      ],
      "stateMutability": "nonpayable",
      "type": "function"
    },
    {
      "inputs": [
        {
          "internalType": "address",
          "name": "account",
          "type": "address"
        }
      ],
      "name": "lockBalance",
      "outputs": [
        {
          "internalType": "uint256",
          "name": "",
          "type": "uint256"
        }
      ],
      "stateMutability": "view",
      "type": "function"
    },
    {
      "inputs": [
        {
          "internalType": "address",
          "name": "account",
          "type": "address"
        },
        {
          "internalType": "uint256",
          "name": "amount",
          "type": "uint256"
        }
      ],
      "name": "lockCRT",
      "outputs": [],
      "stateMutability": "nonpayable",
      "type": "function"
    },
    {
      "inputs": [
        {
          "internalType": "address",
          "name": "account",
          "type": "address"
        },
        {
          "internalType": "uint256",
          "name": "amount",
          "type": "uint256"
        }
      ],
      "name": "mint",
      "outputs": [],
      "stateMutability": "nonpayable",
      "type": "function"
    },
    {
      "inputs": [],
      "name": "name",
      "outputs": [
        {
          "internalType": "string",
          "name": "",
          "type": "string"
        }
      ],
      "stateMutability": "view",
      "type": "function"
    },
    {
      "inputs": [
        {
          "internalType": "address",
          "name": "owner",
          "type": "address"
        },
        {
          "internalType": "address",
          "name": "spender",
          "type": "address"
        },
        {
          "internalType": "uint256",
          "name": "value",
          "type": "uint256"
        },
        {
          "internalType": "uint256",
          "name": "deadline",
          "type": "uint256"
        },
        {
          "internalType": "uint8",
          "name": "v",
          "type": "uint8"
        },
        {
          "internalType": "bytes32",
          "name": "r",
          "type": "bytes32"
        },
        {
          "internalType": "bytes32",
          "name": "s",
          "type": "bytes32"
        }
      ],
      "name": "permit",
      "outputs": [],
      "stateMutability": "nonpayable",
      "type": "function"
    },
    {
      "inputs": [],
      "name": "symbol",
      "outputs": [
        {
          "internalType": "string",
          "name": "",
          "type": "string"
        }
      ],
      "stateMutability": "view",
      "type": "function"
    },
    {
      "inputs": [],
      "name": "totalSupply",
      "outputs": [
        {
          "internalType": "uint256",
          "name": "",
          "type": "uint256"
        }
      ],
      "stateMutability": "view",
      "type": "function"
    },
    {
      "inputs": [
        {
          "internalType": "address",
          "name": "to",
          "type": "address"
        },
        {
          "internalType": "uint256",
          "name": "amount",
          "type": "uint256"
        }
      ],
      "name": "transfer",
      "outputs": [
        {
          "internalType": "bool",
          "name": "",
          "type": "bool"
        }
      ],
      "stateMutability": "nonpayable",
      "type": "function"
    },
    {
      "inputs": [
        {
          "internalType": "address",
          "name": "from",
          "type": "address"
        },
        {
          "internalType": "address",
          "name": "to",
          "type": "address"
        },
        {
          "internalType": "uint256",
          "name": "amount",
          "type": "uint256"
        }
      ],
      "name": "transferFrom",
      "outputs": [
        {
          "internalType": "bool",
          "name": "",
          "type": "bool"
        }
      ],
      "stateMutability": "nonpayable",
      "type": "function"
    },
    {
      "inputs": [
        {
          "internalType": "address",
          "name": "account",
          "type": "address"
        },
        {
          "internalType": "uint256",
          "name": "amount",
          "type": "uint256"
        }
      ],
      "name": "unlockCRT",
      "outputs": [],
      "stateMutability": "nonpayable",
      "type": "function"
    }
  ],
  "bytecode": "0x608060405234801561001057600080fd5b50604080518082018252600c81526b21b932b234ba102a37b5b2b760a11b6020918201528151808301835260018152603160f81b9082015281517f8b73c3c69bb8fe3d512ecc4cf759cc79239f7b179b0ffacaa9a75d522b39400f818301527fe41208907bb0cbd97bc3087d3a8c9f442c8cb1b1a73ae8a6eb327d179584daba818401527fc89efdaa54c0f20c7adf612882df0950f5a951637e0307cdcb4c672f298b8bc660608201524660808201523060a0808301919091528351808303909101815260c09091019092528151910120600855610f64806100f36000396000f3fe608060405234801561001057600080fd5b50600436106101375760003560e01c80637441b8bb116100b8578063b9844d8d1161007c578063b9844d8d146102dc578063cbca247e146102fc578063cc757ccf1461030f578063d505accf14610322578063dd62ed3e14610335578063dde43cba1461034857600080fd5b80637441b8bb1461024e578063781603761461027757806395d89b4114610297578063a457c2d7146102b6578063a9059cbb146102c957600080fd5b8063313ce567116100ff578063313ce567146101e55780633644e515146101f457806339509351146101fd57806340c10f191461021057806370a082311461022557600080fd5b806306fdde031461013c578063095ea7b31461017657806318160ddd1461019957806323b872dd146101ab57806330adf81f146101be575b600080fd5b60408051808201909152600c81526b21b932b234ba102a37b5b2b760a11b60208201525b60405161016d9190610d95565b60405180910390f35b610189610184366004610dcb565b610350565b604051901515815260200161016d565b6004545b60405190815260200161016d565b6101896101b9366004610df5565b61036a565b61019d7f6e71edae12b1b97f4d1f60370fef10105fa2faae0126114a169c64845d6126c981565b6040516008815260200161016d565b61019d60085481565b61018961020b366004610dcb565b61038e565b61022361021e366004610dcb565b6103b0565b005b61019d610233366004610e31565b6001600160a01b031660009081526020819052604090205490565b61019d61025c366004610e31565b6001600160a01b031660009081526002602052604090205490565b610160604051806040016040528060018152602001603160f81b81525081565b60408051808201909152600381526210d49560ea1b6020820152610160565b6101896102c4366004610dcb565b6103be565b6101896102d7366004610dcb565b61043e565b61019d6102ea366004610e31565b60016020526000908152604090205481565b61022361030a366004610dcb565b61044c565b61022361031d366004610dcb565b610592565b610223610330366004610e4c565b6106f1565b61019d610343366004610ebf565b610923565b61019d600181565b60003361035e81858561094e565b60019150505b92915050565b600033610378858285610a72565b610383858585610aec565b506001949350505050565b60003361035e8185856103a18383610923565b6103ab9190610f08565b61094e565b6103ba8282610c90565b5050565b600033816103cc8286610923565b9050838110156104315760405162461bcd60e51b815260206004820152602560248201527f45524332303a2064656372656173656420616c6c6f77616e63652062656c6f77604482015264207a65726f60d81b60648201526084015b60405180910390fd5b610383828686840361094e565b60003361035e818585610aec565b6001600160a01b0382166104a25760405162461bcd60e51b815260206004820152601760248201527f4352543a206c6f636b207a65726f2061646464726573730000000000000000006044820152606401610428565b6001600160a01b0382166000908152602081905260409020548181101561050b5760405162461bcd60e51b815260206004820181905260248201527f4352543a206c6f636b20616d6f756e7420657863656564732062616c616e63656044820152606401610428565b6105158282610f1b565b6001600160a01b03841660009081526020818152604080832093909355600290529081208054849290610549908490610f08565b90915550506040518281526001600160a01b038416907f365522ab0976f877aacd58f15a9862337c7bd75fd695b31836994fde4d6431b3906020015b60405180910390a2505050565b6001600160a01b0382166105e85760405162461bcd60e51b815260206004820152601960248201527f4352543a20756e6c6f636b207a65726f206164646472657373000000000000006044820152606401610428565b6001600160a01b0382166000908152600260205260409020548181101561065c5760405162461bcd60e51b815260206004820152602260248201527f4352543a20756e6c6f636b20616d6f756e7420657863656564732062616c616e604482015261636560f01b6064820152608401610428565b6001600160a01b03831660009081526002602052604081208054849290610684908490610f1b565b90915550506001600160a01b038316600090815260208190526040812080548492906106b1908490610f08565b90915550506040518281526001600160a01b038416907f1415dd2be4818e06239f50d634980ace91bf6fdade0ef27da2a1d8e8f1a660fe90602001610585565b6001600160a01b0387166107375760405162461bcd60e51b815260206004820152600d60248201526c24a72b20a624a22fa7aba722a960991b6044820152606401610428565b8342111561077c5760405162461bcd60e51b815260206004820152601260248201527124a72b20a624a22fa2ac2824a920aa24a7a760711b6044820152606401610428565b6001600160a01b0387811660008181526001602090815260408083205460085482517f6e71edae12b1b97f4d1f60370fef10105fa2faae0126114a169c64845d6126c98186015280840196909652958c166060860152608085018b905260a0850181905260c08086018b90528251808703909101815260e086019092528151919092012061190160f01b610100850152610102840194909452610122830193909352906101420160408051601f1981840301815282825280516020918201206000845290830180835281905260ff8816918301919091526060820186905260808201859052915060019060a0016020604051602081039080840390855afa15801561088b573d6000803e3d6000fd5b505050602060405103516001600160a01b0316896001600160a01b0316146108e95760405162461bcd60e51b8152602060048201526011602482015270494e56414c49445f5349474e415455524560781b6044820152606401610428565b6108f4826001610f08565b6001600160a01b038a1660009081526001602052604090205561091889898961094e565b505050505050505050565b6001600160a01b03918216600090815260036020908152604080832093909416825291909152205490565b6001600160a01b0383166109b05760405162461bcd60e51b8152602060048201526024808201527f45524332303a20617070726f76652066726f6d20746865207a65726f206164646044820152637265737360e01b6064820152608401610428565b6001600160a01b038216610a115760405162461bcd60e51b815260206004820152602260248201527f45524332303a20617070726f766520746f20746865207a65726f206164647265604482015261737360f01b6064820152608401610428565b6001600160a01b0383811660008181526003602090815260408083209487168084529482529182902085905590518481527f8c5be1e5ebec7d5bd14f71427d1e84f3dd0314c0f7b2291e5b200ac8c7c3b925910160405180910390a3505050565b6000610a7e8484610923565b90506000198114610ae65781811015610ad95760405162461bcd60e51b815260206004820152601d60248201527f45524332303a20696e73756666696369656e7420616c6c6f77616e63650000006044820152606401610428565b610ae6848484840361094e565b50505050565b6001600160a01b038316610b505760405162461bcd60e51b815260206004820152602560248201527f45524332303a207472616e736665722066726f6d20746865207a65726f206164604482015264647265737360d81b6064820152608401610428565b6001600160a01b038216610bb25760405162461bcd60e51b815260206004820152602360248201527f45524332303a207472616e7366657220746f20746865207a65726f206164647260448201526265737360e81b6064820152608401610428565b6001600160a01b03831660009081526020819052604090205481811015610c2a5760405162461bcd60e51b815260206004820152602660248201527f45524332303a207472616e7366657220616d6f756e7420657863656564732062604482015265616c616e636560d01b6064820152608401610428565b6001600160a01b03848116600081815260208181526040808320878703905593871680835291849020805487019055925185815290927fddf252ad1be2c89b69c2b068fc378daa952ba7f163c4a11628f55a4df523b3ef910160405180910390a3610ae6565b6001600160a01b038216610ce65760405162461bcd60e51b815260206004820152601f60248201527f45524332303a206d696e7420746f20746865207a65726f2061646472657373006044820152606401610428565b8060046000828254610cf89190610f08565b90915550506001600160a01b038216600081815260208181526040808320805486019055518481527fddf252ad1be2c89b69c2b068fc378daa952ba7f163c4a11628f55a4df523b3ef910160405180910390a35050565b6000815180845260005b81811015610d7557602081850181015186830182015201610d59565b506000602082860101526020601f19601f83011685010191505092915050565b602081526000610da86020830184610d4f565b9392505050565b80356001600160a01b0381168114610dc657600080fd5b919050565b60008060408385031215610dde57600080fd5b610de783610daf565b946020939093013593505050565b600080600060608486031215610e0a57600080fd5b610e1384610daf565b9250610e2160208501610daf565b9150604084013590509250925092565b600060208284031215610e4357600080fd5b610da882610daf565b600080600080600080600060e0888a031215610e6757600080fd5b610e7088610daf565b9650610e7e60208901610daf565b95506040880135945060608801359350608088013560ff81168114610ea257600080fd5b9699959850939692959460a0840135945060c09093013592915050565b60008060408385031215610ed257600080fd5b610edb83610daf565b9150610ee960208401610daf565b90509250929050565b634e487b7160e01b600052601160045260246000fd5b8082018082111561036457610364610ef2565b8181038181111561036457610364610ef256fea26469706673582212203e22962233b6505ac864c4cbae11bf9af40a8710ac228a2c349970945ac50dcc64736f6c63430008110033",
  "linkReferences": {},
  "deployedLinkReferences": {}
}