{
  "_format": "hh-sol-artifact-1",
  "contractName": "CounterStorage",
  "sourceName": "contracts/protocol/Pool/CounterStorage.sol",
  "abi": [
    {
      "inputs": [],
      "name": "_addressesProvider",
      "outputs": [
        {
          "internalType": "contract ICounterAddressesProvider",
          "name": "",
          "type": "address"
        }
      ],
      "stateMutability": "view",
      "type": "function"
    }
  ],
  "bytecode": "0x6080604052348015600f57600080fd5b5060918061001e6000396000f3fe6080604052348015600f57600080fd5b506004361060285760003560e01c80639e6ffa5814602d575b600080fd5b600054603f906001600160a01b031681565b6040516001600160a01b03909116815260200160405180910390f3fea264697066735822122013b8fa25074c185b07f4e689535cca1fd7daf27280ab35c7e2c518b00321eaf764736f6c63430008110033",
  "linkReferences": {},
  "deployedLinkReferences": {}
}