{
  "_format": "hh-sol-artifact-1",
  "contractName": "MockAggregator",
  "sourceName": "contracts/mocks/oracle/CLAggregators/MockAggregator.sol",
  "abi": [
    {
      "inputs": [
        {
          "internalType": "int256",
          "name": "_initialAnswer",
          "type": "int256"
        }
      ],
      "stateMutability": "nonpayable",
      "type": "constructor"
    },
    {
      "anonymous": false,
      "inputs": [
        {
          "indexed": true,
          "internalType": "int256",
          "name": "current",
          "type": "int256"
        },
        {
          "indexed": true,
          "internalType": "uint256",
          "name": "roundId",
          "type": "uint256"
        },
        {
          "indexed": false,
          "internalType": "uint256",
          "name": "timestamp",
          "type": "uint256"
        }
      ],
      "name": "AnswerUpdated",
      "type": "event"
    },
    {
      "inputs": [],
      "name": "getTokenType",
      "outputs": [
        {
          "internalType": "uint256",
          "name": "",
          "type": "uint256"
        }
      ],
      "stateMutability": "view",
      "type": "function"
    },
    {
      "inputs": [],
      "name": "latestAnswer",
      "outputs": [
        {
          "internalType": "int256",
          "name": "",
          "type": "int256"
        }
      ],
      "stateMutability": "view",
      "type": "function"
    }
  ],
  "bytecode": "0x608060405234801561001057600080fd5b5060405161011f38038061011f83398101604081905261002f9161006f565b600081815560405142815282907f0559884fd3a460db3073b7fc896cc77986f16e378210ded43186175bf646fc5f9060200160405180910390a350610088565b60006020828403121561008157600080fd5b5051919050565b6089806100966000396000f3fe6080604052348015600f57600080fd5b506004361060325760003560e01c806350d25bcd146037578063fcab181914604d575b600080fd5b6000545b60405190815260200160405180910390f35b6001603b56fea264697066735822122057e26d631416c1df5ed957763e7c1198c4a16a08598b3a6877100badfeb6532d64736f6c63430008110033",
  "linkReferences": {},
  "deployedLinkReferences": {}
}