{
  "_format": "hh-sol-artifact-1",
  "contractName": "ValidationLogic",
  "sourceName": "contracts/protocol/libraries/logic/ValidationLogic.sol",
  "abi": [
    {
      "inputs": [],
      "name": "REBALANCE_UP_LIQUIDITY_RATE_THRESHOLD",
      "outputs": [
        {
          "internalType": "uint256",
          "name": "",
          "type": "uint256"
        }
      ],
      "stateMutability": "view",
      "type": "function"
    },
    {
      "inputs": [],
      "name": "REBALANCE_UP_USAGE_RATIO_THRESHOLD",
      "outputs": [
        {
          "internalType": "uint256",
          "name": "",
          "type": "uint256"
        }
      ],
      "stateMutability": "view",
      "type": "function"
    }
  ],
  "bytecode": "0x61143561003a600b82828239805160001a60731461002d57634e487b7160e01b600052600060045260246000fd5b30600052607381538281f3fe73000000000000000000000000000000000000000030146080604052600436106100875760003560e01c8063902cf50c11610065578063902cf50c146100d9578063abfcc86a146100ec578063c8dbfbdb146100f5578063dffe5fbe1461010857600080fd5b80630eca322b1461008c578063311c63a6146100a15780635494eb8a146100b4575b600080fd5b61009f61009a366004610cf3565b61011b565b005b61009f6100af366004610d9b565b6101e3565b6100c76b0311d253316c79d37600000081565b60405190815260200160405180910390f35b61009f6100e7366004610ef4565b610703565b6100c7610fa081565b61009f610103366004610fd6565b6108d3565b61009f610116366004611126565b610a9f565b60008061012784610bda565b50506040805180820190915260018152603160f81b602082015291935091508361016d5760405162461bcd60e51b815260040161016491906111c0565b60405180910390fd5b506040805180820190915260018152601960f91b6020820152826101a45760405162461bcd60e51b815260040161016491906111c0565b506040805180820190915260018152603360f81b602082015281156101dc5760405162461bcd60e51b815260040161016491906111c0565b5050505050565b801561026457604051638c1a4f1d60e01b81526001600160a01b038085166004830152891660248201526044810182905273__$b97afbdffafad6127e5d292d090d13338f$__90638c1a4f1d9060640160006040518083038186803b15801561024b57600080fd5b505af415801561025f573d6000803e3d6000fd5b505050505b60038901546040516370a0823160e01b81526001600160a01b0365010000000000909204821660048201526000918c16906370a0823190602401602060405180830381865afa1580156102bb573d6000803e3d6000fd5b505050506040513d601f19601f820116820180604052508101906102df91906111d3565b90506103036040518060600160405280602881526020016113d86028913982610c12565b61032560405180606001604052806021815260200161133d6021913988610c12565b6040805160c081018252600080825260208201819052918101829052606081018290526080810182905260a08101919091526103608b610bda565b151560a0850152151560808401521515606083015215156040808301829052805180820190915260018152601960f91b6020820152906103b35760405162461bcd60e51b815260040161016491906111c0565b50806060015115604051806040016040528060018152602001603360f81b815250906103f25760405162461bcd60e51b815260040161016491906111c0565b506040805180820190915260018152603160f81b6020820152896104295760405162461bcd60e51b815260040161016491906111c0565b508060800151604051806040016040528060018152602001603760f81b815250906104675760405162461bcd60e51b815260040161016491906111c0565b506040805180820190915260018152600760fb1b6020820152600288146104a15760405162461bcd60e51b815260040161016491906111c0565b5085516040805180820190915260018152603960f81b6020820152906104da5760405162461bcd60e51b815260040161016491906111c0565b50670de0b6b3a764000086608001511160405180604001604052806002815260200161031360f41b815250906105235760405162461bcd60e51b815260040161016491906111c0565b50610542866040015189886020015161053c9190611218565b90610c5b565b81526040805160608101909152602880825261056b919061138d60208301398760200151610c12565b6105aa6040518060400160405280601f81526020017f76616c6964617465426f72726f7720616d6f756e74496e5553442069733a200081525089610c12565b6105ed6040518060400160405280601e81526020017f76616c6964617465426f72726f772063757272656e744c74762069733a2000008152508760400151610c12565b6106106040518060600160405280602f815260200161135e602f91398251610c12565b6000848760a0015188600001516106279190611218565b6106319190611218565b90506106566040518060600160405280602c8152602001611311602c91398851610c12565b6106956040518060400160405280601d81526020017f76616c6964617465426f72726f77206372742076616c75652069733a2000000081525086610c12565b6106b76040518060600160405280602381526020016113b56023913982610c12565b8151604080518082019091526002815261313160f01b6020820152908210156106f35760405162461bcd60e51b815260040161016491906111c0565b5050505050505050505050505050565b6040805180820190915260018152603160f81b6020820152886107395760405162461bcd60e51b815260040161016491906111c0565b506040805180820190915260018152603560f81b6020820152878911156107735760405162461bcd60e51b815260040161016491906111c0565b506001600160a01b038a1660009081526020878152604080832060ff8d16845290915281206107a190610bda565b505050905080604051806040016040528060018152602001601960f91b815250906107df5760405162461bcd60e51b815260040161016491906111c0565b50604080516080810182526001600160a01b038d16815260ff8c1660208201523381830152606081018b90529051633133ff6360e01b815273__$52a8a86ab43135662ff256bbc95497e8e3$__91633133ff639161084c91908b908b908b908b908b908b9060040161122b565b602060405180830381865af4158015610869573d6000803e3d6000fd5b505050506040513d601f19601f8201168201806040525081019061088d9190611291565b604051806040016040528060018152602001601b60f91b815250906108c55760405162461bcd60e51b815260040161016491906111c0565b505050505050505050505050565b60c08a01516040516370a0823160e01b81523360048201526000916001600160a01b0316906370a0823190602401602060405180830381865afa15801561091e573d6000803e3d6000fd5b505050506040513d601f19601f8201168201806040525081019061094291906111d3565b6101208c015160ff908116600090815260208781526040918290205482518084019093526002835261313960f01b91830191909152929350600160a01b9092041690826109a25760405162461bcd60e51b815260040161016491906111c0565b508880610a575750604080516080810182526001600160a01b038d16815260ff831660208201523381830152606081018490529051633133ff6360e01b815273__$52a8a86ab43135662ff256bbc95497e8e3$__91633133ff6391610a1691908c908c908c908c908c908c9060040161122b565b602060405180830381865af4158015610a33573d6000803e3d6000fd5b505050506040513d601f19601f82011682018060405250810190610a579190611291565b60405180604001604052806002815260200161032360f41b81525090610a905760405162461bcd60e51b815260040161016491906111c0565b50505050505050505050505050565b6040805160208082018352875491829052825180840190935260018352601960f91b90830152600160381b1615159081610aec5760405162461bcd60e51b815260040161016491906111c0565b506040805180820190915260018152603160f81b602082015285610b235760405162461bcd60e51b815260040161016491906111c0565b50600082118015610b4557506002846002811115610b4357610b436111ec565b145b60405180604001604052806002815260200161313560f01b81525090610b7e5760405162461bcd60e51b815260040161016491906111c0565b5060001985141580610b985750336001600160a01b038416145b60405180604001604052806002815260200161189b60f11b81525090610bd15760405162461bcd60e51b815260040161016491906111c0565b50505050505050565b54600160381b811615159167020000000000000082161515916704000000000000008116151591670800000000000000909116151590565b610c578282604051602401610c289291906112b5565b60408051601f198184030181529190526020810180516001600160e01b0316632d839cb360e21b179052610cd2565b5050565b6000821580610c68575081155b15610c7557506000610ccc565b60408051808201909152600381526219181960e91b60208201526127118310610cb15760405162461bcd60e51b815260040161016491906111c0565b5081610cbf846127106112d7565b610cc991906112ee565b90505b92915050565b80516a636f6e736f6c652e6c6f67602083016000808483855afa5050505050565b60008060408385031215610d0657600080fd5b50508035926020909101359150565b80356001600160a01b0381168114610d2c57600080fd5b919050565b604051610100810167ffffffffffffffff81118282101715610d6357634e487b7160e01b600052604160045260246000fd5b60405290565b604051610140810167ffffffffffffffff81118282101715610d6357634e487b7160e01b600052604160045260246000fd5b6000806000806000806000806000808a8c03610220811215610dbc57600080fd5b610dc58c610d15565b9a5060208c01359950610dda60408d01610d15565b985060608c0135975060808c0135965060a08c013595506101008060bf1983011215610e0557600080fd5b610e0d610d31565b915060c08d0135825260e08d01356020830152808d01356040830152506101208c013560608201526101408c013560808201526101608c013560a08201526101808c013560c08201526101a08c013560e082015280945050610e726101c08c01610d15565b92506101e08b013591506102008b013590509295989b9194979a5092959850565b803560ff81168114610d2c57600080fd5b600060208284031215610eb657600080fd5b6040516020810181811067ffffffffffffffff82111715610ee757634e487b7160e01b600052604160045260246000fd5b6040529135825250919050565b6000806000806000806000806000806101408b8d031215610f1457600080fd5b610f1d8b610d15565b9950610f2b60208c01610e93565b985060408b0135975060608b0135965060808b0135955060a08b01359450610f568c60c08d01610ea4565b935060e08b013592506101008b01359150610f746101208c01610d15565b90509295989b9194979a5092959850565b80356fffffffffffffffffffffffffffffffff81168114610d2c57600080fd5b803564ffffffffff81168114610d2c57600080fd5b8015158114610fc857600080fd5b50565b8035610d2c81610fba565b6000806000806000806000806000808a8c03610260811215610ff757600080fd5b6101408082121561100757600080fd5b61100f610d69565b915061101b8e8e610ea4565b825261102960208e01610f85565b602083015261103a60408e01610f85565b604083015261104b60608e01610f85565b606083015261105c60808e01610f85565b608083015261106d60a08e01610fa5565b60a083015261107e60c08e01610d15565b60c083015261108f60e08e01610d15565b60e08301526101006110a2818f01610d15565b908301526101206110b48e8201610e93565b8184015250819b506110c7818e01610d15565b9a5050506110d86101608c01610e93565b97506110e76101808c01610fcb565b96506101a08b013595506101c08b013594506111078c6101e08d01610ea4565b93506102008b013592506102208b01359150610f746102408c01610d15565b600080600080600060a0868803121561113e57600080fd5b853594506020860135935060408601356003811061115b57600080fd5b925061116960608701610d15565b949793965091946080013592915050565b6000815180845260005b818110156111a057602081850181015186830182015201611184565b506000602082860101526020601f19601f83011685010191505092915050565b602081526000610cc9602083018461117a565b6000602082840312156111e557600080fd5b5051919050565b634e487b7160e01b600052602160045260246000fd5b634e487b7160e01b600052601160045260246000fd5b80820180821115610ccc57610ccc611202565b87516001600160a01b0390811682526020808a015160ff16908301526040808a0151821690830152606098890151988201989098526080810196909652935460a0860152915160c085015260e08401526101008301529091166101208201526101400190565b6000602082840312156112a357600080fd5b81516112ae81610fba565b9392505050565b6040815260006112c8604083018561117a565b90508260208301529392505050565b8082028115828204841417610ccc57610ccc611202565b60008261130b57634e487b7160e01b600052601260045260246000fd5b50049056fe76616c6964617465426f72726f772075736572436f6c6c61746572616c42616c616e63655553442069733a2076616c6964617465426f72726f77202d20616d6f756e74496e5553442069733a2076616c6964617465426f72726f7720616d6f756e744f66436f6c6c61746572616c4e65656465645553442069733a2076616c6964617465426f72726f772075736572426f72726f7742616c616e63655553442069733a2076616c6964617465426f72726f772075736572546f74616c4372656469742069733a2076616c6964617465426f72726f77202d20617661696c61626c654c69717569646974792069733a20a2646970667358221220ad374f26961c7c30386d794049bca521adbedcda7c7670fecefeda5f5ac4979564736f6c63430008110033",
  "linkReferences": {
    "contracts/protocol/libraries/logic/CRTLogic.sol": {
      "CRTLogic": [
        {
          "length": 20,
          "start": 592
        }
      ]
    },
    "contracts/protocol/libraries/logic/GenericLogic.sol": {
      "GenericLogic": [
        {
          "length": 20,
          "start": 2131
        },
        {
          "length": 20,
          "start": 2589
        }
      ]
    }
  },
  "deployedLinkReferences": {
    "contracts/protocol/libraries/logic/CRTLogic.sol": {
      "CRTLogic": [
        {
          "length": 20,
          "start": 534
        }
      ]
    },
    "contracts/protocol/libraries/logic/GenericLogic.sol": {
      "GenericLogic": [
        {
          "length": 20,
          "start": 2073
        },
        {
          "length": 20,
          "start": 2531
        }
      ]
    }
  }
}