{
  "_format": "hh-sol-artifact-1",
  "contractName": "PTokenAAVE",
  "sourceName": "contracts/protocol/tokenization/PTokenAAVE.sol",
  "abi": [
    {
      "anonymous": false,
      "inputs": [
        {
          "indexed": true,
          "internalType": "address",
          "name": "owner",
          "type": "address"
        },
        {
          "indexed": true,
          "internalType": "address",
          "name": "spender",
          "type": "address"
        },
        {
          "indexed": false,
          "internalType": "uint256",
          "name": "value",
          "type": "uint256"
        }
      ],
      "name": "Approval",
      "type": "event"
    },
    {
      "anonymous": false,
      "inputs": [
        {
          "indexed": true,
          "internalType": "address",
          "name": "from",
          "type": "address"
        },
        {
          "indexed": true,
          "internalType": "address",
          "name": "to",
          "type": "address"
        },
        {
          "indexed": false,
          "internalType": "uint256",
          "name": "value",
          "type": "uint256"
        },
        {
          "indexed": false,
          "internalType": "uint256",
          "name": "index",
          "type": "uint256"
        }
      ],
      "name": "BalanceTransfer",
      "type": "event"
    },
    {
      "anonymous": false,
      "inputs": [
        {
          "indexed": true,
          "internalType": "address",
          "name": "from",
          "type": "address"
        },
        {
          "indexed": true,
          "internalType": "address",
          "name": "target",
          "type": "address"
        },
        {
          "indexed": false,
          "internalType": "uint256",
          "name": "value",
          "type": "uint256"
        },
        {
          "indexed": false,
          "internalType": "uint256",
          "name": "index",
          "type": "uint256"
        }
      ],
      "name": "Burn",
      "type": "event"
    },
    {
      "anonymous": false,
      "inputs": [
        {
          "indexed": true,
          "internalType": "address",
          "name": "from",
          "type": "address"
        },
        {
          "indexed": false,
          "internalType": "uint256",
          "name": "value",
          "type": "uint256"
        },
        {
          "indexed": false,
          "internalType": "uint256",
          "name": "index",
          "type": "uint256"
        }
      ],
      "name": "Mint",
      "type": "event"
    },
    {
      "anonymous": false,
      "inputs": [
        {
          "indexed": true,
          "internalType": "address",
          "name": "from",
          "type": "address"
        },
        {
          "indexed": true,
          "internalType": "address",
          "name": "to",
          "type": "address"
        },
        {
          "indexed": false,
          "internalType": "uint256",
          "name": "value",
          "type": "uint256"
        }
      ],
      "name": "Transfer",
      "type": "event"
    },
    {
      "inputs": [],
      "name": "COUNTER",
      "outputs": [
        {
          "internalType": "contract ICounter",
          "name": "",
          "type": "address"
        }
      ],
      "stateMutability": "view",
      "type": "function"
    },
    {
      "inputs": [],
      "name": "DOMAIN_SEPARATOR",
      "outputs": [
        {
          "internalType": "bytes32",
          "name": "",
          "type": "bytes32"
        }
      ],
      "stateMutability": "view",
      "type": "function"
    },
    {
      "inputs": [],
      "name": "EIP712_REVISION",
      "outputs": [
        {
          "internalType": "bytes",
          "name": "",
          "type": "bytes"
        }
      ],
      "stateMutability": "view",
      "type": "function"
    },
    {
      "inputs": [],
      "name": "PERMIT_TYPEHASH",
      "outputs": [
        {
          "internalType": "bytes32",
          "name": "",
          "type": "bytes32"
        }
      ],
      "stateMutability": "view",
      "type": "function"
    },
    {
      "inputs": [],
      "name": "RESERVE_TREASURY_ADDRESS",
      "outputs": [
        {
          "internalType": "address",
          "name": "",
          "type": "address"
        }
      ],
      "stateMutability": "view",
      "type": "function"
    },
    {
      "inputs": [],
      "name": "UNDERLYING_ASSET_ADDRESS",
      "outputs": [
        {
          "internalType": "address",
          "name": "",
          "type": "address"
        }
      ],
      "stateMutability": "view",
      "type": "function"
    },
    {
      "inputs": [],
      "name": "UNDERLYING_ATOKEN_ADDRESS",
      "outputs": [
        {
          "internalType": "address",
          "name": "",
          "type": "address"
        }
      ],
      "stateMutability": "view",
      "type": "function"
    },
    {
      "inputs": [
        {
          "internalType": "address",
          "name": "",
          "type": "address"
        }
      ],
      "name": "_nonces",
      "outputs": [
        {
          "internalType": "uint256",
          "name": "",
          "type": "uint256"
        }
      ],
      "stateMutability": "view",
      "type": "function"
    },
    {
      "inputs": [
        {
          "internalType": "address",
          "name": "owner",
          "type": "address"
        },
        {
          "internalType": "address",
          "name": "spender",
          "type": "address"
        }
      ],
      "name": "allowance",
      "outputs": [
        {
          "internalType": "uint256",
          "name": "",
          "type": "uint256"
        }
      ],
      "stateMutability": "view",
      "type": "function"
    },
    {
      "inputs": [
        {
          "internalType": "address",
          "name": "spender",
          "type": "address"
        },
        {
          "internalType": "uint256",
          "name": "amount",
          "type": "uint256"
        }
      ],
      "name": "approve",
      "outputs": [
        {
          "internalType": "bool",
          "name": "",
          "type": "bool"
        }
      ],
      "stateMutability": "nonpayable",
      "type": "function"
    },
    {
      "inputs": [
        {
          "internalType": "address",
          "name": "user",
          "type": "address"
        }
      ],
      "name": "balanceOf",
      "outputs": [
        {
          "internalType": "uint256",
          "name": "",
          "type": "uint256"
        }
      ],
      "stateMutability": "view",
      "type": "function"
    },
    {
      "inputs": [
        {
          "internalType": "address",
          "name": "user",
          "type": "address"
        },
        {
          "internalType": "address",
          "name": "receiverOfUnderlying",
          "type": "address"
        },
        {
          "internalType": "uint256",
          "name": "amount",
          "type": "uint256"
        },
        {
          "internalType": "uint256",
          "name": "index",
          "type": "uint256"
        }
      ],
      "name": "burn",
      "outputs": [],
      "stateMutability": "nonpayable",
      "type": "function"
    },
    {
      "inputs": [],
      "name": "decimals",
      "outputs": [
        {
          "internalType": "uint8",
          "name": "",
          "type": "uint8"
        }
      ],
      "stateMutability": "view",
      "type": "function"
    },
    {
      "inputs": [
        {
          "internalType": "address",
          "name": "spender",
          "type": "address"
        },
        {
          "internalType": "uint256",
          "name": "subtractedValue",
          "type": "uint256"
        }
      ],
      "name": "decreaseAllowance",
      "outputs": [
        {
          "internalType": "bool",
          "name": "",
          "type": "bool"
        }
      ],
      "stateMutability": "nonpayable",
      "type": "function"
    },
    {
      "inputs": [
        {
          "internalType": "address",
          "name": "user",
          "type": "address"
        }
      ],
      "name": "getScaledUserBalanceAndSupply",
      "outputs": [
        {
          "internalType": "uint256",
          "name": "",
          "type": "uint256"
        },
        {
          "internalType": "uint256",
          "name": "",
          "type": "uint256"
        }
      ],
      "stateMutability": "view",
      "type": "function"
    },
    {
      "inputs": [
        {
          "internalType": "address",
          "name": "user",
          "type": "address"
        },
        {
          "internalType": "uint256",
          "name": "amount",
          "type": "uint256"
        }
      ],
      "name": "handleRepayment",
      "outputs": [],
      "stateMutability": "nonpayable",
      "type": "function"
    },
    {
      "inputs": [
        {
          "internalType": "address",
          "name": "spender",
          "type": "address"
        },
        {
          "internalType": "uint256",
          "name": "addedValue",
          "type": "uint256"
        }
      ],
      "name": "increaseAllowance",
      "outputs": [
        {
          "internalType": "bool",
          "name": "",
          "type": "bool"
        }
      ],
      "stateMutability": "nonpayable",
      "type": "function"
    },
    {
      "inputs": [
        {
          "internalType": "contract ICounter",
          "name": "counter",
          "type": "address"
        },
        {
          "internalType": "address",
          "name": "treasury",
          "type": "address"
        },
        {
          "internalType": "address",
          "name": "underlyingAsset",
          "type": "address"
        },
        {
          "internalType": "uint8",
          "name": "riskTier",
          "type": "uint8"
        },
        {
          "internalType": "uint8",
          "name": "pTokenDecimals",
          "type": "uint8"
        },
        {
          "internalType": "string",
          "name": "pTokenName",
          "type": "string"
        },
        {
          "internalType": "string",
          "name": "pTokenSymbol",
          "type": "string"
        },
        {
          "internalType": "bytes",
          "name": "params",
          "type": "bytes"
        }
      ],
      "name": "initialize",
      "outputs": [],
      "stateMutability": "nonpayable",
      "type": "function"
    },
    {
      "inputs": [
        {
          "internalType": "address",
          "name": "user",
          "type": "address"
        },
        {
          "internalType": "uint256",
          "name": "amount",
          "type": "uint256"
        },
        {
          "internalType": "uint256",
          "name": "index",
          "type": "uint256"
        }
      ],
      "name": "mint",
      "outputs": [
        {
          "internalType": "bool",
          "name": "",
          "type": "bool"
        }
      ],
      "stateMutability": "nonpayable",
      "type": "function"
    },
    {
      "inputs": [
        {
          "internalType": "address",
          "name": "crt",
          "type": "address"
        },
        {
          "internalType": "uint256",
          "name": "amount",
          "type": "uint256"
        },
        {
          "internalType": "uint256",
          "name": "index",
          "type": "uint256"
        }
      ],
      "name": "mintToCRT",
      "outputs": [],
      "stateMutability": "nonpayable",
      "type": "function"
    },
    {
      "inputs": [
        {
          "internalType": "uint256",
          "name": "amount",
          "type": "uint256"
        },
        {
          "internalType": "uint256",
          "name": "index",
          "type": "uint256"
        }
      ],
      "name": "mintToTreasury",
      "outputs": [],
      "stateMutability": "nonpayable",
      "type": "function"
    },
    {
      "inputs": [],
      "name": "name",
      "outputs": [
        {
          "internalType": "string",
          "name": "",
          "type": "string"
        }
      ],
      "stateMutability": "view",
      "type": "function"
    },
    {
      "inputs": [
        {
          "internalType": "address",
          "name": "owner",
          "type": "address"
        },
        {
          "internalType": "address",
          "name": "spender",
          "type": "address"
        },
        {
          "internalType": "uint256",
          "name": "value",
          "type": "uint256"
        },
        {
          "internalType": "uint256",
          "name": "deadline",
          "type": "uint256"
        },
        {
          "internalType": "uint8",
          "name": "v",
          "type": "uint8"
        },
        {
          "internalType": "bytes32",
          "name": "r",
          "type": "bytes32"
        },
        {
          "internalType": "bytes32",
          "name": "s",
          "type": "bytes32"
        }
      ],
      "name": "permit",
      "outputs": [],
      "stateMutability": "nonpayable",
      "type": "function"
    },
    {
      "inputs": [
        {
          "internalType": "address",
          "name": "user",
          "type": "address"
        }
      ],
      "name": "scaledBalanceOf",
      "outputs": [
        {
          "internalType": "uint256",
          "name": "",
          "type": "uint256"
        }
      ],
      "stateMutability": "view",
      "type": "function"
    },
    {
      "inputs": [],
      "name": "scaledTotalSupply",
      "outputs": [
        {
          "internalType": "uint256",
          "name": "",
          "type": "uint256"
        }
      ],
      "stateMutability": "view",
      "type": "function"
    },
    {
      "inputs": [],
      "name": "symbol",
      "outputs": [
        {
          "internalType": "string",
          "name": "",
          "type": "string"
        }
      ],
      "stateMutability": "view",
      "type": "function"
    },
    {
      "inputs": [],
      "name": "totalSupply",
      "outputs": [
        {
          "internalType": "uint256",
          "name": "",
          "type": "uint256"
        }
      ],
      "stateMutability": "view",
      "type": "function"
    },
    {
      "inputs": [
        {
          "internalType": "address",
          "name": "recipient",
          "type": "address"
        },
        {
          "internalType": "uint256",
          "name": "amount",
          "type": "uint256"
        }
      ],
      "name": "transfer",
      "outputs": [
        {
          "internalType": "bool",
          "name": "",
          "type": "bool"
        }
      ],
      "stateMutability": "nonpayable",
      "type": "function"
    },
    {
      "inputs": [
        {
          "internalType": "address",
          "name": "sender",
          "type": "address"
        },
        {
          "internalType": "address",
          "name": "recipient",
          "type": "address"
        },
        {
          "internalType": "uint256",
          "name": "amount",
          "type": "uint256"
        }
      ],
      "name": "transferFrom",
      "outputs": [
        {
          "internalType": "bool",
          "name": "",
          "type": "bool"
        }
      ],
      "stateMutability": "nonpayable",
      "type": "function"
    },
    {
      "inputs": [
        {
          "internalType": "address",
          "name": "from",
          "type": "address"
        },
        {
          "internalType": "address",
          "name": "to",
          "type": "address"
        },
        {
          "internalType": "uint256",
          "name": "value",
          "type": "uint256"
        }
      ],
      "name": "transferOnLiquidation",
      "outputs": [],
      "stateMutability": "nonpayable",
      "type": "function"
    },
    {
      "inputs": [
        {
          "internalType": "address",
          "name": "target",
          "type": "address"
        },
        {
          "internalType": "uint256",
          "name": "amount",
          "type": "uint256"
        }
      ],
      "name": "transferUnderlyingTo",
      "outputs": [
        {
          "internalType": "uint256",
          "name": "",
          "type": "uint256"
        }
      ],
      "stateMutability": "nonpayable",
      "type": "function"
    }
  ],
  "bytecode": "0x6080604052600980546001600160a01b031916737d2768de32b0b80b7a3454c06bdac94a69ddc7a91790553480156200003757600080fd5b50604080518082018252600b8082526a141513d2d15397d253541360aa1b602080840182905284518086019095529184529083015290600060036200007d84826200014f565b5060046200008c83826200014f565b506005805460ff191660ff92909216919091179055506200021b9050565b634e487b7160e01b600052604160045260246000fd5b600181811c90821680620000d557607f821691505b602082108103620000f657634e487b7160e01b600052602260045260246000fd5b50919050565b601f8211156200014a57600081815260208120601f850160051c81016020861015620001255750805b601f850160051c820191505b81811015620001465782815560010162000131565b5050505b505050565b81516001600160401b038111156200016b576200016b620000aa565b62000183816200017c8454620000c0565b84620000fc565b602080601f831160018114620001bb5760008415620001a25750858301515b600019600386901b1c1916600185901b17855562000146565b600085815260208120601f198616915b82811015620001ec57888601518255948401946001909101908401620001cb565b50858210156200020b5787850151600019600388901b60f8161c191681555b5050505050600190811b01905550565b6124fd806200022b6000396000f3fe608060405234801561001057600080fd5b50600436106101e55760003560e01c80637df5bd3b1161010f578063b16a19de116100a2578063d66edb3611610071578063d66edb3614610458578063d7020d0a14610469578063dd62ed3e1461047c578063f866c319146104b557600080fd5b8063b16a19de1461040c578063b1bf962d1461041d578063b9844d8d14610425578063d505accf1461044557600080fd5b806399b70579116100de57806399b70579146103b0578063a457c2d7146103d5578063a9059cbb146103e8578063ae167335146103fb57600080fd5b80637df5bd3b1461036f57806386f18e931461038257806388dd91a11461039557806395d89b41146103a857600080fd5b806330adf81f116101875780633aec6afe116101565780633aec6afe146103145780634efecaa51461032957806370a082311461033c578063781603761461034f57600080fd5b806330adf81f146102bc578063313ce567146102e35780633644e515146102f8578063395093511461030157600080fd5b8063156e29f6116101c3578063156e29f61461026d57806318160ddd146102805780631da24f3e1461029657806323b872dd146102a957600080fd5b806306fdde03146101ea578063095ea7b3146102085780630afbcdc91461022b575b600080fd5b6101f26104c8565b6040516101ff9190611ead565b60405180910390f35b61021b610216366004611ee8565b61055a565b60405190151581526020016101ff565b610258610239366004611f14565b6001600160a01b03166000908152602081905260409020546002549091565b604080519283526020830191909152016101ff565b61021b61027b366004611f31565b610571565b6102886106de565b6040519081526020016101ff565b6102886102a4366004611f14565b610792565b61021b6102b7366004611f66565b6107b0565b6102887f6e71edae12b1b97f4d1f60370fef10105fa2faae0126114a169c64845d6126c981565b60055460405160ff90911681526020016101ff565b61028860075481565b61021b61030f366004611ee8565b61083d565b610327610322366004611f31565b610874565b005b610288610337366004611ee8565b610958565b61028861034a366004611f14565b610a46565b6101f2604051806040016040528060018152602001603160f81b81525081565b61032761037d366004611fa7565b610b65565b610327610390366004612023565b610c4a565b6103276103a3366004611ee8565b610f25565b6101f2610f75565b6008546001600160a01b03165b6040516001600160a01b0390911681526020016101ff565b61021b6103e3366004611ee8565b610f84565b61021b6103f6366004611ee8565b610fbb565b600a546001600160a01b03166103bd565b600c546001600160a01b03166103bd565b610288610fff565b610288610433366004611f14565b60066020526000908152604090205481565b610327610453366004612117565b61100f565b600b546001600160a01b03166103bd565b610327610477366004612185565b611241565b61028861048a3660046121cb565b6001600160a01b03918216600090815260016020908152604080832093909416825291909152205490565b6103276104c3366004611f66565b611386565b6060600380546104d790612204565b80601f016020809104026020016040519081016040528092919081815260200182805461050390612204565b80156105505780601f1061052557610100808354040283529160200191610550565b820191906000526020600020905b81548152906001019060200180831161053357829003601f168201915b5050505050905090565b6000610567338484611424565b5060015b92915050565b600854604080518082019091526002815261323960f01b60208201526000916001600160a01b031633146105c15760405162461bcd60e51b81526004016105b89190611ead565b60405180910390fd5b506001600160a01b038416600090815260208190526040812054906105e68585611540565b6040805180820190915260028152611a9b60f11b6020820152909150816106205760405162461bcd60e51b81526004016105b89190611ead565b5061062b868261161e565b6040518581526001600160a01b038716906000906000805160206124a88339815191529060200160405180910390a360408051868152602081018690526001600160a01b038816917f4c209b5fc8ad50758f13e2e1088ba56a560dff690a1c6fef26394f4c03821c4f910160405180910390a26106d4604051806040016040528060148152602001730383932bb34b7bab9a130b630b731b29034b99d160651b815250836116c9565b5015949350505050565b6000806106ea60025490565b9050806000036106fc57600091505090565b600854600b54600a5460405163776f689160e01b81526001600160a01b039283166004820152600160a01b90910460ff16602482015261078c92919091169063776f689190604401602060405180830381865afa158015610761573d6000803e3d6000fd5b505050506040513d601f19601f82011682018060405250810190610785919061223e565b829061170e565b91505090565b6001600160a01b03811660009081526020819052604081205461056b565b60006107bd8484846117d0565b6001600160a01b0384166000908152600160209081526040808320338085529252909120546107f89186916107f390869061226d565b611424565b826001600160a01b0316846001600160a01b03166000805160206124a88339815191528460405161082b91815260200190565b60405180910390a35060019392505050565b3360008181526001602090815260408083206001600160a01b038716845290915281205490916105679185906107f3908690612280565b6008546001600160a01b0316336001600160a01b03161460405180604001604052806002815260200161323960f01b815250906108c45760405162461bcd60e51b81526004016105b89190611ead565b508115610953576108de836108d98484611540565b61161e565b6040518281526001600160a01b038416906000906000805160206124a88339815191529060200160405180910390a360408051838152602081018390526001600160a01b038516917f4c209b5fc8ad50758f13e2e1088ba56a560dff690a1c6fef26394f4c03821c4f91015b60405180910390a25b505050565b600854604080518082019091526002815261323960f01b60208201526000916001600160a01b0316331461099f5760405162461bcd60e51b81526004016105b89190611ead565b50600954600c54604051631a4ca37b60e21b81526001600160a01b0391821660048201526024810185905230604482015260009291909116906369328dec906064016020604051808303816000875af1158015610a00573d6000803e3d6000fd5b505050506040513d601f19601f82011682018060405250810190610a24919061223e565b600c54909150610a3e906001600160a01b031685856117dd565b509092915050565b600954600c5460405163d15e005360e01b81526001600160a01b03918216600482015260009261056b92169063d15e005390602401602060405180830381865afa158015610a98573d6000803e3d6000fd5b505050506040513d601f19601f82011682018060405250810190610abc919061223e565b600854600b54600a5460405163776f689160e01b81526001600160a01b039283166004820152600160a01b90910460ff166024820152610b5f92919091169063776f689190604401602060405180830381865afa158015610b21573d6000803e3d6000fd5b505050506040513d601f19601f82011682018060405250810190610b45919061223e565b6001600160a01b0386166000908152602081905260409020545b9061170e565b6008546001600160a01b0316336001600160a01b03161460405180604001604052806002815260200161323960f01b81525090610bb55760405162461bcd60e51b81526004016105b89190611ead565b508115610c4657600a546001600160a01b0316610bd6816108d98585611540565b6040518381526001600160a01b038216906000906000805160206124a88339815191529060200160405180910390a360408051848152602081018490526001600160a01b038316917f4c209b5fc8ad50758f13e2e1088ba56a560dff690a1c6fef26394f4c03821c4f910161094a565b5050565b600c54600160a01b900460ff1615610cbb5760405162461bcd60e51b815260206004820152602e60248201527f436f6e747261637420696e7374616e63652068617320616c726561647920626560448201526d195b881a5b9a5d1a585b1a5e995960921b60648201526084016105b8565b60405146907f8b73c3c69bb8fe3d512ecc4cf759cc79239f7b179b0ffacaa9a75d522b39400f90610cef9089908990612293565b60408051918290038220828201825260018352603160f81b6020938401528151928301939093528101919091527fc89efdaa54c0f20c7adf612882df0950f5a951637e0307cdcb4c672f298b8bc66060820152608081018290523060a082015260c00160408051601f198184030181528282528051602091820120600755601f8901819004810283018101909152878252610da59190899089908190840183828082843760009201919091525061182f92505050565b610de485858080601f01602080910402602001604051908101604052809392919081815260200183838082843760009201919091525061183b92505050565b6005805460ff191660ff8a16179055600880546001600160a01b03808f166001600160a01b031992831617909255600a8054600b80548f861694168417905560ff8d16600160a01b026001600160a81b0319909116938f169390931792909217909155604080516358b50cef60e11b8152905163b16a19de916004808201926020929091908290030181865afa158015610e82573d6000803e3d6000fd5b505050506040513d601f19601f82011682018060405250810190610ea691906122a3565b600c80546001600160a01b0319166001600160a01b0392909216918217905560408051808201909152601381527203ab73232b9363cb4b733a0b9b9b2ba1034b99606d1b6020820152610ef891611847565b5050600c805460ff60a01b198116600160a01b9182900460ff161590910217905550505050505050505050565b6008546001600160a01b0316336001600160a01b03161460405180604001604052806002815260200161323960f01b815250906109535760405162461bcd60e51b81526004016105b89190611ead565b6060600480546104d790612204565b3360008181526001602090815260408083206001600160a01b038716845290915281205490916105679185906107f390869061226d565b6000610fc83384846117d0565b6040518281526001600160a01b0384169033906000805160206124a88339815191529060200160405180910390a350600192915050565b600061100a60025490565b905090565b6001600160a01b0387166110555760405162461bcd60e51b815260206004820152600d60248201526c24a72b20a624a22fa7aba722a960991b60448201526064016105b8565b8342111561109a5760405162461bcd60e51b815260206004820152601260248201527124a72b20a624a22fa2ac2824a920aa24a7a760711b60448201526064016105b8565b6001600160a01b0387811660008181526006602090815260408083205460075482517f6e71edae12b1b97f4d1f60370fef10105fa2faae0126114a169c64845d6126c98186015280840196909652958c166060860152608085018b905260a0850181905260c08086018b90528251808703909101815260e086019092528151919092012061190160f01b610100850152610102840194909452610122830193909352906101420160408051601f1981840301815282825280516020918201206000845290830180835281905260ff8816918301919091526060820186905260808201859052915060019060a0016020604051602081039080840390855afa1580156111a9573d6000803e3d6000fd5b505050602060405103516001600160a01b0316896001600160a01b0316146112075760405162461bcd60e51b8152602060048201526011602482015270494e56414c49445f5349474e415455524560781b60448201526064016105b8565b611212826001612280565b6001600160a01b038a16600090815260066020526040902055611236898989611424565b505050505050505050565b6008546001600160a01b0316336001600160a01b03161460405180604001604052806002815260200161323960f01b815250906112915760405162461bcd60e51b81526004016105b89190611ead565b50600061129e8383611540565b60408051808201909152600281526106a760f31b6020820152909150816112d85760405162461bcd60e51b81526004016105b89190611ead565b506112e3858261188c565b600b546112fa906001600160a01b031685856117dd565b6040518381526000906001600160a01b038716906000805160206124a88339815191529060200160405180910390a3836001600160a01b0316856001600160a01b03167f5d624aa9c148153ab3446c1b154f660ee7701e549fe9b62dab7171b1c80e6fa28585604051611377929190918252602082015260400190565b60405180910390a35050505050565b6008546001600160a01b0316336001600160a01b03161460405180604001604052806002815260200161323960f01b815250906113d65760405162461bcd60e51b81526004016105b89190611ead565b506113e4838383600061191f565b816001600160a01b0316836001600160a01b03166000805160206124a88339815191528360405161141791815260200190565b60405180910390a3505050565b6001600160a01b0383166114865760405162461bcd60e51b8152602060048201526024808201527f45524332303a20617070726f76652066726f6d20746865207a65726f206164646044820152637265737360e01b60648201526084016105b8565b6001600160a01b0382166114e75760405162461bcd60e51b815260206004820152602260248201527f45524332303a20617070726f766520746f20746865207a65726f206164647265604482015261737360f01b60648201526084016105b8565b6001600160a01b0383811660008181526001602090815260408083209487168084529482529182902085905590518481527f8c5be1e5ebec7d5bd14f71427d1e84f3dd0314c0f7b2291e5b200ac8c7c3b9259101611417565b604080518082019091526002815261035360f41b60208201526000908261157a5760405162461bcd60e51b81526004016105b89190611ead565b5060006115886002846122c0565b90506b033b2e3c9fd0803ce80000006115a38260001961226d565b6115ad91906122c0565b84111560405180604001604052806002815260200161068760f31b815250906115e95760405162461bcd60e51b81526004016105b89190611ead565b5082816116026b033b2e3c9fd0803ce8000000876122e2565b61160c9190612280565b61161691906122c0565b949350505050565b6001600160a01b0382166116745760405162461bcd60e51b815260206004820152601f60248201527f45524332303a206d696e7420746f20746865207a65726f20616464726573730060448201526064016105b8565b6002546116818282612280565b6002556001600160a01b0383166000908152602081905260409020546116a78382612280565b6001600160a01b03909416600090815260208190526040902093909355505050565b610c4682826040516024016116df9291906122f9565b60408051601f198184030181529190526020810180516001600160e01b0316632d839cb360e21b179052611b0c565b600082158061171b575081155b156117285750600061056b565b8161174060026b033b2e3c9fd0803ce80000006122c0565b61174c9060001961226d565b61175691906122c0565b83111560405180604001604052806002815260200161068760f31b815250906117925760405162461bcd60e51b81526004016105b89190611ead565b506b033b2e3c9fd0803ce80000006117ab6002826122c0565b6117b584866122e2565b6117bf9190612280565b6117c991906122c0565b9392505050565b610953838383600161191f565b604080516001600160a01b038416602482015260448082018490528251808303909101815260649091019091526020810180516001600160e01b031663a9059cbb60e01b179052610953908490611b2d565b6003610c46828261237f565b6004610c46828261237f565b610c46828260405160240161185d92919061243f565b60408051601f198184030181529190526020810180516001600160e01b031663319af33360e01b179052611b0c565b6001600160a01b0382166118ec5760405162461bcd60e51b815260206004820152602160248201527f45524332303a206275726e2066726f6d20746865207a65726f206164647265736044820152607360f81b60648201526084016105b8565b6002546118f9828261226d565b6002556001600160a01b0383166000908152602081905260409020546116a7838261226d565b600b54600854600a5460405163776f689160e01b81526001600160a01b0393841660048201819052600160a01b90920460ff166024820152909290911690600090829063776f689190604401602060405180830381865afa158015611988573d6000803e3d6000fd5b505050506040513d601f19601f820116820180604052508101906119ac919061223e565b905060006119d382610b5f8a6001600160a01b031660009081526020819052604090205490565b905060006119fa83610b5f8a6001600160a01b031660009081526020819052604090205490565b9050611a108989611a0b8a87611540565b611bff565b8515611aab57600a54604051630c1fc1e960e41b81526001600160a01b038781166004830152600160a01b90920460ff1660248201528a8216604482015289821660648201526084810189905260a4810184905260c481018390529085169063c1fc1e909060e401600060405180830381600087803b158015611a9257600080fd5b505af1158015611aa6573d6000803e3d6000fd5b505050505b876001600160a01b0316896001600160a01b03167f4beccb90f994c31aced7a23b5611020728a23d8ec5cddd1a3e9d97b96fda86668986604051611af9929190918252602082015260400190565b60405180910390a3505050505050505050565b80516a636f6e736f6c652e6c6f67602083016000808483855afa5050505050565b6000611b82826040518060400160405280602081526020017f5361666545524332303a206c6f772d6c6576656c2063616c6c206661696c6564815250856001600160a01b0316611d3a9092919063ffffffff16565b8051909150156109535780806020019051810190611ba09190612469565b6109535760405162461bcd60e51b815260206004820152602a60248201527f5361666545524332303a204552433230206f7065726174696f6e20646964206e6044820152691bdd081cdd58d8d9595960b21b60648201526084016105b8565b6001600160a01b038316611c635760405162461bcd60e51b815260206004820152602560248201527f45524332303a207472616e736665722066726f6d20746865207a65726f206164604482015264647265737360d81b60648201526084016105b8565b6001600160a01b038216611cc55760405162461bcd60e51b815260206004820152602360248201527f45524332303a207472616e7366657220746f20746865207a65726f206164647260448201526265737360e81b60648201526084016105b8565b6001600160a01b038316600090815260208190526040902054611ce8828261226d565b6001600160a01b038086166000908152602081905260408082209390935590851681522054611d178382612280565b6001600160a01b0390941660009081526020819052604090209390935550505050565b6060611616848460008585600080866001600160a01b03168587604051611d61919061248b565b60006040518083038185875af1925050503d8060008114611d9e576040519150601f19603f3d011682016040523d82523d6000602084013e611da3565b606091505b5091509150611db487838387611dbf565b979650505050505050565b60608315611e2e578251600003611e27576001600160a01b0385163b611e275760405162461bcd60e51b815260206004820152601d60248201527f416464726573733a2063616c6c20746f206e6f6e2d636f6e747261637400000060448201526064016105b8565b5081611616565b6116168383815115611e435781518083602001fd5b8060405162461bcd60e51b81526004016105b89190611ead565b60005b83811015611e78578181015183820152602001611e60565b50506000910152565b60008151808452611e99816020860160208601611e5d565b601f01601f19169290920160200192915050565b6020815260006117c96020830184611e81565b6001600160a01b0381168114611ed557600080fd5b50565b8035611ee381611ec0565b919050565b60008060408385031215611efb57600080fd5b8235611f0681611ec0565b946020939093013593505050565b600060208284031215611f2657600080fd5b81356117c981611ec0565b600080600060608486031215611f4657600080fd5b8335611f5181611ec0565b95602085013595506040909401359392505050565b600080600060608486031215611f7b57600080fd5b8335611f8681611ec0565b92506020840135611f9681611ec0565b929592945050506040919091013590565b60008060408385031215611fba57600080fd5b50508035926020909101359150565b803560ff81168114611ee357600080fd5b60008083601f840112611fec57600080fd5b50813567ffffffffffffffff81111561200457600080fd5b60208301915083602082850101111561201c57600080fd5b9250929050565b60008060008060008060008060008060006101008c8e03121561204557600080fd5b61204e8c611ed8565b9a5061205c60208d01611ed8565b995061206a60408d01611ed8565b985061207860608d01611fc9565b975061208660808d01611fc9565b965067ffffffffffffffff8060a08e013511156120a257600080fd5b6120b28e60a08f01358f01611fda565b909750955060c08d01358110156120c857600080fd5b6120d88e60c08f01358f01611fda565b909550935060e08d01358110156120ee57600080fd5b506120ff8d60e08e01358e01611fda565b81935080925050509295989b509295989b9093969950565b600080600080600080600060e0888a03121561213257600080fd5b873561213d81611ec0565b9650602088013561214d81611ec0565b9550604088013594506060880135935061216960808901611fc9565b925060a0880135915060c0880135905092959891949750929550565b6000806000806080858703121561219b57600080fd5b84356121a681611ec0565b935060208501356121b681611ec0565b93969395505050506040820135916060013590565b600080604083850312156121de57600080fd5b82356121e981611ec0565b915060208301356121f981611ec0565b809150509250929050565b600181811c9082168061221857607f821691505b60208210810361223857634e487b7160e01b600052602260045260246000fd5b50919050565b60006020828403121561225057600080fd5b5051919050565b634e487b7160e01b600052601160045260246000fd5b8181038181111561056b5761056b612257565b8082018082111561056b5761056b612257565b8183823760009101908152919050565b6000602082840312156122b557600080fd5b81516117c981611ec0565b6000826122dd57634e487b7160e01b600052601260045260246000fd5b500490565b808202811582820484141761056b5761056b612257565b60408152600061230c6040830185611e81565b90508260208301529392505050565b634e487b7160e01b600052604160045260246000fd5b601f82111561095357600081815260208120601f850160051c810160208610156123585750805b601f850160051c820191505b8181101561237757828155600101612364565b505050505050565b815167ffffffffffffffff8111156123995761239961231b565b6123ad816123a78454612204565b84612331565b602080601f8311600181146123e257600084156123ca5750858301515b600019600386901b1c1916600185901b178555612377565b600085815260208120601f198616915b82811015612411578886015182559484019460019091019084016123f2565b508582101561242f5787850151600019600388901b60f8161c191681555b5050505050600190811b01905550565b6040815260006124526040830185611e81565b905060018060a01b03831660208301529392505050565b60006020828403121561247b57600080fd5b815180151581146117c957600080fd5b6000825161249d818460208701611e5d565b919091019291505056feddf252ad1be2c89b69c2b068fc378daa952ba7f163c4a11628f55a4df523b3efa264697066735822122039a50a30f915ea19407abd9ee793dd053e792bb6d68dd4ba1e4e624d56b5535364736f6c63430008110033",
  "linkReferences": {},
  "deployedLinkReferences": {}
}