{
  "_format": "hh-sol-artifact-1",
  "contractName": "WETHGateway",
  "sourceName": "contracts/misc/WETHGateway.sol",
  "abi": [
    {
      "inputs": [
        {
          "internalType": "address",
          "name": "weth",
          "type": "address"
        }
      ],
      "stateMutability": "nonpayable",
      "type": "constructor"
    },
    {
      "anonymous": false,
      "inputs": [
        {
          "indexed": true,
          "internalType": "address",
          "name": "previousOwner",
          "type": "address"
        },
        {
          "indexed": true,
          "internalType": "address",
          "name": "newOwner",
          "type": "address"
        }
      ],
      "name": "OwnershipTransferred",
      "type": "event"
    },
    {
      "stateMutability": "payable",
      "type": "fallback"
    },
    {
      "inputs": [
        {
          "internalType": "address",
          "name": "counter",
          "type": "address"
        }
      ],
      "name": "authorizeCounter",
      "outputs": [],
      "stateMutability": "nonpayable",
      "type": "function"
    },
    {
      "inputs": [
        {
          "internalType": "address",
          "name": "counter",
          "type": "address"
        },
        {
          "internalType": "uint8",
          "name": "riskTier",
          "type": "uint8"
        },
        {
          "internalType": "uint256",
          "name": "amount",
          "type": "uint256"
        },
        {
          "internalType": "uint256",
          "name": "interesRateMode",
          "type": "uint256"
        },
        {
          "internalType": "uint16",
          "name": "referralCode",
          "type": "uint16"
        },
        {
          "internalType": "bool",
          "name": "crtenable",
          "type": "bool"
        }
      ],
      "name": "borrowETH",
      "outputs": [],
      "stateMutability": "nonpayable",
      "type": "function"
    },
    {
      "inputs": [
        {
          "internalType": "address",
          "name": "counter",
          "type": "address"
        },
        {
          "internalType": "uint8",
          "name": "riskTier",
          "type": "uint8"
        },
        {
          "internalType": "address",
          "name": "onBehalfOf",
          "type": "address"
        },
        {
          "internalType": "uint16",
          "name": "referralCode",
          "type": "uint16"
        }
      ],
      "name": "depositETH",
      "outputs": [],
      "stateMutability": "payable",
      "type": "function"
    },
    {
      "inputs": [
        {
          "internalType": "address",
          "name": "to",
          "type": "address"
        },
        {
          "internalType": "uint256",
          "name": "amount",
          "type": "uint256"
        }
      ],
      "name": "emergencyEtherTransfer",
      "outputs": [],
      "stateMutability": "nonpayable",
      "type": "function"
    },
    {
      "inputs": [
        {
          "internalType": "address",
          "name": "token",
          "type": "address"
        },
        {
          "internalType": "address",
          "name": "to",
          "type": "address"
        },
        {
          "internalType": "uint256",
          "name": "amount",
          "type": "uint256"
        }
      ],
      "name": "emergencyTokenTransfer",
      "outputs": [],
      "stateMutability": "nonpayable",
      "type": "function"
    },
    {
      "inputs": [],
      "name": "getWETHAddress",
      "outputs": [
        {
          "internalType": "address",
          "name": "",
          "type": "address"
        }
      ],
      "stateMutability": "view",
      "type": "function"
    },
    {
      "inputs": [],
      "name": "owner",
      "outputs": [
        {
          "internalType": "address",
          "name": "",
          "type": "address"
        }
      ],
      "stateMutability": "view",
      "type": "function"
    },
    {
      "inputs": [],
      "name": "renounceOwnership",
      "outputs": [],
      "stateMutability": "nonpayable",
      "type": "function"
    },
    {
      "inputs": [
        {
          "internalType": "address",
          "name": "counter",
          "type": "address"
        },
        {
          "internalType": "uint8",
          "name": "riskTier",
          "type": "uint8"
        },
        {
          "internalType": "uint256",
          "name": "amount",
          "type": "uint256"
        },
        {
          "internalType": "uint256",
          "name": "rateMode",
          "type": "uint256"
        },
        {
          "internalType": "address",
          "name": "onBehalfOf",
          "type": "address"
        }
      ],
      "name": "repayETH",
      "outputs": [],
      "stateMutability": "payable",
      "type": "function"
    },
    {
      "inputs": [
        {
          "internalType": "address",
          "name": "newOwner",
          "type": "address"
        }
      ],
      "name": "transferOwnership",
      "outputs": [],
      "stateMutability": "nonpayable",
      "type": "function"
    },
    {
      "inputs": [
        {
          "internalType": "address",
          "name": "counter",
          "type": "address"
        },
        {
          "internalType": "uint8",
          "name": "riskTier",
          "type": "uint8"
        },
        {
          "internalType": "uint256",
          "name": "amount",
          "type": "uint256"
        },
        {
          "internalType": "address",
          "name": "to",
          "type": "address"
        }
      ],
      "name": "withdrawETH",
      "outputs": [],
      "stateMutability": "nonpayable",
      "type": "function"
    },
    {
      "stateMutability": "payable",
      "type": "receive"
    }
  ],
  "bytecode": "0x60a060405234801561001057600080fd5b5060405161152038038061152083398101604081905261002f91610081565b600080546001600160a01b031916339081178255604051909182917f8be0079c531659141344cd1fd0a4f28419497f9722a3daafe3b4186f6b6457e0908290a3506001600160a01b03166080526100b1565b60006020828403121561009357600080fd5b81516001600160a01b03811681146100aa57600080fd5b9392505050565b60805161140161011f6000396000818160b00152818161022601528181610342015281816103b80152818161043e015281816104e40152818161058b01528181610731015281816108c101528181610963015281816109f101528181610aed0152610b7301526114016000f3fe6080604052600436106100a05760003560e01c8063a3d5b25511610064578063a3d5b255146101f7578063affa881714610217578063cd628ec91461024a578063e6bbaea81461026a578063eed88b8d1461027d578063f2fde38b1461029d5761011a565b80631a47a781146101595780633f0cdf0814610179578063656a25001461018c578063715018a6146101ac5780638da5cb5b146101c15761011a565b3661011a57336001600160a01b037f000000000000000000000000000000000000000000000000000000000000000016146101185760405162461bcd60e51b8152602060048201526013602482015272149958d95a5d99481b9bdd08185b1b1bddd959606a1b60448201526064015b60405180910390fd5b005b60405162461bcd60e51b815260206004820152601460248201527311985b1b189858dac81b9bdd08185b1b1bddd95960621b604482015260640161010f565b34801561016557600080fd5b50610118610174366004610ef1565b6102bd565b610118610187366004610f3b565b6103b6565b34801561019857600080fd5b506101186101a7366004610fa3565b6104cd565b3480156101b857600080fd5b50610118610603565b3480156101cd57600080fd5b506000546001600160a01b03165b6040516001600160a01b03909116815260200160405180910390f35b34801561020357600080fd5b50610118610212366004611011565b610677565b34801561022357600080fd5b507f00000000000000000000000000000000000000000000000000000000000000006101db565b34801561025657600080fd5b50610118610265366004611052565b61071a565b6101186102783660046110a5565b6109da565b34801561028957600080fd5b50610118610298366004611104565b610c26565b3480156102a957600080fd5b506101186102b8366004610ef1565b610c5e565b6000546001600160a01b031633146102e75760405162461bcd60e51b815260040161010f90611130565b6103186040518060400160405280601081526020016f30baba3437b934bd32a1b7bab73a32b960811b815250610d48565b60405163095ea7b360e01b81526001600160a01b03828116600483015260001960248301526000917f00000000000000000000000000000000000000000000000000000000000000009091169063095ea7b3906044016020604051808303816000875af115801561038d573d6000803e3d6000fd5b505050506040513d601f19601f820116820180604052508101906103b19190611165565b505050565b7f00000000000000000000000000000000000000000000000000000000000000006001600160a01b031663d0e30db0346040518263ffffffff1660e01b81526004016000604051808303818588803b15801561041157600080fd5b505af1158015610425573d6000803e3d6000fd5b505060405163de62832b60e01b81526001600160a01b037f00000000000000000000000000000000000000000000000000000000000000008116600483015260ff88166024830152346044830152868116606483015261ffff861660848301528816935063de62832b925060a4019050600060405180830381600087803b1580156104af57600080fd5b505af11580156104c3573d6000803e3d6000fd5b5050505050505050565b60405163b44bfd5d60e01b81526001600160a01b037f00000000000000000000000000000000000000000000000000000000000000008116600483015260ff87166024830152604482018690526064820185905261ffff841660848301523360a483015282151560c483015287169063b44bfd5d9060e401600060405180830381600087803b15801561055f57600080fd5b505af1158015610573573d6000803e3d6000fd5b5050604051632e1a7d4d60e01b8152600481018790527f00000000000000000000000000000000000000000000000000000000000000006001600160a01b03169250632e1a7d4d9150602401600060405180830381600087803b1580156105d957600080fd5b505af11580156105ed573d6000803e3d6000fd5b505050506105fb3385610d8e565b505050505050565b6000546001600160a01b0316331461062d5760405162461bcd60e51b815260040161010f90611130565b600080546040516001600160a01b03909116907f8be0079c531659141344cd1fd0a4f28419497f9722a3daafe3b4186f6b6457e0908390a3600080546001600160a01b0319169055565b6000546001600160a01b031633146106a15760405162461bcd60e51b815260040161010f90611130565b60405163a9059cbb60e01b81526001600160a01b0383811660048301526024820183905284169063a9059cbb906044016020604051808303816000875af11580156106f0573d6000803e3d6000fd5b505050506040513d601f19601f820116820180604052508101906107149190611165565b50505050565b604051633629e3cd60e01b81526001600160a01b037f00000000000000000000000000000000000000000000000000000000000000008116600483015260ff8516602483015260009190861690633629e3cd9060440161014060405180830381865afa15801561078e573d6000803e3d6000fd5b505050506040513d601f19601f820116820180604052508101906107b29190611255565b60c001516040516370a0823160e01b81523360048201529091506000906001600160a01b038316906370a0823190602401602060405180830381865afa158015610800573d6000803e3d6000fd5b505050506040513d601f19601f82011682018060405250810190610824919061131e565b905083600181016108325750805b6040516323b872dd60e01b8152336004820152306024820152604481018290526001600160a01b038416906323b872dd906064016020604051808303816000875af1158015610885573d6000803e3d6000fd5b505050506040513d601f19601f820116820180604052508101906108a99190611165565b5060405163452572f360e01b81526001600160a01b037f00000000000000000000000000000000000000000000000000000000000000008116600483015260ff881660248301526044820183905230606483015288169063452572f3906084016020604051808303816000875af1158015610928573d6000803e3d6000fd5b505050506040513d601f19601f8201168201806040525081019061094c919061131e565b50604051632e1a7d4d60e01b8152600481018290527f00000000000000000000000000000000000000000000000000000000000000006001600160a01b031690632e1a7d4d90602401600060405180830381600087803b1580156109af57600080fd5b505af11580156109c3573d6000803e3d6000fd5b505050506109d18482610d8e565b50505050505050565b604051633629e3cd60e01b81526001600160a01b037f00000000000000000000000000000000000000000000000000000000000000008116600483015260ff86166024830152600091610a7d91849190891690633629e3cd9060440161014060405180830381865afa158015610a54573d6000803e3d6000fd5b505050506040513d601f19601f82011682018060405250810190610a789190611255565b610e41565b90508080851015610a8b5750835b80341015610aeb5760405162461bcd60e51b815260206004820152602760248201527f6d73672e76616c7565206973206c657373207468616e2072657061796d656e7460448201526608185b5bdd5b9d60ca1b606482015260840161010f565b7f00000000000000000000000000000000000000000000000000000000000000006001600160a01b031663d0e30db0826040518263ffffffff1660e01b81526004016000604051808303818588803b158015610b4657600080fd5b505af1158015610b5a573d6000803e3d6000fd5b5050604051631891243560e21b81526001600160a01b037f00000000000000000000000000000000000000000000000000000000000000008116600483015260ff8b1660248301523460448301526064820189905287811660848301528b16935063624490d4925060a40190506020604051808303816000875af1158015610be6573d6000803e3d6000fd5b505050506040513d601f19601f82011682018060405250810190610c0a919061131e565b50803411156109d1576109d133610c218334611337565b610d8e565b6000546001600160a01b03163314610c505760405162461bcd60e51b815260040161010f90611130565b610c5a8282610d8e565b5050565b6000546001600160a01b03163314610c885760405162461bcd60e51b815260040161010f90611130565b6001600160a01b038116610ced5760405162461bcd60e51b815260206004820152602660248201527f4f776e61626c653a206e6577206f776e657220697320746865207a65726f206160448201526564647265737360d01b606482015260840161010f565b600080546040516001600160a01b03808516939216917f8be0079c531659141344cd1fd0a4f28419497f9722a3daafe3b4186f6b6457e091a3600080546001600160a01b0319166001600160a01b0392909216919091179055565b610d8b81604051602401610d5c919061137c565b60408051601f198184030181529190526020810180516001600160e01b031663104c13eb60e21b179052610ebb565b50565b604080516000808252602082019092526001600160a01b038416908390604051610db891906113af565b60006040518083038185875af1925050503d8060008114610df5576040519150601f19603f3d011682016040523d82523d6000602084013e610dfa565b606091505b50509050806103b15760405162461bcd60e51b815260206004820152601360248201527211551217d514905394d1915497d19052531151606a1b604482015260640161010f565b60e08101516040516370a0823160e01b81526001600160a01b03848116600483015260009216906370a0823190602401602060405180830381865afa158015610e8e573d6000803e3d6000fd5b505050506040513d601f19601f82011682018060405250810190610eb2919061131e565b90505b92915050565b80516a636f6e736f6c652e6c6f67602083016000808483855afa5050505050565b6001600160a01b0381168114610d8b57600080fd5b600060208284031215610f0357600080fd5b8135610f0e81610edc565b9392505050565b60ff81168114610d8b57600080fd5b803561ffff81168114610f3657600080fd5b919050565b60008060008060808587031215610f5157600080fd5b8435610f5c81610edc565b93506020850135610f6c81610f15565b92506040850135610f7c81610edc565b9150610f8a60608601610f24565b905092959194509250565b8015158114610d8b57600080fd5b60008060008060008060c08789031215610fbc57600080fd5b8635610fc781610edc565b95506020870135610fd781610f15565b94506040870135935060608701359250610ff360808801610f24565b915060a087013561100381610f95565b809150509295509295509295565b60008060006060848603121561102657600080fd5b833561103181610edc565b9250602084013561104181610edc565b929592945050506040919091013590565b6000806000806080858703121561106857600080fd5b843561107381610edc565b9350602085013561108381610f15565b925060408501359150606085013561109a81610edc565b939692955090935050565b600080600080600060a086880312156110bd57600080fd5b85356110c881610edc565b945060208601356110d881610f15565b9350604086013592506060860135915060808601356110f681610edc565b809150509295509295909350565b6000806040838503121561111757600080fd5b823561112281610edc565b946020939093013593505050565b6020808252818101527f4f776e61626c653a2063616c6c6572206973206e6f7420746865206f776e6572604082015260600190565b60006020828403121561117757600080fd5b8151610f0e81610f95565b604051610140810167ffffffffffffffff811182821017156111b457634e487b7160e01b600052604160045260246000fd5b60405290565b6000602082840312156111cc57600080fd5b6040516020810181811067ffffffffffffffff821117156111fd57634e487b7160e01b600052604160045260246000fd5b6040529151825250919050565b80516fffffffffffffffffffffffffffffffff81168114610f3657600080fd5b805164ffffffffff81168114610f3657600080fd5b8051610f3681610edc565b8051610f3681610f15565b6000610140828403121561126857600080fd5b611270611182565b61127a84846111ba565b81526112886020840161120a565b60208201526112996040840161120a565b60408201526112aa6060840161120a565b60608201526112bb6080840161120a565b60808201526112cc60a0840161122a565b60a08201526112dd60c0840161123f565b60c08201526112ee60e0840161123f565b60e082015261010061130181850161123f565b9082015261012061131384820161124a565b908201529392505050565b60006020828403121561133057600080fd5b5051919050565b81810381811115610eb557634e487b7160e01b600052601160045260246000fd5b60005b8381101561137357818101518382015260200161135b565b50506000910152565b602081526000825180602084015261139b816040850160208701611358565b601f01601f19169190910160400192915050565b600082516113c1818460208701611358565b919091019291505056fea2646970667358221220ac034f19c0bfe0b06e9fb6ac0b36fe7efd5b79f4e8b4104c88f95b9ed0559bc564736f6c63430008110033",
  "linkReferences": {},
  "deployedLinkReferences": {}
}