{
  "_format": "hh-sol-artifact-1",
  "contractName": "CounterAddressesProvider",
  "sourceName": "contracts/protocol/Pool/CounterAddressesProvider.sol",
  "abi": [
    {
      "inputs": [
        {
          "internalType": "string",
          "name": "marketId",
          "type": "string"
        }
      ],
      "stateMutability": "nonpayable",
      "type": "constructor"
    },
    {
      "anonymous": false,
      "inputs": [
        {
          "indexed": false,
          "internalType": "bytes32",
          "name": "id",
          "type": "bytes32"
        },
        {
          "indexed": true,
          "internalType": "address",
          "name": "newAddress",
          "type": "address"
        },
        {
          "indexed": false,
          "internalType": "bool",
          "name": "hasProxy",
          "type": "bool"
        }
      ],
      "name": "AddressSet",
      "type": "event"
    },
    {
      "anonymous": false,
      "inputs": [
        {
          "indexed": true,
          "internalType": "address",
          "name": "newAddress",
          "type": "address"
        }
      ],
      "name": "ConfigurationAdminUpdated",
      "type": "event"
    },
    {
      "anonymous": false,
      "inputs": [
        {
          "indexed": true,
          "internalType": "address",
          "name": "newAddress",
          "type": "address"
        }
      ],
      "name": "CounterCollateralManagerUpdated",
      "type": "event"
    },
    {
      "anonymous": false,
      "inputs": [
        {
          "indexed": true,
          "internalType": "address",
          "name": "newAddress",
          "type": "address"
        }
      ],
      "name": "CounterConfiguratorUpdated",
      "type": "event"
    },
    {
      "anonymous": false,
      "inputs": [
        {
          "indexed": true,
          "internalType": "address",
          "name": "newAddress",
          "type": "address"
        }
      ],
      "name": "CounterUpdated",
      "type": "event"
    },
    {
      "anonymous": false,
      "inputs": [
        {
          "indexed": true,
          "internalType": "address",
          "name": "newAddress",
          "type": "address"
        }
      ],
      "name": "EmergencyAdminUpdated",
      "type": "event"
    },
    {
      "anonymous": false,
      "inputs": [
        {
          "indexed": true,
          "internalType": "address",
          "name": "newAddress",
          "type": "address"
        }
      ],
      "name": "LendingRateOracleUpdated",
      "type": "event"
    },
    {
      "anonymous": false,
      "inputs": [
        {
          "indexed": false,
          "internalType": "string",
          "name": "newMarketId",
          "type": "string"
        }
      ],
      "name": "MarketIdSet",
      "type": "event"
    },
    {
      "anonymous": false,
      "inputs": [
        {
          "indexed": true,
          "internalType": "address",
          "name": "previousOwner",
          "type": "address"
        },
        {
          "indexed": true,
          "internalType": "address",
          "name": "newOwner",
          "type": "address"
        }
      ],
      "name": "OwnershipTransferred",
      "type": "event"
    },
    {
      "anonymous": false,
      "inputs": [
        {
          "indexed": true,
          "internalType": "address",
          "name": "newAddress",
          "type": "address"
        }
      ],
      "name": "PriceOracleUpdated",
      "type": "event"
    },
    {
      "anonymous": false,
      "inputs": [
        {
          "indexed": false,
          "internalType": "bytes32",
          "name": "id",
          "type": "bytes32"
        },
        {
          "indexed": true,
          "internalType": "address",
          "name": "newAddress",
          "type": "address"
        }
      ],
      "name": "ProxyCreated",
      "type": "event"
    },
    {
      "inputs": [
        {
          "internalType": "bytes32",
          "name": "id",
          "type": "bytes32"
        }
      ],
      "name": "getAddress",
      "outputs": [
        {
          "internalType": "address",
          "name": "",
          "type": "address"
        }
      ],
      "stateMutability": "view",
      "type": "function"
    },
    {
      "inputs": [],
      "name": "getCounter",
      "outputs": [
        {
          "internalType": "address",
          "name": "",
          "type": "address"
        }
      ],
      "stateMutability": "view",
      "type": "function"
    },
    {
      "inputs": [],
      "name": "getCounterCollateralManager",
      "outputs": [
        {
          "internalType": "address",
          "name": "",
          "type": "address"
        }
      ],
      "stateMutability": "view",
      "type": "function"
    },
    {
      "inputs": [],
      "name": "getCounterConfigurator",
      "outputs": [
        {
          "internalType": "address",
          "name": "",
          "type": "address"
        }
      ],
      "stateMutability": "view",
      "type": "function"
    },
    {
      "inputs": [],
      "name": "getCounterOracle",
      "outputs": [
        {
          "internalType": "address",
          "name": "",
          "type": "address"
        }
      ],
      "stateMutability": "view",
      "type": "function"
    },
    {
      "inputs": [],
      "name": "getEmergencyAdmin",
      "outputs": [
        {
          "internalType": "address",
          "name": "",
          "type": "address"
        }
      ],
      "stateMutability": "view",
      "type": "function"
    },
    {
      "inputs": [],
      "name": "getMarketId",
      "outputs": [
        {
          "internalType": "string",
          "name": "",
          "type": "string"
        }
      ],
      "stateMutability": "view",
      "type": "function"
    },
    {
      "inputs": [],
      "name": "getPoolAdmin",
      "outputs": [
        {
          "internalType": "address",
          "name": "",
          "type": "address"
        }
      ],
      "stateMutability": "view",
      "type": "function"
    },
    {
      "inputs": [],
      "name": "getPriceOracle",
      "outputs": [
        {
          "internalType": "address",
          "name": "",
          "type": "address"
        }
      ],
      "stateMutability": "view",
      "type": "function"
    },
    {
      "inputs": [],
      "name": "owner",
      "outputs": [
        {
          "internalType": "address",
          "name": "",
          "type": "address"
        }
      ],
      "stateMutability": "view",
      "type": "function"
    },
    {
      "inputs": [],
      "name": "renounceOwnership",
      "outputs": [],
      "stateMutability": "nonpayable",
      "type": "function"
    },
    {
      "inputs": [
        {
          "internalType": "bytes32",
          "name": "id",
          "type": "bytes32"
        },
        {
          "internalType": "address",
          "name": "newAddress",
          "type": "address"
        }
      ],
      "name": "setAddress",
      "outputs": [],
      "stateMutability": "nonpayable",
      "type": "function"
    },
    {
      "inputs": [
        {
          "internalType": "address",
          "name": "counter",
          "type": "address"
        }
      ],
      "name": "setCounter",
      "outputs": [],
      "stateMutability": "nonpayable",
      "type": "function"
    },
    {
      "inputs": [
        {
          "internalType": "address",
          "name": "manager",
          "type": "address"
        }
      ],
      "name": "setCounterCollateralManager",
      "outputs": [],
      "stateMutability": "nonpayable",
      "type": "function"
    },
    {
      "inputs": [
        {
          "internalType": "address",
          "name": "configurator",
          "type": "address"
        }
      ],
      "name": "setCounterConfigurator",
      "outputs": [],
      "stateMutability": "nonpayable",
      "type": "function"
    },
    {
      "inputs": [
        {
          "internalType": "address",
          "name": "lendingRateOracle",
          "type": "address"
        }
      ],
      "name": "setCounterOracle",
      "outputs": [],
      "stateMutability": "nonpayable",
      "type": "function"
    },
    {
      "inputs": [
        {
          "internalType": "address",
          "name": "emergencyAdmin",
          "type": "address"
        }
      ],
      "name": "setEmergencyAdmin",
      "outputs": [],
      "stateMutability": "nonpayable",
      "type": "function"
    },
    {
      "inputs": [
        {
          "internalType": "string",
          "name": "marketId",
          "type": "string"
        }
      ],
      "name": "setMarketId",
      "outputs": [],
      "stateMutability": "nonpayable",
      "type": "function"
    },
    {
      "inputs": [
        {
          "internalType": "address",
          "name": "admin",
          "type": "address"
        }
      ],
      "name": "setPoolAdmin",
      "outputs": [],
      "stateMutability": "nonpayable",
      "type": "function"
    },
    {
      "inputs": [
        {
          "internalType": "address",
          "name": "priceOracle",
          "type": "address"
        }
      ],
      "name": "setPriceOracle",
      "outputs": [],
      "stateMutability": "nonpayable",
      "type": "function"
    },
    {
      "inputs": [
        {
          "internalType": "address",
          "name": "newOwner",
          "type": "address"
        }
      ],
      "name": "transferOwnership",
      "outputs": [],
      "stateMutability": "nonpayable",
      "type": "function"
    }
  ],
  "bytecode": "0x60806040523480156200001157600080fd5b50604051620011f8380380620011f883398101604081905262000034916200010e565b600080546001600160a01b031916339081178255604051909182917f8be0079c531659141344cd1fd0a4f28419497f9722a3daafe3b4186f6b6457e0908290a350620000808162000087565b5062000356565b600162000095828262000255565b507f5e667c32fd847cf8bce48ab3400175cbf107bdc82b2dea62e3364909dfaee79981604051620000c7919062000321565b60405180910390a150565b634e487b7160e01b600052604160045260246000fd5b60005b8381101562000105578181015183820152602001620000eb565b50506000910152565b6000602082840312156200012157600080fd5b81516001600160401b03808211156200013957600080fd5b818401915084601f8301126200014e57600080fd5b815181811115620001635762000163620000d2565b604051601f8201601f19908116603f011681019083821181831017156200018e576200018e620000d2565b81604052828152876020848701011115620001a857600080fd5b620001bb836020830160208801620000e8565b979650505050505050565b600181811c90821680620001db57607f821691505b602082108103620001fc57634e487b7160e01b600052602260045260246000fd5b50919050565b601f8211156200025057600081815260208120601f850160051c810160208610156200022b5750805b601f850160051c820191505b818110156200024c5782815560010162000237565b5050505b505050565b81516001600160401b03811115620002715762000271620000d2565b6200028981620002828454620001c6565b8462000202565b602080601f831160018114620002c15760008415620002a85750858301515b600019600386901b1c1916600185901b1785556200024c565b600085815260208120601f198616915b82811015620002f257888601518255948401946001909101908401620002d1565b5085821015620003115787850151600019600388901b60f8161c191681555b5050505050600190811b01905550565b602081526000825180602084015262000342816040850160208701620000e8565b601f01601f19169190910160400192915050565b610e9280620003666000396000f3fe608060405234801561001057600080fd5b50600436106101375760003560e01c8063715018a6116100b8578063d9fa30f21161007c578063d9fa30f214610236578063ddcaa9ea14610249578063ec13c0b814610251578063f2fde38b14610264578063f67b184714610277578063fca513a81461028a57600080fd5b8063715018a6146101fa5780638ada066e146102025780638da5cb5b1461020a578063aecda3781461021b578063ca446dd91461022357600080fd5b8063530e784f116100ff578063530e784f146101af578063568ef470146101c25780635babadd8146101d75780636ad3bd3f146101df5780636c2f03e3146101f257600080fd5b806321f8a7211461013c57806323646eec1461016c578063283d62ad146101815780632a68852b1461019457806335da33941461019c575b600080fd5b61014f61014a366004610b46565b610292565b6040516001600160a01b0390911681526020015b60405180910390f35b61017f61017a366004610b7b565b6102ad565b005b61017f61018f366004610b7b565b61035d565b61014f610407565b61017f6101aa366004610b7b565b61042d565b61017f6101bd366004610b7b565b6104dc565b6101ca610588565b6040516101639190610b9d565b61014f61061a565b61017f6101ed366004610b7b565b61063a565b61014f6106ec565b61017f61070e565b61014f610782565b6000546001600160a01b031661014f565b61014f610797565b61017f610231366004610beb565b6107af565b61017f610244366004610b7b565b610841565b61014f6108f4565b61017f61025f366004610b7b565b610911565b61017f610272366004610b7b565b6109c5565b61017f610285366004610c2d565b610aaf565b61014f610ae5565b6000908152600260205260409020546001600160a01b031690565b6000546001600160a01b031633146102e05760405162461bcd60e51b81526004016102d790610cde565b60405180910390fd5b6621a7aaa72a22a960c91b600090815260026020527f8fff6592d6ae19ed2daa5c3513de3027f3a2430f86021199a131c6e62217af4b80546001600160a01b0319166001600160a01b03841690811790915560405190917f98f4dce0bb6424b4d5260d44ad5de1a96f6713084a329647ee9ba7670546d4b091a250565b6000546001600160a01b031633146103875760405162461bcd60e51b81526004016102d790610cde565b692827a7a62fa0a226a4a760b11b600090815260026020527f8625fbc469bac10fd11de1d783dcd446542784dbcc535ef64a1da61860fda74c80546001600160a01b0319166001600160a01b03841690811790915560405190917fc20a317155a9e7d84e06b716b4b355d47742ab9f8c5d630e7f556553f582430d91a250565b6000610428724c454e44494e475f524154455f4f5241434c4560681b610292565b905090565b6000546001600160a01b031633146104575760405162461bcd60e51b81526004016102d790610cde565b6e22a6a2a923a2a721acafa0a226a4a760891b600090815260026020527f767aa9c986e1d88108b2558f00fbd21b689a0397581446e2e868cd70421026cc80546001600160a01b0319166001600160a01b03841690811790915560405190917fe19673fc861bfeb894cf2d6b7662505497ef31c0f489b742db24ee331082691691a250565b6000546001600160a01b031633146105065760405162461bcd60e51b81526004016102d790610cde565b6b50524943455f4f5241434c4560a01b600090815260026020527f740f710666bd7a12af42df98311e541e47f7fd33d382d11602457a6d540cbd6380546001600160a01b0319166001600160a01b03841690811790915560405190917fefe8ab924ca486283a79dc604baa67add51afb82af1db8ac386ebbba643cdffd91a250565b60606001805461059790610d13565b80601f01602080910402602001604051908101604052809291908181526020018280546105c390610d13565b80156106105780601f106105e557610100808354040283529160200191610610565b820191906000526020600020905b8154815290600101906020018083116105f357829003601f168201915b5050505050905090565b60006104287121a7a62620aa22a920a62fa6a0a720a3a2a960711b610292565b6000546001600160a01b031633146106645760405162461bcd60e51b81526004016102d790610cde565b7121a7a62620aa22a920a62fa6a0a720a3a2a960711b600090815260026020527f65e3f3080e9127c1765503a54b8dbb495249e66169f096dfc87ee63bed17e22c80546001600160a01b0319166001600160a01b03841690811790915560405190917f3ae934c98bfd8cc7bb9eaaf76ef4a4073f9f9e4f8ba4069b485eb27c89782d5691a250565b60006104287321a7aaa72a22a92fa1a7a72324a3aaa920aa27a960611b610292565b6000546001600160a01b031633146107385760405162461bcd60e51b81526004016102d790610cde565b600080546040516001600160a01b03909116907f8be0079c531659141344cd1fd0a4f28419497f9722a3daafe3b4186f6b6457e0908390a3600080546001600160a01b0319169055565b60006104286621a7aaa72a22a960c91b610292565b6000610428692827a7a62fa0a226a4a760b11b610292565b6000546001600160a01b031633146107d95760405162461bcd60e51b81526004016102d790610cde565b600082815260026020908152604080832080546001600160a01b0319166001600160a01b0386169081179091558151868152928301939093527ff2689d5d5cd0c639e137642cae5d40afced201a1a0327e7ac9358461dc9fff31910160405180910390a25050565b6000546001600160a01b0316331461086b5760405162461bcd60e51b81526004016102d790610cde565b724c454e44494e475f524154455f4f5241434c4560681b600090815260026020527f10f0e20294ece4bd93e7a467dbf22ab9ab1740ebd0a532cc53066601e880c0cf80546001600160a01b0319166001600160a01b03841690811790915560405190917f5c29179aba6942020a8a2d38f65de02fb6b7f784e7f049ed3a3cab97621859b591a250565b60006104286e22a6a2a923a2a721acafa0a226a4a760891b610292565b6000546001600160a01b0316331461093b5760405162461bcd60e51b81526004016102d790610cde565b7321a7aaa72a22a92fa1a7a72324a3aaa920aa27a960611b600090815260026020527ffd95939764cac034351d8a5e88ecfc314524ec813637669012fab75ace31902980546001600160a01b0319166001600160a01b03841690811790915560405190917fef1a1c05c9ab8eebe64a45524e8dc34db3b10ab1a75e92c1c7974b366b65895891a250565b6000546001600160a01b031633146109ef5760405162461bcd60e51b81526004016102d790610cde565b6001600160a01b038116610a545760405162461bcd60e51b815260206004820152602660248201527f4f776e61626c653a206e6577206f776e657220697320746865207a65726f206160448201526564647265737360d01b60648201526084016102d7565b600080546040516001600160a01b03808516939216917f8be0079c531659141344cd1fd0a4f28419497f9722a3daafe3b4186f6b6457e091a3600080546001600160a01b0319166001600160a01b0392909216919091179055565b6000546001600160a01b03163314610ad95760405162461bcd60e51b81526004016102d790610cde565b610ae281610aff565b50565b60006104286b50524943455f4f5241434c4560a01b610292565b6001610b0b8282610d9c565b507f5e667c32fd847cf8bce48ab3400175cbf107bdc82b2dea62e3364909dfaee79981604051610b3b9190610b9d565b60405180910390a150565b600060208284031215610b5857600080fd5b5035919050565b80356001600160a01b0381168114610b7657600080fd5b919050565b600060208284031215610b8d57600080fd5b610b9682610b5f565b9392505050565b600060208083528351808285015260005b81811015610bca57858101830151858201604001528201610bae565b506000604082860101526040601f19601f8301168501019250505092915050565b60008060408385031215610bfe57600080fd5b82359150610c0e60208401610b5f565b90509250929050565b634e487b7160e01b600052604160045260246000fd5b600060208284031215610c3f57600080fd5b813567ffffffffffffffff80821115610c5757600080fd5b818401915084601f830112610c6b57600080fd5b813581811115610c7d57610c7d610c17565b604051601f8201601f19908116603f01168101908382118183101715610ca557610ca5610c17565b81604052828152876020848701011115610cbe57600080fd5b826020860160208301376000928101602001929092525095945050505050565b6020808252818101527f4f776e61626c653a2063616c6c6572206973206e6f7420746865206f776e6572604082015260600190565b600181811c90821680610d2757607f821691505b602082108103610d4757634e487b7160e01b600052602260045260246000fd5b50919050565b601f821115610d9757600081815260208120601f850160051c81016020861015610d745750805b601f850160051c820191505b81811015610d9357828155600101610d80565b5050505b505050565b815167ffffffffffffffff811115610db657610db6610c17565b610dca81610dc48454610d13565b84610d4d565b602080601f831160018114610dff5760008415610de75750858301515b600019600386901b1c1916600185901b178555610d93565b600085815260208120601f198616915b82811015610e2e57888601518255948401946001909101908401610e0f565b5085821015610e4c5787850151600019600388901b60f8161c191681555b5050505050600190811b0190555056fea26469706673582212206d2d87f695e4aa444b57820565bcc804e885a72c22326aea19ad5be1cf174a9264736f6c63430008110033",
  "linkReferences": {},
  "deployedLinkReferences": {}
}