{
  "_format": "hh-sol-artifact-1",
  "contractName": "PrestareOracle",
  "sourceName": "contracts/misc/PrestareOracle.sol",
  "abi": [
    {
      "inputs": [
        {
          "internalType": "address[]",
          "name": "assets",
          "type": "address[]"
        },
        {
          "internalType": "address[]",
          "name": "sources",
          "type": "address[]"
        },
        {
          "internalType": "address",
          "name": "fallbackOracle",
          "type": "address"
        },
        {
          "internalType": "address",
          "name": "baseCurrency",
          "type": "address"
        },
        {
          "internalType": "uint256",
          "name": "baseCurrencyUnit",
          "type": "uint256"
        }
      ],
      "stateMutability": "nonpayable",
      "type": "constructor"
    },
    {
      "anonymous": false,
      "inputs": [
        {
          "indexed": true,
          "internalType": "address",
          "name": "asset",
          "type": "address"
        },
        {
          "indexed": true,
          "internalType": "address",
          "name": "source",
          "type": "address"
        }
      ],
      "name": "AssetSourceUpdated",
      "type": "event"
    },
    {
      "anonymous": false,
      "inputs": [
        {
          "indexed": true,
          "internalType": "address",
          "name": "baseCurrency",
          "type": "address"
        },
        {
          "indexed": false,
          "internalType": "uint256",
          "name": "baseCurrencyUnit",
          "type": "uint256"
        }
      ],
      "name": "BaseCurrencySet",
      "type": "event"
    },
    {
      "anonymous": false,
      "inputs": [
        {
          "indexed": true,
          "internalType": "address",
          "name": "fallbackOracle",
          "type": "address"
        }
      ],
      "name": "FallbackOracleUpdated",
      "type": "event"
    },
    {
      "anonymous": false,
      "inputs": [
        {
          "indexed": true,
          "internalType": "address",
          "name": "previousOwner",
          "type": "address"
        },
        {
          "indexed": true,
          "internalType": "address",
          "name": "newOwner",
          "type": "address"
        }
      ],
      "name": "OwnershipTransferred",
      "type": "event"
    },
    {
      "inputs": [],
      "name": "BASE_CURRENCY",
      "outputs": [
        {
          "internalType": "address",
          "name": "",
          "type": "address"
        }
      ],
      "stateMutability": "view",
      "type": "function"
    },
    {
      "inputs": [],
      "name": "BASE_CURRENCY_UNIT",
      "outputs": [
        {
          "internalType": "uint256",
          "name": "",
          "type": "uint256"
        }
      ],
      "stateMutability": "view",
      "type": "function"
    },
    {
      "inputs": [
        {
          "internalType": "address",
          "name": "asset",
          "type": "address"
        }
      ],
      "name": "getAssetPrice",
      "outputs": [
        {
          "internalType": "uint256",
          "name": "",
          "type": "uint256"
        }
      ],
      "stateMutability": "view",
      "type": "function"
    },
    {
      "inputs": [
        {
          "internalType": "address[]",
          "name": "assets",
          "type": "address[]"
        }
      ],
      "name": "getAssetsPrices",
      "outputs": [
        {
          "internalType": "uint256[]",
          "name": "",
          "type": "uint256[]"
        }
      ],
      "stateMutability": "view",
      "type": "function"
    },
    {
      "inputs": [],
      "name": "getFallbackOracle",
      "outputs": [
        {
          "internalType": "address",
          "name": "",
          "type": "address"
        }
      ],
      "stateMutability": "view",
      "type": "function"
    },
    {
      "inputs": [
        {
          "internalType": "address",
          "name": "asset",
          "type": "address"
        }
      ],
      "name": "getSourceOfAsset",
      "outputs": [
        {
          "internalType": "address",
          "name": "",
          "type": "address"
        }
      ],
      "stateMutability": "view",
      "type": "function"
    },
    {
      "inputs": [],
      "name": "owner",
      "outputs": [
        {
          "internalType": "address",
          "name": "",
          "type": "address"
        }
      ],
      "stateMutability": "view",
      "type": "function"
    },
    {
      "inputs": [],
      "name": "renounceOwnership",
      "outputs": [],
      "stateMutability": "nonpayable",
      "type": "function"
    },
    {
      "inputs": [
        {
          "internalType": "address[]",
          "name": "assets",
          "type": "address[]"
        },
        {
          "internalType": "address[]",
          "name": "sources",
          "type": "address[]"
        }
      ],
      "name": "setAssetSources",
      "outputs": [],
      "stateMutability": "nonpayable",
      "type": "function"
    },
    {
      "inputs": [
        {
          "internalType": "address",
          "name": "fallbackOracle",
          "type": "address"
        }
      ],
      "name": "setFallbackOracle",
      "outputs": [],
      "stateMutability": "nonpayable",
      "type": "function"
    },
    {
      "inputs": [
        {
          "internalType": "address",
          "name": "newOwner",
          "type": "address"
        }
      ],
      "name": "transferOwnership",
      "outputs": [],
      "stateMutability": "nonpayable",
      "type": "function"
    }
  ],
  "bytecode": "0x60806040523480156200001157600080fd5b5060405162000ea738038062000ea783398101604081905262000034916200038e565b600080546001600160a01b031916339081178255604051909182917f8be0079c531659141344cd1fd0a4f28419497f9722a3daafe3b4186f6b6457e0908290a3506200008083620000ed565b6200008c858562000137565b600380546001600160a01b0319166001600160a01b03841690811790915560048290556040518281527fe27c4c1372396a3d15a9922f74f9dfc7c72b1ad6d63868470787249c356454c19060200160405180910390a2505050505062000465565b600280546001600160a01b0319166001600160a01b0383169081179091556040517fce7a780d33665b1ea097af5f155e3821b809ecbaa839d3b33aa83ba28168cefb90600090a250565b80518251146200018d5760405162461bcd60e51b815260206004820152601a60248201527f494e434f4e53495354454e545f504152414d535f4c454e475448000000000000604482015260640160405180910390fd5b60005b8251811015620002a957818181518110620001af57620001af62000427565b602002602001015160016000858481518110620001d057620001d062000427565b60200260200101516001600160a01b03166001600160a01b0316815260200190815260200160002060006101000a8154816001600160a01b0302191690836001600160a01b0316021790555081818151811062000231576200023162000427565b60200260200101516001600160a01b031683828151811062000257576200025762000427565b60200260200101516001600160a01b03167f22c5b7b2d8561d39f7f210b6b326a1aa69f15311163082308ac4877db6339dc160405160405180910390a380620002a0816200043d565b91505062000190565b505050565b634e487b7160e01b600052604160045260246000fd5b80516001600160a01b0381168114620002dc57600080fd5b919050565b600082601f830112620002f357600080fd5b815160206001600160401b0380831115620003125762000312620002ae565b8260051b604051601f19603f830116810181811084821117156200033a576200033a620002ae565b6040529384528581018301938381019250878511156200035957600080fd5b83870191505b8482101562000383576200037382620002c4565b835291830191908301906200035f565b979650505050505050565b600080600080600060a08688031215620003a757600080fd5b85516001600160401b0380821115620003bf57600080fd5b620003cd89838a01620002e1565b96506020880151915080821115620003e457600080fd5b50620003f388828901620002e1565b9450506200040460408701620002c4565b92506200041460608701620002c4565b9150608086015190509295509295909350565b634e487b7160e01b600052603260045260246000fd5b6000600182016200045e57634e487b7160e01b600052601160045260246000fd5b5060010190565b610a3280620004756000396000f3fe608060405234801561001057600080fd5b50600436106100a95760003560e01c806392bf2be01161007157806392bf2be01461011d5780639d23d9f214610149578063abfd531014610169578063b3596f071461017c578063e19f47001461018f578063f2fde38b146101a257600080fd5b8063170aee73146100ae5780636210308c146100c3578063715018a6146100ed5780638c89b64f146100f55780638da5cb5b1461010c575b600080fd5b6100c16100bc3660046107f4565b6101b5565b005b6002546001600160a01b03165b6040516001600160a01b0390911681526020015b60405180910390f35b6100c16101f4565b6100fe60045481565b6040519081526020016100e4565b6000546001600160a01b03166100d0565b6100d061012b3660046107f4565b6001600160a01b039081166000908152600160205260409020541690565b61015c610157366004610869565b610268565b6040516100e491906108ab565b6100c16101773660046108ef565b61031d565b6100fe61018a3660046107f4565b6103ba565b6003546100d0906001600160a01b031681565b6100c16101b03660046107f4565b61055e565b6000546001600160a01b031633146101e85760405162461bcd60e51b81526004016101df9061095b565b60405180910390fd5b6101f181610648565b50565b6000546001600160a01b0316331461021e5760405162461bcd60e51b81526004016101df9061095b565b600080546040516001600160a01b03909116907f8be0079c531659141344cd1fd0a4f28419497f9722a3daafe3b4186f6b6457e0908390a3600080546001600160a01b0319169055565b606060008267ffffffffffffffff81111561028557610285610990565b6040519080825280602002602001820160405280156102ae578160200160208202803683370190505b50905060005b83811015610315576102e68585838181106102d1576102d16109a6565b905060200201602081019061018a91906107f4565b8282815181106102f8576102f86109a6565b60209081029190910101528061030d816109bc565b9150506102b4565b509392505050565b6000546001600160a01b031633146103475760405162461bcd60e51b81526004016101df9061095b565b6103b48484808060200260200160405190810160405280939291908181526020018383602002808284376000920191909152505060408051602080880282810182019093528782529093508792508691829185019084908082843760009201919091525061069292505050565b50505050565b6001600160a01b03808216600081815260016020526040812054600354919390811692911690036103ef575050600454919050565b6001600160a01b0381166104725760025460405163b3596f0760e01b81526001600160a01b0385811660048301529091169063b3596f0790602401602060405180830381865afa158015610447573d6000803e3d6000fd5b505050506040513d601f19601f8201168201806040525081019061046b91906109e3565b9392505050565b6000816001600160a01b03166350d25bcd6040518163ffffffff1660e01b8152600401602060405180830381865afa1580156104b2573d6000803e3d6000fd5b505050506040513d601f19601f820116820180604052508101906104d691906109e3565b905060008113156104e8579392505050565b60025460405163b3596f0760e01b81526001600160a01b0386811660048301529091169063b3596f0790602401602060405180830381865afa158015610532573d6000803e3d6000fd5b505050506040513d601f19601f8201168201806040525081019061055691906109e3565b949350505050565b6000546001600160a01b031633146105885760405162461bcd60e51b81526004016101df9061095b565b6001600160a01b0381166105ed5760405162461bcd60e51b815260206004820152602660248201527f4f776e61626c653a206e6577206f776e657220697320746865207a65726f206160448201526564647265737360d01b60648201526084016101df565b600080546040516001600160a01b03808516939216917f8be0079c531659141344cd1fd0a4f28419497f9722a3daafe3b4186f6b6457e091a3600080546001600160a01b0319166001600160a01b0392909216919091179055565b600280546001600160a01b0319166001600160a01b0383169081179091556040517fce7a780d33665b1ea097af5f155e3821b809ecbaa839d3b33aa83ba28168cefb90600090a250565b80518251146106e35760405162461bcd60e51b815260206004820152601a60248201527f494e434f4e53495354454e545f504152414d535f4c454e47544800000000000060448201526064016101df565b60005b82518110156107ef57818181518110610701576107016109a6565b60200260200101516001600085848151811061071f5761071f6109a6565b60200260200101516001600160a01b03166001600160a01b0316815260200190815260200160002060006101000a8154816001600160a01b0302191690836001600160a01b0316021790555081818151811061077d5761077d6109a6565b60200260200101516001600160a01b03168382815181106107a0576107a06109a6565b60200260200101516001600160a01b03167f22c5b7b2d8561d39f7f210b6b326a1aa69f15311163082308ac4877db6339dc160405160405180910390a3806107e7816109bc565b9150506106e6565b505050565b60006020828403121561080657600080fd5b81356001600160a01b038116811461046b57600080fd5b60008083601f84011261082f57600080fd5b50813567ffffffffffffffff81111561084757600080fd5b6020830191508360208260051b850101111561086257600080fd5b9250929050565b6000806020838503121561087c57600080fd5b823567ffffffffffffffff81111561089357600080fd5b61089f8582860161081d565b90969095509350505050565b6020808252825182820181905260009190848201906040850190845b818110156108e3578351835292840192918401916001016108c7565b50909695505050505050565b6000806000806040858703121561090557600080fd5b843567ffffffffffffffff8082111561091d57600080fd5b6109298883890161081d565b9096509450602087013591508082111561094257600080fd5b5061094f8782880161081d565b95989497509550505050565b6020808252818101527f4f776e61626c653a2063616c6c6572206973206e6f7420746865206f776e6572604082015260600190565b634e487b7160e01b600052604160045260246000fd5b634e487b7160e01b600052603260045260246000fd5b6000600182016109dc57634e487b7160e01b600052601160045260246000fd5b5060010190565b6000602082840312156109f557600080fd5b505191905056fea26469706673582212204b59934d784109060f58c8e73d60a2092f27969c3beb4a0799686acefe2efcfb64736f6c63430008110033",
  "linkReferences": {},
  "deployedLinkReferences": {}
}