{
  "_format": "hh-sol-artifact-1",
  "contractName": "PlatformTokenInterestRateModel",
  "sourceName": "contracts/protocol/Pool/InterestRate/PlatformTokenInterestRateModel.sol",
  "abi": [
    {
      "inputs": [
        {
          "internalType": "contract ICounterAddressesProvider",
          "name": "provider",
          "type": "address"
        }
      ],
      "stateMutability": "nonpayable",
      "type": "constructor"
    },
    {
      "anonymous": false,
      "inputs": [
        {
          "indexed": true,
          "internalType": "address",
          "name": "previousOwner",
          "type": "address"
        },
        {
          "indexed": true,
          "internalType": "address",
          "name": "newOwner",
          "type": "address"
        }
      ],
      "name": "OwnershipTransferred",
      "type": "event"
    },
    {
      "anonymous": false,
      "inputs": [
        {
          "indexed": true,
          "internalType": "address",
          "name": "_poolToken",
          "type": "address"
        },
        {
          "indexed": false,
          "internalType": "uint256",
          "name": "_p2pSupplyIndex",
          "type": "uint256"
        },
        {
          "indexed": false,
          "internalType": "uint256",
          "name": "_p2pBorrowIndex",
          "type": "uint256"
        },
        {
          "indexed": false,
          "internalType": "uint256",
          "name": "_poolSupplyIndex",
          "type": "uint256"
        },
        {
          "indexed": false,
          "internalType": "uint256",
          "name": "_poolBorrowIndex",
          "type": "uint256"
        }
      ],
      "name": "P2PIndexesUpdated",
      "type": "event"
    },
    {
      "inputs": [],
      "name": "EXCESS_UTILIZATION_RATE",
      "outputs": [
        {
          "internalType": "uint256",
          "name": "",
          "type": "uint256"
        }
      ],
      "stateMutability": "view",
      "type": "function"
    },
    {
      "inputs": [],
      "name": "addressesProvider",
      "outputs": [
        {
          "internalType": "contract ICounterAddressesProvider",
          "name": "",
          "type": "address"
        }
      ],
      "stateMutability": "view",
      "type": "function"
    },
    {
      "inputs": [
        {
          "internalType": "address",
          "name": "reserve",
          "type": "address"
        },
        {
          "internalType": "uint256",
          "name": "availableLiquidity",
          "type": "uint256"
        },
        {
          "internalType": "uint256",
          "name": "totalVariableDebt",
          "type": "uint256"
        },
        {
          "internalType": "uint256",
          "name": "reserveFactor",
          "type": "uint256"
        }
      ],
      "name": "calculateInterestRates",
      "outputs": [
        {
          "internalType": "uint256",
          "name": "",
          "type": "uint256"
        },
        {
          "internalType": "uint256",
          "name": "",
          "type": "uint256"
        }
      ],
      "stateMutability": "nonpayable",
      "type": "function"
    },
    {
      "inputs": [
        {
          "internalType": "address",
          "name": "reserve",
          "type": "address"
        },
        {
          "internalType": "address",
          "name": "pToken",
          "type": "address"
        },
        {
          "internalType": "uint256",
          "name": "liquidityAdded",
          "type": "uint256"
        },
        {
          "internalType": "uint256",
          "name": "liquidityTaken",
          "type": "uint256"
        },
        {
          "internalType": "uint256",
          "name": "totalVariableDebt",
          "type": "uint256"
        },
        {
          "internalType": "uint256",
          "name": "reserveFactor",
          "type": "uint256"
        }
      ],
      "name": "calculateInterestRates",
      "outputs": [
        {
          "internalType": "uint256",
          "name": "",
          "type": "uint256"
        },
        {
          "internalType": "uint256",
          "name": "",
          "type": "uint256"
        }
      ],
      "stateMutability": "nonpayable",
      "type": "function"
    },
    {
      "inputs": [
        {
          "internalType": "address",
          "name": "_underlyingToken",
          "type": "address"
        },
        {
          "internalType": "address",
          "name": "platformToken",
          "type": "address"
        },
        {
          "internalType": "address",
          "name": "_pToken",
          "type": "address"
        },
        {
          "internalType": "uint16",
          "name": "_p2pIndexCursor",
          "type": "uint16"
        }
      ],
      "name": "createMarket",
      "outputs": [],
      "stateMutability": "nonpayable",
      "type": "function"
    },
    {
      "inputs": [
        {
          "internalType": "address",
          "name": "pToken",
          "type": "address"
        }
      ],
      "name": "getReserveIRIndex",
      "outputs": [
        {
          "internalType": "uint256",
          "name": "nowP2PSupplyIndex",
          "type": "uint256"
        },
        {
          "internalType": "uint256",
          "name": "nowP2PBorrowIndex",
          "type": "uint256"
        },
        {
          "internalType": "uint112",
          "name": "poolSupplyIndex",
          "type": "uint112"
        },
        {
          "internalType": "uint112",
          "name": "poolBorrowIndex",
          "type": "uint112"
        }
      ],
      "stateMutability": "view",
      "type": "function"
    },
    {
      "inputs": [],
      "name": "owner",
      "outputs": [
        {
          "internalType": "address",
          "name": "",
          "type": "address"
        }
      ],
      "stateMutability": "view",
      "type": "function"
    },
    {
      "inputs": [],
      "name": "renounceOwnership",
      "outputs": [],
      "stateMutability": "nonpayable",
      "type": "function"
    },
    {
      "inputs": [
        {
          "internalType": "address",
          "name": "pool",
          "type": "address"
        }
      ],
      "name": "setPool",
      "outputs": [],
      "stateMutability": "nonpayable",
      "type": "function"
    },
    {
      "inputs": [
        {
          "internalType": "address",
          "name": "newOwner",
          "type": "address"
        }
      ],
      "name": "transferOwnership",
      "outputs": [],
      "stateMutability": "nonpayable",
      "type": "function"
    }
  ],
  "bytecode": "0x60a060405234801561001057600080fd5b5060405161188938038061188983398101604081905261002f91610081565b600080546001600160a01b031916339081178255604051909182917f8be0079c531659141344cd1fd0a4f28419497f9722a3daafe3b4186f6b6457e0908290a3506001600160a01b03166080526100b1565b60006020828403121561009357600080fd5b81516001600160a01b03811681146100aa57600080fd5b9392505050565b6080516117bd6100cc600039600061020001526117bd6000f3fe608060405234801561001057600080fd5b506004361061009e5760003560e01c806376e86ef71161006657806376e86ef7146101b057806381c8c972146101c35780638da5cb5b146101d6578063c72c4d10146101fb578063f2fde38b1461022257600080fd5b806308ea82e1146100a357806317319873146101545780634437152a1461016b5780636ee082ca14610180578063715018a6146101a8575b600080fd5b6101206100b1366004611333565b6001600160a01b031660008181526004602090815260408083208151606081018352905463ffffffff811682526001600160701b0364010000000082048116838601908152600160901b9092041691830191825294845260028352818420546003909352922054925191519093565b6040805194855260208501939093526001600160701b03918216928401929092521660608201526080015b60405180910390f35b61015d60065481565b60405190815260200161014b565b61017e610179366004611333565b610235565b005b61019361018e36600461134e565b61028a565b6040805192835260208301919091520161014b565b61017e6106dd565b61017e6101be366004611387565b610751565b6101936101d13660046113e4565b610a10565b6000546001600160a01b03165b6040516001600160a01b03909116815260200161014b565b6101e37f000000000000000000000000000000000000000000000000000000000000000081565b61017e610230366004611333565b610a50565b6000546001600160a01b031633146102685760405162461bcd60e51b815260040161025f90611439565b60405180910390fd5b600180546001600160a01b0319166001600160a01b0392909216919091179055565b6000806102af6040518060600160405280604081526020016115f96040913987610b3a565b6001600160a01b0380871660009081526005602090815260409182902060010154825160608101909352603f8084529316926102f392916116399083013982610b3a565b6001600160a01b0380821660009081526004602090815260408083208b851684526005835281842054825160808101845285815293840185905291830184905260608301939093529192919091169061034b82610b83565b6020808401919091529082526040805160608101909152602c808252610379926115cd908301398251610cb0565b61039f6040518060600160405280602c815260200161173b602c91398260200151610cb0565b6040805160e0810182526001600160a01b0386166000818152600260209081528482205484529181526003825283902054818301528351828401528381015160608084019190915283519081018452865463ffffffff811682526001600160701b036401000000008204811693830193909352600160901b900490911692810192909252608081019190915260a0810188905261138860c082018190529061044690610cf5565b606084015260408084018290526001600160a01b038716600090815260026020908152908290209290925580518082019091526005815264033b0b99d160dd1b91810191909152610497905a610cb0565b6104bd6040518060600160405280602b81526020016116e9602b91398360400151610cb0565b6104e460405180604001604052806005815260200164033b0b99d160dd1b8152505a610cb0565b61050a6040518060600160405280602b81526020016115a2602b91398360600151610cb0565b610531604051806040016040528060068152602001650ccd2dcd2e6d60d31b815250610e3f565b61056b604051806060016040528060288152602001611678602891396001600160a01b038716600090815260026020526040902054610cb0565b61059260405180604001604052806005815260200164033b0b99d160dd1b8152505a610cb0565b6105cc6040518060600160405280602881526020016116a0602891396001600160a01b038716600090815260036020526040902054610cb0565b835482516020808501516001600160701b03908116600160901b026001600160901b03919093166401000000000271ffffffffffffffffffffffffffffffffffff1990941663ffffffff421617939093179290921617855560408051808201909152600e81526d39b2ba103334b734b9b41717171760911b9181019190915261065490610e3f565b846001600160a01b03167fe9f571cc89dec9d3545848be792adb166a35fd4ac7f853471f9b5a16db51b9e883604001518460600151856000015186602001516040516106b9949392919093845260208401929092526040830152606082015260800190565b60405180910390a28160400151826060015196509650505050505094509492505050565b6000546001600160a01b031633146107075760405162461bcd60e51b815260040161025f90611439565b600080546040516001600160a01b03909116907f8be0079c531659141344cd1fd0a4f28419497f9722a3daafe3b4186f6b6457e0908390a3600080546001600160a01b0319169055565b60408051808201909152600381526203330360ec1b60208201526001600160a01b0385166107925760405162461bcd60e51b815260040161025f91906114b4565b506107c76040518060400160405280601281526020017102fbab73232b9363cb4b733aa37b5b2b71d160751b81525085610b3a565b6001600160a01b038281166000908152600260209081526040808320676765c793fa10079d601b1b90819055600383528184205560049182905291829020805463ffffffff19164263ffffffff16178155600154925163d15e005360e01b81528885169281019290925292919091169063d15e005390602401602060405180830381865afa15801561085d573d6000803e3d6000fd5b505050506040513d601f19601f8201168201806040525081019061088191906114c7565b815471ffffffffffffffffffffffffffff0000000019166401000000006001600160701b03928316810291909117808455604080518082019091526012815271706f6f6c537570706c79496e64657820697360701b60208201526108ea93909290910416610cb0565b60015460405163386497fd60e01b81526001600160a01b0387811660048301529091169063386497fd90602401602060405180830381865afa158015610934573d6000803e3d6000fd5b505050506040513d601f19601f8201168201806040525081019061095891906114c7565b81546001600160901b0316600160901b6001600160701b03928316810291909117808455604080518082019091526012815271706f6f6c426f72726f77496e64657820697360701b60208201526109b493909290910416610cb0565b50506040805180820182526001600160a01b0394851681529184166020808401918252938516600090815260059094529220905181549084166001600160a01b0319918216178255915160019091018054919093169116179055565b600080610a3460405180606001604052806027815260200161171460279139610e3f565b610a41886000808661028a565b91509150965096945050505050565b6000546001600160a01b03163314610a7a5760405162461bcd60e51b815260040161025f90611439565b6001600160a01b038116610adf5760405162461bcd60e51b815260206004820152602660248201527f4f776e61626c653a206e6577206f776e657220697320746865207a65726f206160448201526564647265737360d01b606482015260840161025f565b600080546040516001600160a01b03808516939216917f8be0079c531659141344cd1fd0a4f28419497f9722a3daafe3b4186f6b6457e091a3600080546001600160a01b0319166001600160a01b0392909216919091179055565b610b7f8282604051602401610b509291906114e0565b60408051601f198184030181529190526020810180516001600160e01b031663319af33360e01b179052610e85565b5050565b60015460405163d15e005360e01b81526001600160a01b038381166004830152600092839291169063d15e005390602401602060405180830381865afa158015610bd1573d6000803e3d6000fd5b505050506040513d601f19601f82011682018060405250810190610bf591906114c7565b60015460405163386497fd60e01b81526001600160a01b03868116600483015292945091169063386497fd90602401602060405180830381865afa158015610c41573d6000803e3d6000fd5b505050506040513d601f19601f82011682018060405250810190610c6591906114c7565b9050610c896040518060600160405280602181526020016116c86021913983610cb0565b610cab6040518060600160405280602181526020016117676021913982610cb0565b915091565b610b7f8282604051602401610cc692919061150a565b60408051601f198184030181529190526020810180516001600160e01b0316632d839cb360e21b179052610e85565b600080610d1060405180602001604052806000815250610e3f565b610d46604051806040016040528060158152602001742fb1b7b6b83aba32a8192824b73232bc32b997171760591b815250610e3f565b6000610d698460400151856060015186608001518760c001518860a00151610ea6565b9050610db1604051806080016040528083600001518152602001836040015181526020018660800151602001516001600160701b03168152602001866000015181525061102d565b9250610df9604051806080016040528083602001518152602001836060015181526020018660800151604001516001600160701b03168152602001866020015181525061102d565b9150610e396040518060400160405280601981526020017f66696e697368205f636f6d70757465503250496e646578657300000000000000815250610e3f565b50915091565b610e8281604051602401610e5391906114b4565b60408051601f198184030181529190526020810180516001600160e01b031663104c13eb60e21b179052610e85565b50565b80516a636f6e736f6c652e6c6f67602083016000808483855afa5050505050565b610ed16040518060800160405280600081526020016000815260200160008152602001600081525090565b610ee960405180602001604052806000815250610e3f565b610f276040518060400160405280601781526020017f636f6d7075746547726f777468466163746f72732e2e2e000000000000000000815250610e3f565b6020840151610f409087906001600160701b03166110ce565b81526040840151610f5b9086906001600160701b03166110ce565b60208201819052815111610fd4576000610f7e82600001518360200151866111ac565b9050610f9a83836000015183610f949190611542565b906111ee565b610fa49082611542565b60408301526020820151610fbf908490610f94908490611542565b610fc99082611555565b606083015250610fe6565b60208101516040820181905260608201525b6110246040518060400160405280601b81526020017f66696e69736820636f6d7075746547726f777468466163746f72730000000000815250610e3f565b95945050505050565b60006110626040518060400160405280601281526020017131b7b6b83aba32a8192824b73232bc17171760711b815250610e3f565b600061107a6002676765c793fa10079d601b1b611568565b83519091506110c79061108e908390611268565b60208501516110b2906110ac85676765c793fa10079d601b1b611542565b90611268565b6110bc9190611555565b606085015190611268565b9392505050565b604080518082019091526002815261035360f41b6020820152600090826111085760405162461bcd60e51b815260040161025f91906114b4565b506000611116600284611568565b9050676765c793fa10079d601b1b61113082600019611542565b61113a9190611568565b84111560405180604001604052806002815260200161068760f31b815250906111765760405162461bcd60e51b815260040161025f91906114b4565b50828161118e676765c793fa10079d601b1b8761158a565b6111989190611555565b6111a29190611568565b9150505b92915050565b60008161271003905080828402611388190304841181028261138819048411830217612710831117156111de57600080fd5b6127109302910201611388010490565b60008215806111fb575081155b15611208575060006111a6565b612710611215838561158a565b116040518060400160405280600381526020016232303160e81b815250906112505760405162461bcd60e51b815260040161025f91906114b4565b5061271061125e838561158a565b6110c79190611568565b6000821580611275575081155b15611282575060006111a6565b816112996002676765c793fa10079d601b1b611568565b6112a590600019611542565b6112af9190611568565b83111560405180604001604052806002815260200161068760f31b815250906112eb5760405162461bcd60e51b815260040161025f91906114b4565b50676765c793fa10079d601b1b611303600282611568565b61130d848661158a565b61125e9190611555565b80356001600160a01b038116811461132e57600080fd5b919050565b60006020828403121561134557600080fd5b6110c782611317565b6000806000806080858703121561136457600080fd5b61136d85611317565b966020860135965060408601359560600135945092505050565b6000806000806080858703121561139d57600080fd5b6113a685611317565b93506113b460208601611317565b92506113c260408601611317565b9150606085013561ffff811681146113d957600080fd5b939692955090935050565b60008060008060008060c087890312156113fd57600080fd5b61140687611317565b955061141460208801611317565b95989597505050506040840135936060810135936080820135935060a0909101359150565b6020808252818101527f4f776e61626c653a2063616c6c6572206973206e6f7420746865206f776e6572604082015260600190565b6000815180845260005b8181101561149457602081850181015186830182015201611478565b506000602082860101526020601f19601f83011685010191505092915050565b6020815260006110c7602083018461146e565b6000602082840312156114d957600080fd5b5051919050565b6040815260006114f3604083018561146e565b905060018060a01b03831660208301529392505050565b60408152600061151d604083018561146e565b90508260208301529392505050565b634e487b7160e01b600052601160045260246000fd5b818103818111156111a6576111a661152c565b808201808211156111a6576111a661152c565b60008261158557634e487b7160e01b600052601260045260246000fd5b500490565b80820281158282048414176111a6576111a661152c56fe63616c63756c617465496e7465726573745261746573202d206e6577503250426f72726f77496e6465783a63616c63756c617465496e7465726573745261746573202d206e6577506f6f6c537570706c79496e6465783a506c6174666f726d546f6b656e496e746572657374526174654d6f64656c2063616c63756c617465496e7465726573745261746573202d20726573657276653a506c6174666f726d546f6b656e496e746572657374526174654d6f64656c2063616c63756c617465496e7465726573745261746573202d2070546f6b656e3a63616c63756c617465496e7465726573745261746573202d20703270537570706c79496e6465783a63616c63756c617465496e7465726573745261746573202d20703270426f72726f77496e6465783a5f676574506f6f6c496e646578657320706f6f6c537570706c79496e6465783a2063616c63756c617465496e7465726573745261746573202d206e6577503250537570706c79496e6465783a5573696e6720506c6174666f726d546f6b656e496e746572657374526174654d6f64656c2e2e2e63616c63756c617465496e7465726573745261746573202d206e6577506f6f6c426f72726f77496e6465783a5f676574506f6f6c496e646578657320706f6f6c426f72726f77496e6465783a20a26469706673582212206b277e84ba496db7ff45bd695cddb36c2c5034f5fe4627ea0796e2ea38b3cd7064736f6c63430008110033",
  "linkReferences": {},
  "deployedLinkReferences": {}
}