{
  "_format": "hh-sol-artifact-1",
  "contractName": "CounterCollateralManager",
  "sourceName": "contracts/protocol/Pool/CounterCollateralManager.sol",
  "abi": [
    {
      "anonymous": false,
      "inputs": [
        {
          "indexed": true,
          "internalType": "address",
          "name": "collateral",
          "type": "address"
        },
        {
          "indexed": true,
          "internalType": "address",
          "name": "principal",
          "type": "address"
        },
        {
          "indexed": true,
          "internalType": "address",
          "name": "user",
          "type": "address"
        },
        {
          "indexed": false,
          "internalType": "uint256",
          "name": "debtToCover",
          "type": "uint256"
        },
        {
          "indexed": false,
          "internalType": "uint256",
          "name": "liquidatedCollateralAmount",
          "type": "uint256"
        },
        {
          "indexed": false,
          "internalType": "address",
          "name": "liquidator",
          "type": "address"
        },
        {
          "indexed": false,
          "internalType": "bool",
          "name": "receivepToken",
          "type": "bool"
        }
      ],
      "name": "LiquidationCall",
      "type": "event"
    },
    {
      "anonymous": false,
      "inputs": [
        {
          "indexed": true,
          "internalType": "address",
          "name": "reserve",
          "type": "address"
        },
        {
          "indexed": true,
          "internalType": "address",
          "name": "user",
          "type": "address"
        }
      ],
      "name": "ReserveUsedAsCollateralDisabled",
      "type": "event"
    },
    {
      "anonymous": false,
      "inputs": [
        {
          "indexed": true,
          "internalType": "address",
          "name": "reserve",
          "type": "address"
        },
        {
          "indexed": true,
          "internalType": "address",
          "name": "user",
          "type": "address"
        }
      ],
      "name": "ReserveUsedAsCollateralEnabled",
      "type": "event"
    },
    {
      "inputs": [],
      "name": "_addressesProvider",
      "outputs": [
        {
          "internalType": "contract ICounterAddressesProvider",
          "name": "",
          "type": "address"
        }
      ],
      "stateMutability": "view",
      "type": "function"
    },
    {
      "inputs": [
        {
          "components": [
            {
              "internalType": "address",
              "name": "collateralAsset",
              "type": "address"
            },
            {
              "internalType": "uint8",
              "name": "collateralRiskTier",
              "type": "uint8"
            },
            {
              "internalType": "address",
              "name": "debtAsset",
              "type": "address"
            },
            {
              "internalType": "uint8",
              "name": "debtRiskTier",
              "type": "uint8"
            },
            {
              "internalType": "address",
              "name": "user",
              "type": "address"
            },
            {
              "internalType": "uint256",
              "name": "debtToCover",
              "type": "uint256"
            },
            {
              "internalType": "bool",
              "name": "receivePToken",
              "type": "bool"
            }
          ],
          "internalType": "struct ICounterCollateralManager.ExcuteLiqudationParams",
          "name": "liqParams",
          "type": "tuple"
        }
      ],
      "name": "liquidationCall",
      "outputs": [
        {
          "internalType": "uint256",
          "name": "",
          "type": "uint256"
        },
        {
          "internalType": "string",
          "name": "",
          "type": "string"
        }
      ],
      "stateMutability": "nonpayable",
      "type": "function"
    }
  ],
  "bytecode": "0x608060405234801561001057600080fd5b50613057806100206000396000f3fe608060405234801561001057600080fd5b50600436106100365760003560e01c80630e1887c41461003b5780639e6ffa5814610065575b600080fd5b61004e6100493660046129f8565b610090565b60405161005c929190612aff565b60405180910390f35b600054610078906001600160a01b031681565b6040516001600160a01b03909116815260200161005c565b80516001600160a01b0390811660009081526001602081815260408084208287015160ff9081168652908352818520828801518716865293835281852060608881015190921686528352818520608088018051881687526003855283872090519097168652600490935290842093949093610109612917565b6101e560405180608001604052808a608001516001600160a01b03168152602001600654815260200160008054906101000a90046001600160a01b03166001600160a01b031663fca513a86040518163ffffffff1660e01b8152600401602060405180830381865afa158015610183573d6000803e3d6000fd5b505050506040513d601f19601f820116820180604052508101906101a79190612b18565b6001600160a01b0316815260208b81015160ff169181019190915260408051808301825287548152815192830190915285548252600191600561095c565b6101008681019190915260808d81015160408051610160810182528c546101408201908152815260018d01546001600160801b038082166020840152600160801b9182900481169383019390935260028e01548084166060840152049091169281019290925260038b015464ffffffffff811660a0840152600160281b90046001600160a01b0390811660c084015260048c0154811660e084015260058c015490811693830193909352600160a01b90920460ff166101208201526102b195509093509150610ff49050565b602082018190526101008201516102ce918791879187919061106e565b6101c08301526101a0820181905260009060098111156102f0576102f0612b35565b600981111561030157610301612b35565b1461032057806101a00151816101c00151965096505050505050915091565b6003850154600160281b90046001600160a01b03908116610140830181905260808a01516040516370a0823160e01b815292166004830152906370a0823190602401602060405180830381865afa15801561037f573d6000803e3d6000fd5b505050506040513d601f19601f820116820180604052508101906103a39190612b4b565b815260208101516103b6906113886111c1565b6040820181905260a0890151116103d1578760a001516103d7565b80604001515b60608201819052885160408a015183516103f993899389939092909190611244565b60e0830181905260c08301919091526060820151111561041e5760e081015160608201525b8760c001516104da5787516101408201516040516370a0823160e01b81526001600160a01b03918216600482015260009291909116906370a0823190602401602060405180830381865afa15801561047a573d6000803e3d6000fd5b505050506040513d601f19601f8201168201806040525081019061049e9190612b4b565b90508160c001518110156104d857600560405180604001604052806002815260200161343560f01b81525097509750505050505050915091565b505b600b546104f19085906001600160a01b0316611504565b806060015181602001511061058f5760048481015460808a015160608401516001880154604051637a94c56560e11b81526001600160a01b03938416958101959095526024850191909152600160801b90046001600160801b03166044840152169063f5298aca90606401600060405180830381600087803b15801561057657600080fd5b505af115801561058a573d6000803e3d6000fd5b505050505b6040880151600385015460608301516105bf9287929091600160281b9091046001600160a01b03169060006117cb565b8760c001511561072c576101408101516040516370a0823160e01b81523360048201526001600160a01b03909116906370a0823190602401602060405180830381865afa158015610614573d6000803e3d6000fd5b505050506040513d601f19601f820116820180604052508101906106389190612b4b565b610120820152610140810151608089015160c083015160405163f866c31960e01b81526001600160a01b039283166004820152336024820152604481019190915291169063f866c31990606401600060405180830381600087803b15801561069f57600080fd5b505af11580156106b3573d6000803e3d6000fd5b505050508061012001516000036107275733600090815260036020526040902060058601546106ef908290600160a01b900460ff166001611c81565b885160405133916001600160a01b0316907e058a56ea94653cdf4f152d227ace22d4c00ad99e2a43f58cb7d9e3feb295f290600090a3505b6107ed565b600b546107439086906001600160a01b0316611504565b875161014082015160c083015161076092889290916000906117cb565b610140810151608089015160c08301516001880154604051636b81068560e11b81526001600160a01b03938416600482015233602482015260448101929092526001600160801b0316606482015291169063d7020d0a90608401600060405180830381600087803b1580156107d457600080fd5b505af11580156107e8573d6000803e3d6000fd5b505050505b805160c08201510361085e576005850154610815908490600160a01b900460ff166000611c81565b87608001516001600160a01b031688600001516001600160a01b03167f44c58d81365b66dd4b1a7f36c25aa97b8c71c361ee4937adc1a00000227db5dd60405160405180910390a35b61089d338560030160059054906101000a90046001600160a01b031683606001518b604001516001600160a01b0316611d0d909392919063ffffffff16565b87608001516001600160a01b031688604001516001600160a01b031689600001516001600160a01b03167fe413a321e8681d831f4dbccbca790d2952b56f977908e45be37335533e00528684606001518560c00151338e60c00151604051610929949392919093845260208401929092526001600160a01b031660408301521515606082015260800190565b60405180910390a46000604051806040016040528060028152602001611a1b60f11b815250965096505050505050915091565b6000806000806000610a0b604051806102600160405280600081526020016000815260200160008152602001600081526020016000815260200160008152602001600081526020016000815260200160008152602001600081526020016000815260200160008152602001600081526020016000815260200160001515815260200160006001600160a01b03168152602001600060ff1681526020016000151581526020016000151581525090565b8851610a2a576000806000806000199550955095509550955050610fe7565b600060e08201525b8a602001518160e001511015610f1d5760e0810151610a52908a90611d6d565b15610f055760e081015160009081526020889052604090205460ff600160a01b9091048116610200830181905260608d01519091161015610ab357610aae604051806060016040528060248152602001612f0b60249139611dc8565b610f05565b60e0810151600090815260208881526040808320546001600160a01b03166101e0850181905283528c825280832061020085015160ff1684529091529020610b20815461ffff80821692601083901c821692602081901c831692603082901c60ff169260409290921c1690565b506080860181905260c08601929092525060a0840191909152610b4490600a612c5e565b602083015260408c8101516101e0840151915163b3596f0760e01b81526001600160a01b03928316600482015291169063b3596f0790602401602060405180830381865afa158015610b9a573d6000803e3d6000fd5b505050506040513d601f19601f82011682018060405250810190610bbe9190612b4b565b825260408051606081019091526024808252610bf79190612dfe60208301396003830154600160281b90046001600160a01b0316611e0e565b610c1e604051806060016040528060258152602001612f2f60259139836101e00151611e0e565b610c41604051806060016040528060238152602001612e99602391398351611e57565b610c6e6040518060400160405280600c81526020016b3ab9b2b91021b7b73334b39d60a11b815250611dc8565b610c8d610c888360e001518c611e9c90919063ffffffff16565b611f02565b610cc96040518060400160405280601681526020017503634b8bab4b230ba34b7b72a343932b9b437b6321d160551b8152508360c00151611e57565b60c082015115801590610ce7575060e0820151610ce7908b90611e9c565b15610e4157610d12604051806060016040528060318152602001612e22603191398360e00151611e57565b60038101548c516040516370a0823160e01b81526001600160a01b039182166004820152600160281b90920416906370a0823190602401602060405180830381865afa158015610d66573d6000803e3d6000fd5b505050506040513d601f19601f82011682018060405250810190610d8a9190612b4b565b6040830181905260208301518351600092610da491612c6a565b610dae9190612c81565b905080836101200151610dc19190612ca3565b61012084019081526040805180820190915260098152680102aa9a21034b99d160bd1b60208201529051610df59190611e57565b60a0830151610e049082612c6a565b836101600151610e149190612ca3565b61016084015260c0830151610e299082612c6a565b836101800151610e399190612ca3565b610180840152505b60e0820151610e51908b90611f43565b15610f03576004818101548d516040516370a0823160e01b81526001600160a01b039182169381019390935216906370a0823190602401602060405180830381865afa158015610ea5573d6000803e3d6000fd5b505050506040513d601f19601f82011682018060405250810190610ec99190612b4b565b60608301819052602083015183519091610ee291612c6a565b610eec9190612c81565b826101400151610efc9190612ca3565b6101408301525b505b60e08101805190610f1582612cb6565b905250610a32565b600081610120015111610f31576000610f53565b8751610120820151610f439190612ca3565b816101600151610f539190612c81565b610160820152610120810151610f6a576000610f8c565b8751610120820151610f7c9190612ca3565b816101800151610f8c9190612c81565b6101808201528751610120820151610fb891610fa791612ca3565b826101400151836101800151611f8e565b610100820181905261012082015161014083015161016084015161018090940151919850965091945090925090505b9550955095509550959050565b60e08101516040516370a0823160e01b81526001600160a01b03848116600483015260009216906370a0823190602401602060405180830381865afa158015611041573d6000803e3d6000fd5b505050506040513d601f19601f820116820180604052508101906110659190612b4b565b90505b92915050565b6040805160208101909152855490819052600090606090600160381b1615806110ab57506040805160208101909152865490819052600160381b16155b156110d25750506040805180820190915260018152601960f91b60208201526006906111b7565b670de0b6b3a764000084106111045750506040805180820190915260028152611a1960f11b60208201526004906111b7565b8654600090819060101c61ffff161180156111415750600588015460408051602081019091528754815261114191600160a01b900460ff16611e9c565b90508061116b57505060408051808201909152600280825261343360f01b602083015291506111b7565b836000036111975750506040805180820190915260028152610d0d60f21b6020820152600391506111b7565b50506040805180820190915260028152611a1b60f11b6020820152600091505b9550959350505050565b60008215806111ce575081155b156111db57506000611068565b6127106111e88385612c6a565b116040518060400160405280600381526020016232303160e81b8152509061122c5760405162461bcd60e51b81526004016112239190612ccf565b60405180910390fd5b5061271061123a8385612c6a565b6110659190612c81565b60008060008060008060009054906101000a90046001600160a01b03166001600160a01b031663fca513a86040518163ffffffff1660e01b8152600401602060405180830381865afa15801561129e573d6000803e3d6000fd5b505050506040513d601f19601f820116820180604052508101906112c29190612b18565b90506113046040518060e00160405280600081526020016000815260200160008152602001600081526020016000815260200160008152602001600081525090565b60405163b3596f0760e01b81526001600160a01b038b8116600483015283169063b3596f0790602401602060405180830381865afa15801561134a573d6000803e3d6000fd5b505050506040513d601f19601f8201168201806040525081019061136e9190612b4b565b6040828101919091525163b3596f0760e01b81526001600160a01b038a8116600483015283169063b3596f0790602401602060405180830381865afa1580156113bb573d6000803e3d6000fd5b505050506040513d601f19601f820116820180604052508101906113df9190612b4b565b60608201528b54603081811c60ff90811660c0850152602092831c61ffff16928401929092528c54901c1660a0820181905261141c90600a612c5e565b816040015161142b9190612c6a565b61144a82602001518360c00151600a6114449190612c5e565b906111c1565b89836060015161145a9190612c6a565b6114649190612c6a565b61146e9190612c81565b608082018190528710156114e8578693506114ad81602001518260c00151600a6114989190612c5e565b83606001516114a79190612c6a565b90611fbf565b60a08201516114bd90600a612c5e565b8583604001516114cd9190612c6a565b6114d79190612c6a565b6114e19190612c81565b92506114f3565b806080015193508792505b50919a909950975050505050505050565b61151c60405180602001604052806000815250611dc8565b61154b6040518060400160405280600e81526020016d3ab83230ba32a9ba30ba3297171760911b815250611dc8565b61157a604051806060016040528060228152602001612ee96022913960048401546001600160a01b0316611e0e565b60008260040160009054906101000a90046001600160a01b03166001600160a01b031663b1bf962d6040518163ffffffff1660e01b8152600401602060405180830381865afa1580156115d1573d6000803e3d6000fd5b505050506040513d601f19601f820116820180604052508101906115f59190612b4b565b9050611626604051806060016040528060228152602001612ee96022913960048501546001600160a01b0316611e0e565b6116656040518060400160405280601781526020017f7363616c65645661726961626c65446562742069733a2000000000000000000081525082611e57565b600183015460038401546001600160801b03600160801b8304811692169064ffffffffff1660008061169a8887868887612023565b915091506116dd6040518060400160405280602081526020017f7570646174655374617465202d206e65774c6971756964697479496e6465783a81525083611e57565b6116ff604051806060016040528060258152602001612e536025913982611e57565b611721604051806060016040528060218152602001612e786021913987611e57565b6117308887878585888d6121b0565b6004808901546040805163b1bf962d60e01b815290516001600160a01b039092169263b1bf962d9282820192602092908290030181865afa158015611779573d6000803e3d6000fd5b505050506040513d601f19601f8201168201806040525081019061179d9190612b4b565b95506117c1604051806060016040528060368152602001612fec6036913987611e57565b5050505050505050565b611802604051806040016040528060168152602001753ab83230ba32a4b73a32b932b9ba2930ba32b997171760511b815250611dc8565b61182d6040518060800160405280600081526020016000815260200160008152602001600081525090565b60018601546004808801546040805163b1bf962d60e01b815290516118bb94600160801b90046001600160801b0316936001600160a01b039093169263b1bf962d928082019260209290918290030181865afa158015611891573d6000803e3d6000fd5b505050506040513d601f19601f820116820180604052508101906118b59190612b4b565b90612394565b8160600181815250506118f36040518060600160405280602e8152602001612d9f602e913960048801546001600160a01b0316611e0e565b6119816040518060600160405280602d8152602001612ebc602d91396004808901546040805163b1bf962d60e01b815290516001600160a01b039092169263b1bf962d9282820192602092908290030181865afa158015611958573d6000803e3d6000fd5b505050506040513d601f19601f8201168201806040525081019061197c9190612b4b565b611e57565b6119b7604051806060016040528060318152602001612f81603191396001880154600160801b90046001600160801b0316611e57565b6119dd6040518060600160405280602d8152602001612f54602d91398260600151611e57565b611a0c6040518060600160405280603a8152602001612fb2603a913960058801546001600160a01b0316611e0e565b611a3b604051806060016040528060318152602001612dcd6031913960058801546001600160a01b0316611e0e565b600586015460608201518754604080516340e464b960e11b81526001600160a01b038a8116600483015289811660248301526044820189905260648201889052608482019490945291811c61ffff1660a4830152805192909316926381c8c9729260c48084019382900301816000875af1158015611abd573d6000803e3d6000fd5b505050506040513d601f19601f82011682018060405250810190611ae19190612ce2565b604080840191909152602080840183905281518083019092526002825261353360f01b90820152906001600160801b031015611b305760405162461bcd60e51b81526004016112239190612ccf565b50604080820151815180830190925260028252610d4d60f21b60208301526001600160801b031015611b755760405162461bcd60e51b81526004016112239190612ccf565b50611bb96040518060400160405280601781526020017f766172732e6e65774c6971756964697479526174653a200000000000000000008152508260200151611e57565b611bf56040518060400160405280601681526020017503b30b939973732bbab30b934b0b13632a930ba329d160551b8152508260400151611e57565b6020818101516040808401516001600160801b03808416600160801b82841681029190911760028d015560018c0154845195865295850192909252848116848401529304909216606082015290516001600160a01b038716917f4063a2df84b66bb796eb32622851d833e57b2c4292900c18f963af8808b13e35919081900360800190a2505050505050565b604080518082019091526002815261373760f01b602082015260808310611cbb5760405162461bcd60e51b81526004016112239190612ccf565b50611cc7826002612c6a565b611cd2906001612ca3565b81611cde576000611ce1565b60015b60ff16901b611cf1836002612c6a565b611cfc906001612ca3565b8454600190911b1916179092555050565b604080516001600160a01b0385811660248301528416604482015260648082018490528251808303909101815260849091019091526020810180516001600160e01b03166323b872dd60e01b179052611d67908590612445565b50505050565b60006080821060405180604001604052806002815260200161373760f01b81525090611dac5760405162461bcd60e51b81526004016112239190612ccf565b50611db8826002612c6a565b925190921c600316151592915050565b611e0b81604051602401611ddc9190612ccf565b60408051601f198184030181529190526020810180516001600160e01b031663104c13eb60e21b17905261251c565b50565b611e538282604051602401611e24929190612d06565b60408051601f198184030181529190526020810180516001600160e01b031663319af33360e01b17905261251c565b5050565b611e538282604051602401611e6d929190612d30565b60408051601f198184030181529190526020810180516001600160e01b0316632d839cb360e21b17905261251c565b60006080821060405180604001604052806002815260200161373760f01b81525090611edb5760405162461bcd60e51b81526004016112239190612ccf565b50611ee7826002612c6a565b611ef2906001612ca3565b925190921c600116151592915050565b6040518115156024820152611e0b9060440160408051601f198184030181529190526020810180516001600160e01b03166332458eed60e01b17905261251c565b60006080821060405180604001604052806002815260200161373760f01b81525090611f825760405162461bcd60e51b81526004016112239190612ccf565b50611ef2826002612c6a565b600082600003611fa15750600019611fb8565b611fb583611faf86856111c1565b9061253d565b90505b9392505050565b6000821580611fcc575081155b15611fd957506000611068565b60408051808201909152600381526219181960e91b602082015261271183106120155760405162461bcd60e51b81526004016112239190612ccf565b508161123a84612710612c6a565b600080612058604051806040016040528060118152602001702fbab83230ba32a4b73232bc32b997171760791b815250611dc8565b60028701546001600160801b03168585821561218a57600061207a8488612613565b9050612086818a612394565b604080518082019091526002815261353160f01b60208201529093506001600160801b038411156120ca5760405162461bcd60e51b81526004016112239190612ccf565b5060018b0180546fffffffffffffffffffffffffffffffff19166001600160801b03851617905589156121885760028b015460009061211990600160801b90046001600160801b031689612659565b9050612125818a612394565b6040805180820190915260028152611a9960f11b60208201529093506001600160801b038411156121695760405162461bcd60e51b81526004016112239190612ccf565b505060018b0180546001600160801b03808516600160801b0291161790555b505b600399909901805464ffffffffff19164264ffffffffff16179055989650505050505050565b6121f06040518060c001604052806000815260200160008152602001600081526020016000815260200160008152602001600064ffffffffff1681525090565b875460401c61ffff166080820181905260000361220d575061238b565b6122178787612394565b60208201526122268785612394565b815260408051808201909152601881527f63757272656e745661726961626c65446562742069733a200000000000000000602082015281516122689190611e57565b602081015181516122799190612d52565b60408201819052608082015161228f91906111c1565b60608201819052156117c15760038801546060820151604051637df5bd3b60e01b8152600481019190915260248101879052600160281b9091046001600160a01b031690637df5bd3b90604401600060405180830381600087803b1580156122f657600080fd5b505af115801561230a573d6000803e3d6000fd5b5050505060038801546060820151604051631d76357f60e11b81526001600160a01b038581166004830152602482019290925260448101889052600160281b9092041690633aec6afe90606401600060405180830381600087803b15801561237157600080fd5b505af1158015612385573d6000803e3d6000fd5b50505050505b50505050505050565b60008215806123a1575081155b156123ae57506000611068565b816123c660026b033b2e3c9fd0803ce8000000612c81565b6123d290600019612d52565b6123dc9190612c81565b83111560405180604001604052806002815260200161068760f31b815250906124185760405162461bcd60e51b81526004016112239190612ccf565b506b033b2e3c9fd0803ce8000000612431600282612c81565b61243b8486612c6a565b61123a9190612ca3565b600061249a826040518060400160405280602081526020017f5361666545524332303a206c6f772d6c6576656c2063616c6c206661696c6564815250856001600160a01b03166126669092919063ffffffff16565b80519091501561251757808060200190518101906124b89190612d65565b6125175760405162461bcd60e51b815260206004820152602a60248201527f5361666545524332303a204552433230206f7065726174696f6e20646964206e6044820152691bdd081cdd58d8d9595960b21b6064820152608401611223565b505050565b80516a636f6e736f6c652e6c6f67602083016000808483855afa5050505050565b604080518082019091526002815261035360f41b6020820152600090826125775760405162461bcd60e51b81526004016112239190612ccf565b506000612585600284612c81565b9050670de0b6b3a764000061259c82600019612d52565b6125a69190612c81565b84111560405180604001604052806002815260200161068760f31b815250906125e25760405162461bcd60e51b81526004016112239190612ccf565b5082816125f7670de0b6b3a764000087612c6a565b6126019190612ca3565b61260b9190612c81565b949350505050565b60008061262764ffffffffff841642612d52565b90506b033b2e3c9fd0803ce80000006301e133806126458387612c6a565b61264f9190612c81565b61260b9190612ca3565b6000611065838342612675565b6060611fb5848460008561279e565b60008061268964ffffffffff851684612d52565b9050806000036126a8576b033b2e3c9fd0803ce8000000915050611fb8565b60006126b5600183612d52565b90506000600283116126c85760006126d3565b6126d3600284612d52565b905060006126e56301e1338089612c81565b905060006126f38280612394565b905060006127018284612394565b90506000600283612712888a612c6a565b61271c9190612c6a565b6127269190612c81565b90506000600683876127388a8c612c6a565b6127429190612c6a565b61274c9190612c6a565b6127569190612c81565b905080826127648a88612c6a565b61277a906b033b2e3c9fd0803ce8000000612ca3565b6127849190612ca3565b61278e9190612ca3565b9c9b505050505050505050505050565b6060824710156127ff5760405162461bcd60e51b815260206004820152602660248201527f416464726573733a20696e73756666696369656e742062616c616e636520666f6044820152651c8818d85b1b60d21b6064820152608401611223565b600080866001600160a01b0316858760405161281b9190612d82565b60006040518083038185875af1925050503d8060008114612858576040519150601f19603f3d011682016040523d82523d6000602084013e61285d565b606091505b509150915061286e87838387612879565b979650505050505050565b606083156128e85782516000036128e1576001600160a01b0385163b6128e15760405162461bcd60e51b815260206004820152601d60248201527f416464726573733a2063616c6c20746f206e6f6e2d636f6e74726163740000006044820152606401611223565b508161260b565b61260b83838151156128fd5781518083602001fd5b8060405162461bcd60e51b81526004016112239190612ccf565b604051806101e001604052806000815260200160008152602001600081526020016000815260200160008152602001600081526020016000815260200160008152602001600081526020016000815260200160006001600160a01b031681526020016000151581526020016000600281111561299557612995612b35565b815260200160008152602001606081525090565b6001600160a01b0381168114611e0b57600080fd5b80356129c9816129a9565b919050565b803560ff811681146129c957600080fd5b8015158114611e0b57600080fd5b80356129c9816129df565b600060e08284031215612a0a57600080fd5b60405160e0810181811067ffffffffffffffff82111715612a3b57634e487b7160e01b600052604160045260246000fd5b604052612a47836129be565b8152612a55602084016129ce565b6020820152612a66604084016129be565b6040820152612a77606084016129ce565b6060820152612a88608084016129be565b608082015260a083013560a0820152612aa360c084016129ed565b60c08201529392505050565b60005b83811015612aca578181015183820152602001612ab2565b50506000910152565b60008151808452612aeb816020860160208601612aaf565b601f01601f19169290920160200192915050565b828152604060208201526000611fb56040830184612ad3565b600060208284031215612b2a57600080fd5b8151611fb8816129a9565b634e487b7160e01b600052602160045260246000fd5b600060208284031215612b5d57600080fd5b5051919050565b634e487b7160e01b600052601160045260246000fd5b600181815b80851115612bb5578160001904821115612b9b57612b9b612b64565b80851615612ba857918102915b93841c9390800290612b7f565b509250929050565b600082612bcc57506001611068565b81612bd957506000611068565b8160018114612bef5760028114612bf957612c15565b6001915050611068565b60ff841115612c0a57612c0a612b64565b50506001821b611068565b5060208310610133831016604e8410600b8410161715612c38575081810a611068565b612c428383612b7a565b8060001904821115612c5657612c56612b64565b029392505050565b60006110658383612bbd565b808202811582820484141761106857611068612b64565b600082612c9e57634e487b7160e01b600052601260045260246000fd5b500490565b8082018082111561106857611068612b64565b600060018201612cc857612cc8612b64565b5060010190565b6020815260006110656020830184612ad3565b60008060408385031215612cf557600080fd5b505080516020909101519092909150565b604081526000612d196040830185612ad3565b905060018060a01b03831660208301529392505050565b604081526000612d436040830185612ad3565b90508260208301529392505050565b8181038181111561106857611068612b64565b600060208284031215612d7757600080fd5b8151611fb8816129df565b60008251612d94818460208701612aaf565b919091019291505056fe757064617465496e7465726573745261746573202d207661726961626c6544656274546f6b656e41646472657373757064617465496e7465726573745261746573202d20696e7465726573745261746553747261746567794164647265737363616c63756c617465557365724163636f756e7444617461202d2070546f6b656e20697363616c63756c617465557365724163636f756e74446174612063616c63756c6174652061737365742025732076616c75657570646174655374617465202d206e65775661726961626c65426f72726f77496e6465783a7570646174655374617465202d207363616c65645661726961626c65446562743a63616c63756c617465557365724163636f756e7444617461202d205072696365206973757064617465496e7465726573745261746573202d2044656274207363616c6564546f74616c537570706c793a726573657276652e7661726961626c6544656274546f6b656e416464726573733a20726573657276652054696572206973206c6f776572207468616e207269736b205469657263616c63756c617465557365724163636f756e7444617461202d2072657365727665206973757064617465496e7465726573745261746573202d20766172732e746f74616c5661726961626c65446562743a757064617465496e7465726573745261746573202d20726573657276652e7661726961626c65426f72726f77496e646578757064617465496e7465726573745261746573202d20726573657276652e696e746572657374526174655374726174656779416464726573733a7570646174655374617465202d206166746572206d696e74546f5472657373757279207363616c65645661726961626c65446562743aa26469706673582212204817c7f81ade47680c677c0a7945cdfce8966ff3d0dfa9c8060c83b1deb9e97164736f6c63430008110033",
  "linkReferences": {},
  "deployedLinkReferences": {}
}