{
  "_format": "hh-sol-artifact-1",
  "contractName": "GenericLogic",
  "sourceName": "contracts/protocol/libraries/logic/GenericLogic.sol",
  "abi": [
    {
      "inputs": [],
      "name": "HEALTH_FACTOR_LIQUIDATION_THRESHOLD",
      "outputs": [
        {
          "internalType": "uint256",
          "name": "",
          "type": "uint256"
        }
      ],
      "stateMutability": "view",
      "type": "function"
    }
  ],
  "bytecode": "0x6112ce61003a600b82828239805160001a60731461002d57634e487b7160e01b600052600060045260246000fd5b30600052607381538281f3fe73000000000000000000000000000000000000000030146080604052600436106100405760003560e01c80633133ff6314610045578063c3525c281461006d575b600080fd5b610058610053366004610ebb565b61008a565b60405190151581526020015b60405180910390f35b61007c670de0b6b3a764000081565b604051908152602001610064565b60006100c661009e36889003880188610f7f565b517f555555555555555555555555555555555555555555555555555555555555555516151590565b158061011f575087516001600160a01b0316600090815260208881526040808320828c015160ff908116855292529091206005015461011d91600160a01b9091041661011736899003890189610f7f565b90610396565b155b1561012c5750600161038b565b6101846040518061014001604052806000815260200160008152602001600081526020016000815260200160008152602001600081526020016000815260200160008152602001600081526020016000151581525090565b88516001600160a01b0316600090815260208981526040808320828d015160ff908116855290835290832054603081901c909116845260101c61ffff1690830181905290036101d757600191505061038b565b61023160405180608001604052808b604001516001600160a01b03168152602001868152602001856001600160a01b031681526020018b6020015160ff16815250898980360381019061022a9190610f7f565b8989610407565b5060808501525060608301819052604083019190915260000361025857600191505061038b565b805161026590600a611095565b60608a01518a5160405163b3596f0760e01b81526001600160a01b0391821660048201529086169063b3596f0790602401602060405180830381865afa1580156102b3573d6000803e3d6000fd5b505050506040513d601f19601f820116820180604052508101906102d791906110a1565b6102e191906110ba565b6102eb91906110d1565b60a08201819052604082015161030191906110f3565b60c0820181905260000361031957600091505061038b565b8060c0015181602001518260a0015161033291906110ba565b61033c91906110d1565b8160800151826040015161035091906110ba565b61035a91906110f3565b60e0820181905260c0820151606083015161037492610aa3565b610100909101819052670de0b6b3a7640000111590505b979650505050505050565b60006080821060405180604001604052806002815260200161373760f01b815250906103de5760405162461bcd60e51b81526004016103d5919061114c565b60405180910390fd5b506103ea8260026110ba565b6103f590600161115f565b83516001911c16151590505b92915050565b60008060008060006104b6604051806102600160405280600081526020016000815260200160008152602001600081526020016000815260200160008152602001600081526020016000815260200160008152602001600081526020016000815260200160008152602001600081526020016000815260200160001515815260200160006001600160a01b03168152602001600060ff1681526020016000151581526020016000151581525090565b88516104d5576000806000806000199550955095509550955050610a96565b600060e08201525b8a602001518160e0015110156109cc5760e08101516104fd908a90610ad4565b156109b45760e081015160009081526020889052604090205460ff600160a01b9091048116610200830181905260608d0151909116101561055e5761055960405180606001604052806024815260200161125060249139610b2f565b6109b4565b60e0810151600090815260208881526040808320546001600160a01b03166101e0850181905283528c825280832061020085015160ff16845290915290206105cb815461ffff80821692601083901c821692602081901c831692603082901c60ff169260409290921c1690565b506080860181905260c08601929092525060a08401919091526105ef90600a611095565b602083015260408c8101516101e0840151915163b3596f0760e01b81526001600160a01b03928316600482015291169063b3596f0790602401602060405180830381865afa158015610645573d6000803e3d6000fd5b505050506040513d601f19601f8201168201806040525081019061066991906110a1565b8252604080516060810190915260248082526106a491906111d8602083013960038301546501000000000090046001600160a01b0316610b75565b6106cb60405180606001604052806025815260200161127460259139836101e00151610b75565b6106ee60405180606001604052806023815260200161122d602391398351610bbe565b61071b6040518060400160405280600c81526020016b3ab9b2b91021b7b73334b39d60a11b815250610b2f565b61073a6107358360e001518c61039690919063ffffffff16565b610c03565b6107766040518060400160405280601681526020017503634b8bab4b230ba34b7b72a343932b9b437b6321d160551b8152508360c00151610bbe565b60c082015115801590610794575060e0820151610794908b90610396565b156108f0576107bf6040518060600160405280603181526020016111fc603191398360e00151610bbe565b60038101548c516040516370a0823160e01b81526001600160a01b0391821660048201526501000000000090920416906370a0823190602401602060405180830381865afa158015610815573d6000803e3d6000fd5b505050506040513d601f19601f8201168201806040525081019061083991906110a1565b6040830181905260208301518351600092610853916110ba565b61085d91906110d1565b905080836101200151610870919061115f565b61012084019081526040805180820190915260098152680102aa9a21034b99d160bd1b602082015290516108a49190610bbe565b60a08301516108b390826110ba565b8361016001516108c3919061115f565b61016084015260c08301516108d890826110ba565b8361018001516108e8919061115f565b610180840152505b60e0820151610900908b90610c44565b156109b2576004818101548d516040516370a0823160e01b81526001600160a01b039182169381019390935216906370a0823190602401602060405180830381865afa158015610954573d6000803e3d6000fd5b505050506040513d601f19601f8201168201806040525081019061097891906110a1565b60608301819052602083015183519091610991916110ba565b61099b91906110d1565b8261014001516109ab919061115f565b6101408301525b505b60e081018051906109c482611172565b9052506104dd565b6000816101200151116109e0576000610a02565b87516101208201516109f2919061115f565b816101600151610a0291906110d1565b610160820152610120810151610a19576000610a3b565b8751610120820151610a2b919061115f565b816101800151610a3b91906110d1565b6101808201528751610120820151610a6791610a569161115f565b826101400151836101800151610aa3565b610100820181905261012082015161014083015161016084015161018090940151919850965091945090925090505b9550955095509550959050565b600082600003610ab65750600019610acd565b610aca83610ac48685610c8f565b90610d09565b90505b9392505050565b60006080821060405180604001604052806002815260200161373760f01b81525090610b135760405162461bcd60e51b81526004016103d5919061114c565b50610b1f8260026110ba565b925190921c600316151592915050565b610b7281604051602401610b43919061114c565b60408051601f198184030181529190526020810180516001600160e01b031663104c13eb60e21b179052610ddf565b50565b610bba8282604051602401610b8b92919061118b565b60408051601f198184030181529190526020810180516001600160e01b031663319af33360e01b179052610ddf565b5050565b610bba8282604051602401610bd49291906111b5565b60408051601f198184030181529190526020810180516001600160e01b0316632d839cb360e21b179052610ddf565b6040518115156024820152610b729060440160408051601f198184030181529190526020810180516001600160e01b03166332458eed60e01b179052610ddf565b60006080821060405180604001604052806002815260200161373760f01b81525090610c835760405162461bcd60e51b81526004016103d5919061114c565b506103f58260026110ba565b6000821580610c9c575081155b15610ca957506000610401565b612710610cb683856110ba565b116040518060400160405280600381526020016232303160e81b81525090610cf15760405162461bcd60e51b81526004016103d5919061114c565b50612710610cff83856110ba565b610acd91906110d1565b604080518082019091526002815261035360f41b602082015260009082610d435760405162461bcd60e51b81526004016103d5919061114c565b506000610d516002846110d1565b9050670de0b6b3a7640000610d68826000196110f3565b610d7291906110d1565b84111560405180604001604052806002815260200161068760f31b81525090610dae5760405162461bcd60e51b81526004016103d5919061114c565b508281610dc3670de0b6b3a7640000876110ba565b610dcd919061115f565b610dd791906110d1565b949350505050565b80516a636f6e736f6c652e6c6f67602083016000808483855afa5050505050565b6040516080810167ffffffffffffffff81118282101715610e3157634e487b7160e01b600052604160045260246000fd5b60405290565b80356001600160a01b0381168114610e4e57600080fd5b919050565b600060208284031215610e6557600080fd5b50919050565b600060208284031215610e7d57600080fd5b6040516020810181811067ffffffffffffffff82111715610eae57634e487b7160e01b600052604160045260246000fd5b6040529135825250919050565b6000806000806000806000878903610140811215610ed857600080fd5b6080811215610ee657600080fd5b50610eef610e00565b610ef889610e37565b8152602089013560ff81168114610f0e57600080fd5b6020820152610f1f60408a01610e37565b604082015260608981013590820152965060808801359550610f448960a08a01610e53565b9450610f538960c08a01610e6b565b935060e088013592506101008801359150610f716101208901610e37565b905092959891949750929550565b600060208284031215610f9157600080fd5b610acd8383610e6b565b634e487b7160e01b600052601160045260246000fd5b600181815b80851115610fec578160001904821115610fd257610fd2610f9b565b80851615610fdf57918102915b93841c9390800290610fb6565b509250929050565b60008261100357506001610401565b8161101057506000610401565b816001811461102657600281146110305761104c565b6001915050610401565b60ff84111561104157611041610f9b565b50506001821b610401565b5060208310610133831016604e8410600b841016171561106f575081810a610401565b6110798383610fb1565b806000190482111561108d5761108d610f9b565b029392505050565b6000610acd8383610ff4565b6000602082840312156110b357600080fd5b5051919050565b808202811582820484141761040157610401610f9b565b6000826110ee57634e487b7160e01b600052601260045260246000fd5b500490565b8181038181111561040157610401610f9b565b6000815180845260005b8181101561112c57602081850181015186830182015201611110565b506000602082860101526020601f19601f83011685010191505092915050565b602081526000610acd6020830184611106565b8082018082111561040157610401610f9b565b60006001820161118457611184610f9b565b5060010190565b60408152600061119e6040830185611106565b905060018060a01b03831660208301529392505050565b6040815260006111c86040830185611106565b9050826020830152939250505056fe63616c63756c617465557365724163636f756e7444617461202d2070546f6b656e20697363616c63756c617465557365724163636f756e74446174612063616c63756c6174652061737365742025732076616c756563616c63756c617465557365724163636f756e7444617461202d205072696365206973726573657276652054696572206973206c6f776572207468616e207269736b205469657263616c63756c617465557365724163636f756e7444617461202d2072657365727665206973a2646970667358221220a80ad722af7cc0e78f39585ea0000bf243628efdf14a8e770e82ea24b65efcb564736f6c63430008110033",
  "linkReferences": {},
  "deployedLinkReferences": {}
}