{
  "_format": "hh-sol-artifact-1",
  "contractName": "CounterConfigurator",
  "sourceName": "contracts/protocol/Pool/CounterConfigurator.sol",
  "abi": [
    {
      "anonymous": false,
      "inputs": [
        {
          "indexed": true,
          "internalType": "address",
          "name": "asset",
          "type": "address"
        }
      ],
      "name": "BorrowingDisabledOnReserve",
      "type": "event"
    },
    {
      "anonymous": false,
      "inputs": [
        {
          "indexed": true,
          "internalType": "address",
          "name": "asset",
          "type": "address"
        },
        {
          "indexed": false,
          "internalType": "bool",
          "name": "stableRateEnabled",
          "type": "bool"
        }
      ],
      "name": "BorrowingEnabledOnReserve",
      "type": "event"
    },
    {
      "anonymous": false,
      "inputs": [
        {
          "indexed": true,
          "internalType": "address",
          "name": "asset",
          "type": "address"
        },
        {
          "indexed": false,
          "internalType": "uint256",
          "name": "ltv",
          "type": "uint256"
        },
        {
          "indexed": false,
          "internalType": "uint256",
          "name": "liquidationThreshold",
          "type": "uint256"
        },
        {
          "indexed": false,
          "internalType": "uint256",
          "name": "liquidationBonus",
          "type": "uint256"
        }
      ],
      "name": "CollateralConfigurationChanged",
      "type": "event"
    },
    {
      "anonymous": false,
      "inputs": [
        {
          "indexed": true,
          "internalType": "address",
          "name": "asset",
          "type": "address"
        },
        {
          "indexed": true,
          "internalType": "uint8",
          "name": "riskTier",
          "type": "uint8"
        }
      ],
      "name": "ReserveActivated",
      "type": "event"
    },
    {
      "anonymous": false,
      "inputs": [
        {
          "indexed": true,
          "internalType": "address",
          "name": "asset",
          "type": "address"
        },
        {
          "indexed": true,
          "internalType": "uint8",
          "name": "assetTier",
          "type": "uint8"
        },
        {
          "indexed": true,
          "internalType": "uint8",
          "name": "direction",
          "type": "uint8"
        },
        {
          "indexed": false,
          "internalType": "address",
          "name": "pToken",
          "type": "address"
        },
        {
          "indexed": false,
          "internalType": "address",
          "name": "variableDebtToken",
          "type": "address"
        },
        {
          "indexed": false,
          "internalType": "address",
          "name": "interestRateStrategyAddress",
          "type": "address"
        }
      ],
      "name": "ReserveClassUpdate",
      "type": "event"
    },
    {
      "anonymous": false,
      "inputs": [
        {
          "indexed": true,
          "internalType": "address",
          "name": "asset",
          "type": "address"
        },
        {
          "indexed": true,
          "internalType": "uint8",
          "name": "riskTier",
          "type": "uint8"
        }
      ],
      "name": "ReserveDeactivated",
      "type": "event"
    },
    {
      "anonymous": false,
      "inputs": [
        {
          "indexed": true,
          "internalType": "address",
          "name": "asset",
          "type": "address"
        },
        {
          "indexed": false,
          "internalType": "uint256",
          "name": "decimals",
          "type": "uint256"
        }
      ],
      "name": "ReserveDecimalsChanged",
      "type": "event"
    },
    {
      "anonymous": false,
      "inputs": [
        {
          "indexed": true,
          "internalType": "address",
          "name": "asset",
          "type": "address"
        },
        {
          "indexed": false,
          "internalType": "uint256",
          "name": "factor",
          "type": "uint256"
        }
      ],
      "name": "ReserveFactorChanged",
      "type": "event"
    },
    {
      "anonymous": false,
      "inputs": [
        {
          "indexed": true,
          "internalType": "address",
          "name": "asset",
          "type": "address"
        },
        {
          "indexed": true,
          "internalType": "uint8",
          "name": "riskTier",
          "type": "uint8"
        }
      ],
      "name": "ReserveFrozen",
      "type": "event"
    },
    {
      "anonymous": false,
      "inputs": [
        {
          "indexed": true,
          "internalType": "address",
          "name": "asset",
          "type": "address"
        },
        {
          "indexed": true,
          "internalType": "address",
          "name": "pToken",
          "type": "address"
        },
        {
          "indexed": false,
          "internalType": "address",
          "name": "variableDebtToken",
          "type": "address"
        },
        {
          "indexed": false,
          "internalType": "address",
          "name": "interestRateStrategyAddress",
          "type": "address"
        }
      ],
      "name": "ReserveInitialized",
      "type": "event"
    },
    {
      "anonymous": false,
      "inputs": [
        {
          "indexed": true,
          "internalType": "address",
          "name": "asset",
          "type": "address"
        },
        {
          "indexed": false,
          "internalType": "address",
          "name": "strategy",
          "type": "address"
        }
      ],
      "name": "ReserveInterestRateStrategyChanged",
      "type": "event"
    },
    {
      "anonymous": false,
      "inputs": [
        {
          "indexed": true,
          "internalType": "address",
          "name": "asset",
          "type": "address"
        },
        {
          "indexed": true,
          "internalType": "uint8",
          "name": "riskTier",
          "type": "uint8"
        }
      ],
      "name": "ReserveUnfrozen",
      "type": "event"
    },
    {
      "anonymous": false,
      "inputs": [
        {
          "indexed": true,
          "internalType": "address",
          "name": "asset",
          "type": "address"
        },
        {
          "indexed": true,
          "internalType": "address",
          "name": "proxy",
          "type": "address"
        },
        {
          "indexed": true,
          "internalType": "address",
          "name": "implementation",
          "type": "address"
        }
      ],
      "name": "VariableDebtTokenUpgraded",
      "type": "event"
    },
    {
      "inputs": [
        {
          "internalType": "address",
          "name": "asset",
          "type": "address"
        },
        {
          "internalType": "uint8",
          "name": "riskTier",
          "type": "uint8"
        }
      ],
      "name": "activateReserve",
      "outputs": [],
      "stateMutability": "nonpayable",
      "type": "function"
    },
    {
      "inputs": [
        {
          "internalType": "address",
          "name": "asset",
          "type": "address"
        },
        {
          "internalType": "uint8",
          "name": "riskTier",
          "type": "uint8"
        },
        {
          "internalType": "uint256",
          "name": "ltv",
          "type": "uint256"
        },
        {
          "internalType": "uint256",
          "name": "liquidationThreshold",
          "type": "uint256"
        },
        {
          "internalType": "uint256",
          "name": "liquidationBonus",
          "type": "uint256"
        }
      ],
      "name": "configureReserveAsCollateral",
      "outputs": [],
      "stateMutability": "nonpayable",
      "type": "function"
    },
    {
      "inputs": [
        {
          "internalType": "address",
          "name": "asset",
          "type": "address"
        },
        {
          "internalType": "uint8",
          "name": "riskTier",
          "type": "uint8"
        }
      ],
      "name": "deactivateReserve",
      "outputs": [],
      "stateMutability": "nonpayable",
      "type": "function"
    },
    {
      "inputs": [
        {
          "internalType": "address",
          "name": "asset",
          "type": "address"
        }
      ],
      "name": "degradeAssetClass",
      "outputs": [],
      "stateMutability": "nonpayable",
      "type": "function"
    },
    {
      "inputs": [
        {
          "internalType": "address",
          "name": "asset",
          "type": "address"
        },
        {
          "internalType": "uint8",
          "name": "riskTier",
          "type": "uint8"
        }
      ],
      "name": "disableBorrowingOnReserve",
      "outputs": [],
      "stateMutability": "nonpayable",
      "type": "function"
    },
    {
      "inputs": [
        {
          "internalType": "address",
          "name": "asset",
          "type": "address"
        },
        {
          "internalType": "uint8",
          "name": "riskTier",
          "type": "uint8"
        },
        {
          "internalType": "bool",
          "name": "stableBorrowRateEnabled",
          "type": "bool"
        }
      ],
      "name": "enableBorrowingOnReserve",
      "outputs": [],
      "stateMutability": "nonpayable",
      "type": "function"
    },
    {
      "inputs": [
        {
          "internalType": "address",
          "name": "asset",
          "type": "address"
        },
        {
          "internalType": "uint8",
          "name": "riskTier",
          "type": "uint8"
        }
      ],
      "name": "freezeReserve",
      "outputs": [],
      "stateMutability": "nonpayable",
      "type": "function"
    },
    {
      "inputs": [
        {
          "components": [
            {
              "internalType": "address",
              "name": "pToken",
              "type": "address"
            },
            {
              "internalType": "address",
              "name": "variableDebtToken",
              "type": "address"
            },
            {
              "internalType": "address",
              "name": "interestRateStrategyAddress",
              "type": "address"
            },
            {
              "internalType": "address",
              "name": "underlyingAsset",
              "type": "address"
            },
            {
              "internalType": "address",
              "name": "treasury",
              "type": "address"
            },
            {
              "internalType": "address",
              "name": "incentivesController",
              "type": "address"
            },
            {
              "internalType": "string",
              "name": "underlyingAssetName",
              "type": "string"
            },
            {
              "internalType": "string",
              "name": "pTokenName",
              "type": "string"
            },
            {
              "internalType": "string",
              "name": "pTokenSymbol",
              "type": "string"
            },
            {
              "internalType": "string",
              "name": "variableDebtTokenName",
              "type": "string"
            },
            {
              "internalType": "string",
              "name": "variableDebtTokenSymbol",
              "type": "string"
            },
            {
              "internalType": "uint8",
              "name": "assetRiskTier",
              "type": "uint8"
            },
            {
              "internalType": "uint8",
              "name": "underlyingAssetDecimals",
              "type": "uint8"
            },
            {
              "internalType": "bytes",
              "name": "params",
              "type": "bytes"
            }
          ],
          "internalType": "struct ICounterConfigurator.InitReserveInput",
          "name": "input",
          "type": "tuple"
        }
      ],
      "name": "initReserve",
      "outputs": [],
      "stateMutability": "nonpayable",
      "type": "function"
    },
    {
      "inputs": [
        {
          "internalType": "contract ICounterAddressesProvider",
          "name": "provider",
          "type": "address"
        }
      ],
      "name": "initialize",
      "outputs": [],
      "stateMutability": "nonpayable",
      "type": "function"
    },
    {
      "inputs": [
        {
          "internalType": "address",
          "name": "crt",
          "type": "address"
        }
      ],
      "name": "setCRT",
      "outputs": [],
      "stateMutability": "nonpayable",
      "type": "function"
    },
    {
      "inputs": [
        {
          "internalType": "bool",
          "name": "val",
          "type": "bool"
        }
      ],
      "name": "setPoolPause",
      "outputs": [],
      "stateMutability": "nonpayable",
      "type": "function"
    },
    {
      "inputs": [
        {
          "internalType": "address",
          "name": "asset",
          "type": "address"
        },
        {
          "internalType": "uint8",
          "name": "riskTier",
          "type": "uint8"
        },
        {
          "internalType": "uint256",
          "name": "reserveFactor",
          "type": "uint256"
        }
      ],
      "name": "setReserveFactor",
      "outputs": [],
      "stateMutability": "nonpayable",
      "type": "function"
    },
    {
      "inputs": [
        {
          "internalType": "address",
          "name": "asset",
          "type": "address"
        },
        {
          "internalType": "uint8",
          "name": "riskTier",
          "type": "uint8"
        },
        {
          "internalType": "address",
          "name": "rateStrategyAddress",
          "type": "address"
        }
      ],
      "name": "setReserveInterestRateStrategyAddress",
      "outputs": [],
      "stateMutability": "nonpayable",
      "type": "function"
    },
    {
      "inputs": [
        {
          "internalType": "address",
          "name": "asset",
          "type": "address"
        },
        {
          "internalType": "uint8",
          "name": "riskTier",
          "type": "uint8"
        }
      ],
      "name": "unfreezeReserve",
      "outputs": [],
      "stateMutability": "nonpayable",
      "type": "function"
    },
    {
      "inputs": [
        {
          "components": [
            {
              "internalType": "address",
              "name": "pToken",
              "type": "address"
            },
            {
              "internalType": "address",
              "name": "variableDebtToken",
              "type": "address"
            },
            {
              "internalType": "address",
              "name": "interestRateStrategyAddress",
              "type": "address"
            },
            {
              "internalType": "address",
              "name": "underlyingAsset",
              "type": "address"
            },
            {
              "internalType": "address",
              "name": "treasury",
              "type": "address"
            },
            {
              "internalType": "address",
              "name": "incentivesController",
              "type": "address"
            },
            {
              "internalType": "string",
              "name": "underlyingAssetName",
              "type": "string"
            },
            {
              "internalType": "string",
              "name": "pTokenName",
              "type": "string"
            },
            {
              "internalType": "string",
              "name": "pTokenSymbol",
              "type": "string"
            },
            {
              "internalType": "string",
              "name": "variableDebtTokenName",
              "type": "string"
            },
            {
              "internalType": "string",
              "name": "variableDebtTokenSymbol",
              "type": "string"
            },
            {
              "internalType": "uint8",
              "name": "assetRiskTier",
              "type": "uint8"
            },
            {
              "internalType": "uint8",
              "name": "underlyingAssetDecimals",
              "type": "uint8"
            },
            {
              "internalType": "bytes",
              "name": "params",
              "type": "bytes"
            }
          ],
          "internalType": "struct ICounterConfigurator.InitReserveInput",
          "name": "input",
          "type": "tuple"
        }
      ],
      "name": "upgradeAssetClass",
      "outputs": [],
      "stateMutability": "nonpayable",
      "type": "function"
    }
  ],
  "bytecode": "0x608060405234801561001057600080fd5b50612f1e806100206000396000f3fe608060405234801561001057600080fd5b50600436106100f45760003560e01c80639007993d11610097578063c4d66de811610066578063c4d66de8146101cc578063d276b658146101df578063de14ae28146101f2578063f44f16751461020557600080fd5b80639007993d14610180578063927be5c914610193578063c0ee0df2146101a6578063c325c01b146101b957600080fd5b80635e1833fc116100d35780635e1833fc146101345780637641f3d91461014757806380e90f591461015a57806382889e121461016d57600080fd5b8062ed10a5146100f9578063254fdaea1461010e5780633683b8d614610121575b600080fd5b61010c610107366004612852565b610218565b005b61010c61011c366004612885565b6103b0565b61010c61012f3660046128c6565b61058f565b61010c610142366004612852565b61076e565b61010c610155366004612914565b6109eb565b61010c61016836600461292f565b610b22565b61010c61017b36600461296b565b610e6b565b61010c61018e3660046129b2565b611049565b61010c6101a13660046128c6565b611405565b61010c6101b436600461292f565b6115da565b61010c6101c73660046128c6565b6119e7565b61010c6101da366004612852565b611bbc565b61010c6101ed3660046128c6565b611c6f565b61010c610200366004612a03565b611e44565b61010c6102133660046128c6565b611faa565b60005460408051636ee554f560e11b8152905161028c926001600160a01b03169163ddcaa9ea9160048083019260209291908290030181865afa158015610263573d6000803e3d6000fd5b505050506040513d601f19601f820116820180604052508101906102879190612a59565b61217a565b6102953361217a565b60005460408051636ee554f560e11b8152905133926001600160a01b03169163ddcaa9ea9160048083019260209291908290030181865afa1580156102de573d6000803e3d6000fd5b505050506040513d601f19601f820116820180604052508101906103029190612a59565b6001600160a01b031614604051806040016040528060028152602001611b9b60f11b8152509061034e5760405162461bcd60e51b81526004016103459190612abc565b60405180910390fd5b5060015460405162ed10a560e01b81526001600160a01b0383811660048301529091169062ed10a5906024015b600060405180830381600087803b15801561039557600080fd5b505af11580156103a9573d6000803e3d6000fd5b5050505050565b600054604080516315d9b46f60e31b8152905133926001600160a01b03169163aecda3789160048083019260209291908290030181865afa1580156103f9573d6000803e3d6000fd5b505050506040513d601f19601f8201168201806040525081019061041d9190612a59565b6001600160a01b03161460405180604001604052806002815260200161333360f01b815250906104605760405162461bcd60e51b81526004016103459190612abc565b506001546040516239142360e81b81526000916001600160a01b0316906339142300906104939087908790600401612acf565b602060405180830381865afa1580156104b0573d6000803e3d6000fd5b505050506040513d601f19601f820116820180604052508101906104d49190612b73565b90506104e081836121c5565b600154815160405163789bb8ed60e11b81526001600160a01b039092169163f13771da916105149188918891600401612b8f565b600060405180830381600087803b15801561052e57600080fd5b505af1158015610542573d6000803e3d6000fd5b50505050836001600160a01b03167f2694ccb0b585b6a54b8d8b4a47aa874b05c257b43d34e98aee50838be00d34058360405161058191815260200190565b60405180910390a250505050565b600054604080516315d9b46f60e31b8152905133926001600160a01b03169163aecda3789160048083019260209291908290030181865afa1580156105d8573d6000803e3d6000fd5b505050506040513d601f19601f820116820180604052508101906105fc9190612a59565b6001600160a01b03161460405180604001604052806002815260200161333360f01b8152509061063f5760405162461bcd60e51b81526004016103459190612abc565b5061064a828261221c565b6001546040516239142360e81b81526000916001600160a01b03169063391423009061067c9086908690600401612acf565b602060405180830381865afa158015610699573d6000803e3d6000fd5b505050506040513d601f19601f820116820180604052508101906106bd9190612b73565b90506106ca81600061235b565b600154815160405163789bb8ed60e11b81526001600160a01b039092169163f13771da916106fe9187918791600401612b8f565b600060405180830381600087803b15801561071857600080fd5b505af115801561072c573d6000803e3d6000fd5b505060405160ff851692506001600160a01b03861691507f4ed5bcd018f362a4bab3e8b2c269a5e66542356b8b7051d57900bb3ff46e6e7790600090a3505050565b600054604080516315d9b46f60e31b8152905133926001600160a01b03169163aecda3789160048083019260209291908290030181865afa1580156107b7573d6000803e3d6000fd5b505050506040513d601f19601f820116820180604052508101906107db9190612a59565b6001600160a01b03161460405180604001604052806002815260200161333360f01b8152509061081e5760405162461bcd60e51b81526004016103459190612abc565b506001546040516317860cff60e21b81526001600160a01b038381166004830152909116908190635e1833fc90602401600060405180830381600087803b15801561086857600080fd5b505af115801561087c573d6000803e3d6000fd5b5050600154604051635b7d6a3b60e01b81526001600160a01b038681166004830152600094509091169150635b7d6a3b906024016020604051808303816000875af11580156108cf573d6000803e3d6000fd5b505050506040513d601f19601f820116820180604052508101906108f39190612bbe565b600154604051633629e3cd60e01b81529192506000916001600160a01b0390911690633629e3cd9061092b9087908690600401612acf565b61014060405180830381865afa158015610949573d6000803e3d6000fd5b505050506040513d601f19601f8201168201806040525081019061096d9190612c07565b905060008260ff16856001600160a01b03167f9022f60b0fe4489c7ac9f77d79ea06df1c8ac52720b607f80df31281e81a4d778460c001518560e001518661010001516040516109dd939291906001600160a01b0393841681529183166020830152909116604082015260600190565b60405180910390a450505050565b60005460408051636ee554f560e11b81529051610a36926001600160a01b03169163ddcaa9ea9160048083019260209291908290030181865afa158015610263573d6000803e3d6000fd5b610a3f3361217a565b60005460408051636ee554f560e11b8152905133926001600160a01b03169163ddcaa9ea9160048083019260209291908290030181865afa158015610a88573d6000803e3d6000fd5b505050506040513d601f19601f82011682018060405250810190610aac9190612a59565b6001600160a01b031614604051806040016040528060028152602001611b9b60f11b81525090610aef5760405162461bcd60e51b81526004016103459190612abc565b5060015460405163bedb86fb60e01b815282151560048201526001600160a01b039091169063bedb86fb9060240161037b565b6001546001600160a01b03811690600160a01b900460ff16610b4c61018084016101608501612cd0565b60ff1614610b9c5760405162461bcd60e51b815260206004820152601f60248201527f496e6974205265736572766520696e2077726f6e67207269736b2054696572006044820152606401610345565b610ba68183612389565b6001546001600160a01b0316635dd9a189610bc76080850160608601612852565b610bd961018086016101608701612cd0565b610be66020870187612852565b610bf66040880160208901612852565b610c066060890160408a01612852565b6040516001600160e01b031960e088901b1681526001600160a01b03958616600482015260ff909416602485015291841660448401528316606483015291909116608482015260a401600060405180830381600087803b158015610c6957600080fd5b505af1158015610c7d573d6000803e3d6000fd5b5050600154600092506001600160a01b031690506339142300610ca66080860160608701612852565b60015460405160e084901b6001600160e01b0319168152610cd59291600160a01b900460ff1690600401612acf565b602060405180830381865afa158015610cf2573d6000803e3d6000fd5b505050506040513d601f19601f82011682018060405250810190610d169190612b73565b9050610d37610d2d6101a085016101808601612cd0565b829060ff16612543565b610d4281600161235b565b610d4d816000612596565b6001546001600160a01b031663f13771da610d6e6080860160608701612852565b600154845160405160e085901b6001600160e01b0319168152610da09392600160a01b900460ff169190600401612b8f565b600060405180830381600087803b158015610dba57600080fd5b505af1158015610dce573d6000803e3d6000fd5b50610de0925050506020840184612852565b6001600160a01b0316610df96080850160608601612852565b6001600160a01b03167f2a069b08eadd1ba3aeb05729cf22947a941b9f400cfc778be430b52a94637282610e336040870160208801612852565b610e436060880160408901612852565b604080516001600160a01b0393841681529290911660208301520160405180910390a3505050565b600054604080516315d9b46f60e31b8152905133926001600160a01b03169163aecda3789160048083019260209291908290030181865afa158015610eb4573d6000803e3d6000fd5b505050506040513d601f19601f82011682018060405250810190610ed89190612a59565b6001600160a01b03161460405180604001604052806002815260200161333360f01b81525090610f1b5760405162461bcd60e51b81526004016103459190612abc565b506001546040516239142360e81b81526000916001600160a01b031690633914230090610f4e9087908790600401612acf565b602060405180830381865afa158015610f6b573d6000803e3d6000fd5b505050506040513d601f19601f82011682018060405250810190610f8f9190612b73565b9050610f9c8160016125c4565b610fa681836125f2565b600154815160405163789bb8ed60e11b81526001600160a01b039092169163f13771da91610fda9188918891600401612b8f565b600060405180830381600087803b158015610ff457600080fd5b505af1158015611008573d6000803e3d6000fd5b50505050836001600160a01b03167fab2f7f9e5ca2772fafa94f355c1842a80ae6b9e41f83083098d81f67d7a0b50883604051610581911515815260200190565b600054604080516315d9b46f60e31b8152905133926001600160a01b03169163aecda3789160048083019260209291908290030181865afa158015611092573d6000803e3d6000fd5b505050506040513d601f19601f820116820180604052508101906110b69190612a59565b6001600160a01b03161460405180604001604052806002815260200161333360f01b815250906110f95760405162461bcd60e51b81526004016103459190612abc565b506111386040518060400160405280601c81526020017f636f6e666967757265526573657276654173436f6c6c61746572616c00000000815250612620565b6001546040516239142360e81b81526000916001600160a01b03169063391423009061116a9089908990600401612acf565b602060405180830381865afa158015611187573d6000803e3d6000fd5b505050506040513d601f19601f820116820180604052508101906111ab9190612b73565b90506111d86040518060400160405280600981526020016830b9b9b2ba1034b99d60b91b81525087612663565b8051670100000000000000161515604051806040016040528060018152602001601960f91b8152509061121e5760405162461bcd60e51b81526004016103459190612abc565b50604080518082019091526002815261373560f01b6020820152838511156112595760405162461bcd60e51b81526004016103459190612abc565b5082156112ea57604080518082019091526002815261373560f01b6020820152612710831161129b5760405162461bcd60e51b81526004016103459190612abc565b506127106112a984846126ac565b111560405180604001604052806002815260200161373560f01b815250906112e45760405162461bcd60e51b81526004016103459190612abc565b5061132d565b604080518082019091526002815261373560f01b602082015282156113225760405162461bcd60e51b81526004016103459190612abc565b5061132d868661221c565b611337818561272f565b6113418184612778565b61134b81836127c9565b600154815160405163789bb8ed60e11b81526001600160a01b039092169163f13771da9161137f918a918a91600401612b8f565b600060405180830381600087803b15801561139957600080fd5b505af11580156113ad573d6000803e3d6000fd5b505060408051878152602081018790529081018590526001600160a01b03891692507f637febbda9275aea2e85c0ff690444c8d87eb2e8339bbede9715abcc89cb0995915060600160405180910390a2505050505050565b600054604080516315d9b46f60e31b8152905133926001600160a01b03169163aecda3789160048083019260209291908290030181865afa15801561144e573d6000803e3d6000fd5b505050506040513d601f19601f820116820180604052508101906114729190612a59565b6001600160a01b03161460405180604001604052806002815260200161333360f01b815250906114b55760405162461bcd60e51b81526004016103459190612abc565b506001546040516239142360e81b81526000916001600160a01b0316906339142300906114e89086908690600401612acf565b602060405180830381865afa158015611505573d6000803e3d6000fd5b505050506040513d601f19601f820116820180604052508101906115299190612b73565b9050611536816000612596565b600154815160405163789bb8ed60e11b81526001600160a01b039092169163f13771da9161156a9187918791600401612b8f565b600060405180830381600087803b15801561158457600080fd5b505af1158015611598573d6000803e3d6000fd5b505060405160ff851692506001600160a01b03861691507f69469e052f48e5d4178891180a43ceafcfd833b4e3eb479ce059e2699bcf532f90600090a3505050565b600054604080516315d9b46f60e31b8152905133926001600160a01b03169163aecda3789160048083019260209291908290030181865afa158015611623573d6000803e3d6000fd5b505050506040513d601f19601f820116820180604052508101906116479190612a59565b6001600160a01b03161460405180604001604052806002815260200161333360f01b8152509061168a5760405162461bcd60e51b81526004016103459190612abc565b506116c0604051806040016040528060148152602001733ab833b930b232a0b9b9b2ba21b630b9b997171760611b815250612620565b6001546001600160a01b03166116d68183612389565b6001546001600160a01b031663b93c8e6d6116f76080850160608601612852565b6117046020860186612852565b6117146040870160208801612852565b6117246060880160408901612852565b60405160e086901b6001600160e01b03191681526001600160a01b039485166004820152928416602484015290831660448301529091166064820152608401600060405180830381600087803b15801561177d57600080fd5b505af1158015611791573d6000803e3d6000fd5b5050600154600092506001600160a01b03169050635b7d6a3b6117ba6080860160608701612852565b6040516001600160e01b031960e084901b1681526001600160a01b0390911660048201526024016020604051808303816000875af1158015611800573d6000803e3d6000fd5b505050506040513d601f19601f820116820180604052508101906118249190612bbe565b6001549091506000906001600160a01b0316633914230061184b6080870160608801612852565b846040518363ffffffff1660e01b8152600401611869929190612acf565b602060405180830381865afa158015611886573d6000803e3d6000fd5b505050506040513d601f19601f820116820180604052508101906118aa9190612b73565b90506118c1610d2d6101a086016101808701612cd0565b6118cc81600161235b565b6118d7816000612596565b6001546001600160a01b031663f13771da6118f86080870160608801612852565b83516040516001600160e01b031960e085901b16815261191d92918791600401612b8f565b600060405180830381600087803b15801561193757600080fd5b505af115801561194b573d6000803e3d6000fd5b5060019250505060ff83166119666080870160608801612852565b6001600160a01b03167f9022f60b0fe4489c7ac9f77d79ea06df1c8ac52720b607f80df31281e81a4d7761199d6020890189612852565b6119ad60408a0160208b01612852565b6119bd60608b0160408c01612852565b604080516001600160a01b03948516815292841660208401529216918101919091526060016109dd565b600054604080516315d9b46f60e31b8152905133926001600160a01b03169163aecda3789160048083019260209291908290030181865afa158015611a30573d6000803e3d6000fd5b505050506040513d601f19601f82011682018060405250810190611a549190612a59565b6001600160a01b03161460405180604001604052806002815260200161333360f01b81525090611a975760405162461bcd60e51b81526004016103459190612abc565b506001546040516239142360e81b81526000916001600160a01b031690633914230090611aca9086908690600401612acf565b602060405180830381865afa158015611ae7573d6000803e3d6000fd5b505050506040513d601f19601f82011682018060405250810190611b0b9190612b73565b9050611b1881600161235b565b600154815160405163789bb8ed60e11b81526001600160a01b039092169163f13771da91611b4c9187918791600401612b8f565b600060405180830381600087803b158015611b6657600080fd5b505af1158015611b7a573d6000803e3d6000fd5b505060405160ff851692506001600160a01b03861691507f0c3af60d0a6088d9d72b96ec2e54c8fea62294e60ad9a0afae7c7dbf09fe42b790600090a3505050565b600080546001600160a01b0319166001600160a01b0383169081179091556001805460ff60a01b1916600160a11b1790556040805163456d033760e11b81529051638ada066e916004808201926020929091908290030181865afa158015611c28573d6000803e3d6000fd5b505050506040513d601f19601f82011682018060405250810190611c4c9190612a59565b600180546001600160a01b0319166001600160a01b039290921691909117905550565b600054604080516315d9b46f60e31b8152905133926001600160a01b03169163aecda3789160048083019260209291908290030181865afa158015611cb8573d6000803e3d6000fd5b505050506040513d601f19601f82011682018060405250810190611cdc9190612a59565b6001600160a01b03161460405180604001604052806002815260200161333360f01b81525090611d1f5760405162461bcd60e51b81526004016103459190612abc565b506001546040516239142360e81b81526000916001600160a01b031690633914230090611d529086908690600401612acf565b602060405180830381865afa158015611d6f573d6000803e3d6000fd5b505050506040513d601f19601f82011682018060405250810190611d939190612b73565b9050611da0816001612596565b600154815160405163789bb8ed60e11b81526001600160a01b039092169163f13771da91611dd49187918791600401612b8f565b600060405180830381600087803b158015611dee57600080fd5b505af1158015611e02573d6000803e3d6000fd5b505060405160ff851692506001600160a01b03861691507f984d715624f0a5e53759dd0a0eb79d9e1ca56e413886e3bc9f810c6a86008ffa90600090a3505050565b600054604080516315d9b46f60e31b8152905133926001600160a01b03169163aecda3789160048083019260209291908290030181865afa158015611e8d573d6000803e3d6000fd5b505050506040513d601f19601f82011682018060405250810190611eb19190612a59565b6001600160a01b03161460405180604001604052806002815260200161333360f01b81525090611ef45760405162461bcd60e51b81526004016103459190612abc565b50600154604051631bc295c560e31b81526001600160a01b03858116600483015260ff8516602483015283811660448301529091169063de14ae2890606401600060405180830381600087803b158015611f4d57600080fd5b505af1158015611f61573d6000803e3d6000fd5b50506040516001600160a01b038481168252861692507f5644b64ebb0ce18c4032248ca52f58355469092ff072866c3dcd8640e817d6a5915060200160405180910390a2505050565b600054604080516315d9b46f60e31b8152905133926001600160a01b03169163aecda3789160048083019260209291908290030181865afa158015611ff3573d6000803e3d6000fd5b505050506040513d601f19601f820116820180604052508101906120179190612a59565b6001600160a01b03161460405180604001604052806002815260200161333360f01b8152509061205a5760405162461bcd60e51b81526004016103459190612abc565b506001546040516239142360e81b81526000916001600160a01b03169063391423009061208d9086908690600401612acf565b602060405180830381865afa1580156120aa573d6000803e3d6000fd5b505050506040513d601f19601f820116820180604052508101906120ce9190612b73565b90506120db8160006125c4565b600154815160405163789bb8ed60e11b81526001600160a01b039092169163f13771da9161210f9187918791600401612b8f565b600060405180830381600087803b15801561212957600080fd5b505af115801561213d573d6000803e3d6000fd5b50506040516001600160a01b03861692507fe9a7e5fd4fc8ea18e602350324bf48e8f05d12434af0ce0be05743e6a5fdcb9e9150600090a2505050565b6040516001600160a01b03821660248201526121c29060440160408051601f198184030181529190526020810180516001600160e01b031663161765e160e11b17905261281c565b50565b604080518082019091526002815261373160f01b602082015261ffff8211156122015760405162461bcd60e51b81526004016103459190612abc565b50815169ffff0000000000000000191660409190911b179052565b600154604051633629e3cd60e01b81526000916001600160a01b031690633629e3cd9061224f9086908690600401612acf565b61014060405180830381865afa15801561226d573d6000803e3d6000fd5b505050506040513d601f19601f820116820180604052508101906122919190612c07565b60c08101516040516370a0823160e01b81526001600160a01b039182166004820152919250600091908516906370a0823190602401602060405180830381865afa1580156122e3573d6000803e3d6000fd5b505050506040513d601f19601f820116820180604052508101906123079190612ced565b905080158015612322575060608201516001600160801b0316155b604051806040016040528060028152602001610ccd60f21b815250906103a95760405162461bcd60e51b81526004016103459190612abc565b60388161236957600061236c565b60015b8351670100000000000000191660ff9190911690911b1790915250565b6123966020820182612852565b6001600160a01b03166386f18e93836123b560a0850160808601612852565b6123c56080860160608701612852565b6123d761018087016101608801612cd0565b6123e96101a088016101808901612cd0565b6123f660e0890189612d06565b6124046101008b018b612d06565b6124126101a08d018d612d06565b6040518c63ffffffff1660e01b81526004016124389b9a99989796959493929190612d7d565b600060405180830381600087803b15801561245257600080fd5b505af1158015612466573d6000803e3d6000fd5b5061247b925050506040820160208301612852565b6001600160a01b0316636d294f188361249a6080850160608601612852565b6124ac61018086016101608701612cd0565b6124be6101a087016101808801612cd0565b6124cc610120880188612d06565b6124da6101408a018a612d06565b6124e86101a08c018c612d06565b6040518b63ffffffff1660e01b815260040161250d9a99989796959493929190612e00565b600060405180830381600087803b15801561252757600080fd5b505af115801561253b573d6000803e3d6000fd5b505050505050565b604080518082019091526002815261037360f41b602082015260ff82111561257e5760405162461bcd60e51b81526004016103459190612abc565b50815166ff000000000000191660309190911b179052565b6039816125a45760006125a7565b60015b8351670200000000000000191660ff9190911690911b1790915250565b603a816125d25760006125d5565b60015b8351670400000000000000191660ff9190911690911b1790915250565b603b81612600576000612603565b60015b8351670800000000000000191660ff9190911690911b1790915250565b6121c2816040516024016126349190612abc565b60408051601f198184030181529190526020810180516001600160e01b031663104c13eb60e21b17905261281c565b6126a88282604051602401612679929190612e77565b60408051601f198184030181529190526020810180516001600160e01b031663319af33360e01b17905261281c565b5050565b60008215806126b9575081155b156126c657506000612729565b6127106126d38385612ea1565b116040518060400160405280600381526020016232303160e81b8152509061270e5760405162461bcd60e51b81526004016103459190612abc565b5061271061271c8385612ea1565b6127269190612ec6565b90505b92915050565b604080518082019091526002815261363760f01b602082015261ffff82111561276b5760405162461bcd60e51b81526004016103459190612abc565b50815161ffff1916179052565b60408051808201909152600281526106c760f31b602082015261ffff8211156127b45760405162461bcd60e51b81526004016103459190612abc565b50815163ffff0000191660109190911b179052565b604080518082019091526002815261363960f01b602082015261ffff8211156128055760405162461bcd60e51b81526004016103459190612abc565b50815165ffff00000000191660209190911b179052565b80516a636f6e736f6c652e6c6f67602083016000808483855afa5050505050565b6001600160a01b03811681146121c257600080fd5b60006020828403121561286457600080fd5b813561286f8161283d565b9392505050565b60ff811681146121c257600080fd5b60008060006060848603121561289a57600080fd5b83356128a58161283d565b925060208401356128b581612876565b929592945050506040919091013590565b600080604083850312156128d957600080fd5b82356128e48161283d565b915060208301356128f481612876565b809150509250929050565b8035801515811461290f57600080fd5b919050565b60006020828403121561292657600080fd5b612726826128ff565b60006020828403121561294157600080fd5b813567ffffffffffffffff81111561295857600080fd5b82016101c0818503121561286f57600080fd5b60008060006060848603121561298057600080fd5b833561298b8161283d565b9250602084013561299b81612876565b91506129a9604085016128ff565b90509250925092565b600080600080600060a086880312156129ca57600080fd5b85356129d58161283d565b945060208601356129e581612876565b94979496505050506040830135926060810135926080909101359150565b600080600060608486031215612a1857600080fd5b8335612a238161283d565b92506020840135612a3381612876565b91506040840135612a438161283d565b809150509250925092565b805161290f8161283d565b600060208284031215612a6b57600080fd5b815161286f8161283d565b6000815180845260005b81811015612a9c57602081850181015186830182015201612a80565b506000602082860101526020601f19601f83011685010191505092915050565b6020815260006127266020830184612a76565b6001600160a01b0392909216825260ff16602082015260400190565b604051610140810167ffffffffffffffff81118282101715612b1d57634e487b7160e01b600052604160045260246000fd5b60405290565b600060208284031215612b3557600080fd5b6040516020810181811067ffffffffffffffff82111715612b6657634e487b7160e01b600052604160045260246000fd5b6040529151825250919050565b600060208284031215612b8557600080fd5b6127268383612b23565b6001600160a01b0393909316835260ff919091166020830152604082015260600190565b805161290f81612876565b600060208284031215612bd057600080fd5b815161286f81612876565b80516001600160801b038116811461290f57600080fd5b805164ffffffffff8116811461290f57600080fd5b60006101408284031215612c1a57600080fd5b612c22612aeb565b612c2c8484612b23565b8152612c3a60208401612bdb565b6020820152612c4b60408401612bdb565b6040820152612c5c60608401612bdb565b6060820152612c6d60808401612bdb565b6080820152612c7e60a08401612bf2565b60a0820152612c8f60c08401612a4e565b60c0820152612ca060e08401612a4e565b60e0820152610100612cb3818501612a4e565b90820152610120612cc5848201612bb3565b908201529392505050565b600060208284031215612ce257600080fd5b813561286f81612876565b600060208284031215612cff57600080fd5b5051919050565b6000808335601e19843603018112612d1d57600080fd5b83018035915067ffffffffffffffff821115612d3857600080fd5b602001915036819003821315612d4d57600080fd5b9250929050565b81835281816020850137506000828201602090810191909152601f909101601f19169091010190565b6001600160a01b038c811682528b811660208301528a16604082015260ff89811660608301528816608082015261010060a08201819052600090612dc4838201898b612d54565b905082810360c0840152612dd9818789612d54565b905082810360e0840152612dee818587612d54565b9e9d5050505050505050505050505050565b6001600160a01b038b811682528a16602082015260ff89811660408301528816606082015260e060808201819052600090612e3e908301888a612d54565b82810360a0840152612e51818789612d54565b905082810360c0840152612e66818587612d54565b9d9c50505050505050505050505050565b604081526000612e8a6040830185612a76565b905060018060a01b03831660208301529392505050565b808202811582820484141761272957634e487b7160e01b600052601160045260246000fd5b600082612ee357634e487b7160e01b600052601260045260246000fd5b50049056fea26469706673582212208fa356ab556f0dd98d60156b858d01b4363856aee7ac5dab134364700b9795e264736f6c63430008110033",
  "linkReferences": {},
  "deployedLinkReferences": {}
}