{
  "_format": "hh-sol-artifact-1",
  "contractName": "VariableDebtToken",
  "sourceName": "contracts/protocol/tokenization/VariableDebtToken.sol",
  "abi": [
    {
      "anonymous": false,
      "inputs": [
        {
          "indexed": true,
          "internalType": "address",
          "name": "owner",
          "type": "address"
        },
        {
          "indexed": true,
          "internalType": "address",
          "name": "spender",
          "type": "address"
        },
        {
          "indexed": false,
          "internalType": "uint256",
          "name": "value",
          "type": "uint256"
        }
      ],
      "name": "Approval",
      "type": "event"
    },
    {
      "anonymous": false,
      "inputs": [
        {
          "indexed": true,
          "internalType": "address",
          "name": "fromUser",
          "type": "address"
        },
        {
          "indexed": true,
          "internalType": "address",
          "name": "toUser",
          "type": "address"
        },
        {
          "indexed": false,
          "internalType": "address",
          "name": "asset",
          "type": "address"
        },
        {
          "indexed": false,
          "internalType": "uint256",
          "name": "amount",
          "type": "uint256"
        }
      ],
      "name": "BorrowAllowanceDelegated",
      "type": "event"
    },
    {
      "anonymous": false,
      "inputs": [
        {
          "indexed": true,
          "internalType": "address",
          "name": "user",
          "type": "address"
        },
        {
          "indexed": false,
          "internalType": "uint256",
          "name": "amount",
          "type": "uint256"
        },
        {
          "indexed": false,
          "internalType": "uint256",
          "name": "index",
          "type": "uint256"
        }
      ],
      "name": "Burn",
      "type": "event"
    },
    {
      "anonymous": false,
      "inputs": [
        {
          "indexed": true,
          "internalType": "address",
          "name": "from",
          "type": "address"
        },
        {
          "indexed": true,
          "internalType": "address",
          "name": "onBehalfOf",
          "type": "address"
        },
        {
          "indexed": false,
          "internalType": "uint256",
          "name": "value",
          "type": "uint256"
        },
        {
          "indexed": false,
          "internalType": "uint256",
          "name": "index",
          "type": "uint256"
        }
      ],
      "name": "Mint",
      "type": "event"
    },
    {
      "anonymous": false,
      "inputs": [
        {
          "indexed": true,
          "internalType": "address",
          "name": "from",
          "type": "address"
        },
        {
          "indexed": true,
          "internalType": "address",
          "name": "to",
          "type": "address"
        },
        {
          "indexed": false,
          "internalType": "uint256",
          "name": "value",
          "type": "uint256"
        }
      ],
      "name": "Transfer",
      "type": "event"
    },
    {
      "inputs": [],
      "name": "COUNT",
      "outputs": [
        {
          "internalType": "contract ICounter",
          "name": "",
          "type": "address"
        }
      ],
      "stateMutability": "view",
      "type": "function"
    },
    {
      "inputs": [],
      "name": "DEBT_TOKEN_REVISION",
      "outputs": [
        {
          "internalType": "uint256",
          "name": "",
          "type": "uint256"
        }
      ],
      "stateMutability": "view",
      "type": "function"
    },
    {
      "inputs": [],
      "name": "UNDERLYING_ASSET_ADDRESS",
      "outputs": [
        {
          "internalType": "address",
          "name": "",
          "type": "address"
        }
      ],
      "stateMutability": "view",
      "type": "function"
    },
    {
      "inputs": [
        {
          "internalType": "address",
          "name": "owner",
          "type": "address"
        },
        {
          "internalType": "address",
          "name": "spender",
          "type": "address"
        }
      ],
      "name": "allowance",
      "outputs": [
        {
          "internalType": "uint256",
          "name": "",
          "type": "uint256"
        }
      ],
      "stateMutability": "view",
      "type": "function"
    },
    {
      "inputs": [
        {
          "internalType": "address",
          "name": "spender",
          "type": "address"
        },
        {
          "internalType": "uint256",
          "name": "amount",
          "type": "uint256"
        }
      ],
      "name": "approve",
      "outputs": [
        {
          "internalType": "bool",
          "name": "",
          "type": "bool"
        }
      ],
      "stateMutability": "nonpayable",
      "type": "function"
    },
    {
      "inputs": [
        {
          "internalType": "address",
          "name": "delegatee",
          "type": "address"
        },
        {
          "internalType": "uint256",
          "name": "amount",
          "type": "uint256"
        }
      ],
      "name": "approveDelegation",
      "outputs": [],
      "stateMutability": "nonpayable",
      "type": "function"
    },
    {
      "inputs": [
        {
          "internalType": "address",
          "name": "user",
          "type": "address"
        }
      ],
      "name": "balanceOf",
      "outputs": [
        {
          "internalType": "uint256",
          "name": "",
          "type": "uint256"
        }
      ],
      "stateMutability": "view",
      "type": "function"
    },
    {
      "inputs": [
        {
          "internalType": "address",
          "name": "fromUser",
          "type": "address"
        },
        {
          "internalType": "address",
          "name": "toUser",
          "type": "address"
        }
      ],
      "name": "borrowAllowance",
      "outputs": [
        {
          "internalType": "uint256",
          "name": "",
          "type": "uint256"
        }
      ],
      "stateMutability": "view",
      "type": "function"
    },
    {
      "inputs": [
        {
          "internalType": "address",
          "name": "user",
          "type": "address"
        },
        {
          "internalType": "uint256",
          "name": "amount",
          "type": "uint256"
        },
        {
          "internalType": "uint256",
          "name": "index",
          "type": "uint256"
        }
      ],
      "name": "burn",
      "outputs": [],
      "stateMutability": "nonpayable",
      "type": "function"
    },
    {
      "inputs": [],
      "name": "decimals",
      "outputs": [
        {
          "internalType": "uint8",
          "name": "",
          "type": "uint8"
        }
      ],
      "stateMutability": "view",
      "type": "function"
    },
    {
      "inputs": [
        {
          "internalType": "address",
          "name": "spender",
          "type": "address"
        },
        {
          "internalType": "uint256",
          "name": "subtractedValue",
          "type": "uint256"
        }
      ],
      "name": "decreaseAllowance",
      "outputs": [
        {
          "internalType": "bool",
          "name": "",
          "type": "bool"
        }
      ],
      "stateMutability": "nonpayable",
      "type": "function"
    },
    {
      "inputs": [
        {
          "internalType": "address",
          "name": "user",
          "type": "address"
        }
      ],
      "name": "getScaledUserBalanceAndSupply",
      "outputs": [
        {
          "internalType": "uint256",
          "name": "",
          "type": "uint256"
        },
        {
          "internalType": "uint256",
          "name": "",
          "type": "uint256"
        }
      ],
      "stateMutability": "view",
      "type": "function"
    },
    {
      "inputs": [
        {
          "internalType": "address",
          "name": "spender",
          "type": "address"
        },
        {
          "internalType": "uint256",
          "name": "addedValue",
          "type": "uint256"
        }
      ],
      "name": "increaseAllowance",
      "outputs": [
        {
          "internalType": "bool",
          "name": "",
          "type": "bool"
        }
      ],
      "stateMutability": "nonpayable",
      "type": "function"
    },
    {
      "inputs": [
        {
          "internalType": "contract ICounter",
          "name": "counter",
          "type": "address"
        },
        {
          "internalType": "address",
          "name": "underlyingAsset",
          "type": "address"
        },
        {
          "internalType": "uint8",
          "name": "assetRiskTier",
          "type": "uint8"
        },
        {
          "internalType": "uint8",
          "name": "debtTokenDecimals",
          "type": "uint8"
        },
        {
          "internalType": "string",
          "name": "debtTokenName",
          "type": "string"
        },
        {
          "internalType": "string",
          "name": "debtTokenSymbol",
          "type": "string"
        },
        {
          "internalType": "bytes",
          "name": "params",
          "type": "bytes"
        }
      ],
      "name": "initialize",
      "outputs": [],
      "stateMutability": "nonpayable",
      "type": "function"
    },
    {
      "inputs": [
        {
          "internalType": "address",
          "name": "user",
          "type": "address"
        },
        {
          "internalType": "address",
          "name": "onBehalfOf",
          "type": "address"
        },
        {
          "internalType": "uint256",
          "name": "amount",
          "type": "uint256"
        },
        {
          "internalType": "uint256",
          "name": "index",
          "type": "uint256"
        }
      ],
      "name": "mint",
      "outputs": [
        {
          "internalType": "bool",
          "name": "",
          "type": "bool"
        }
      ],
      "stateMutability": "nonpayable",
      "type": "function"
    },
    {
      "inputs": [],
      "name": "name",
      "outputs": [
        {
          "internalType": "string",
          "name": "",
          "type": "string"
        }
      ],
      "stateMutability": "view",
      "type": "function"
    },
    {
      "inputs": [
        {
          "internalType": "address",
          "name": "user",
          "type": "address"
        }
      ],
      "name": "scaledBalanceOf",
      "outputs": [
        {
          "internalType": "uint256",
          "name": "",
          "type": "uint256"
        }
      ],
      "stateMutability": "view",
      "type": "function"
    },
    {
      "inputs": [],
      "name": "scaledTotalSupply",
      "outputs": [
        {
          "internalType": "uint256",
          "name": "",
          "type": "uint256"
        }
      ],
      "stateMutability": "view",
      "type": "function"
    },
    {
      "inputs": [],
      "name": "symbol",
      "outputs": [
        {
          "internalType": "string",
          "name": "",
          "type": "string"
        }
      ],
      "stateMutability": "view",
      "type": "function"
    },
    {
      "inputs": [],
      "name": "totalSupply",
      "outputs": [
        {
          "internalType": "uint256",
          "name": "",
          "type": "uint256"
        }
      ],
      "stateMutability": "view",
      "type": "function"
    },
    {
      "inputs": [
        {
          "internalType": "address",
          "name": "recipient",
          "type": "address"
        },
        {
          "internalType": "uint256",
          "name": "amount",
          "type": "uint256"
        }
      ],
      "name": "transfer",
      "outputs": [
        {
          "internalType": "bool",
          "name": "",
          "type": "bool"
        }
      ],
      "stateMutability": "nonpayable",
      "type": "function"
    },
    {
      "inputs": [
        {
          "internalType": "address",
          "name": "sender",
          "type": "address"
        },
        {
          "internalType": "address",
          "name": "recipient",
          "type": "address"
        },
        {
          "internalType": "uint256",
          "name": "amount",
          "type": "uint256"
        }
      ],
      "name": "transferFrom",
      "outputs": [
        {
          "internalType": "bool",
          "name": "",
          "type": "bool"
        }
      ],
      "stateMutability": "nonpayable",
      "type": "function"
    }
  ],
  "bytecode": "0x60806040523480156200001157600080fd5b50604080518082018252600e8082526d111150951513d2d15397d253541360921b602080840182905284518086019095529184529083015290600060036200005a84826200012c565b5060046200006983826200012c565b506005805460ff191660ff9290921691909117905550620001f89050565b634e487b7160e01b600052604160045260246000fd5b600181811c90821680620000b257607f821691505b602082108103620000d357634e487b7160e01b600052602260045260246000fd5b50919050565b601f8211156200012757600081815260208120601f850160051c81016020861015620001025750805b601f850160051c820191505b8181101562000123578281556001016200010e565b5050505b505050565b81516001600160401b0381111562000148576200014862000087565b62000160816200015984546200009d565b84620000d9565b602080601f8311600181146200019857600084156200017f5750858301515b600019600386901b1c1916600185901b17855562000123565b600085815260208120601f198616915b82811015620001c957888601518255948401946001909101908401620001a8565b5085821015620001e85787850151600019600388901b60f8161c191681555b5050505050600190811b01905550565b6112fa80620002086000396000f3fe608060405234801561001057600080fd5b50600436106101425760003560e01c806394911628116100b8578063b1bf962d1161007c578063b1bf962d146102db578063b3f1c93d146102e3578063b9a7b622146102f6578063c04a8a10146102fe578063dd62ed3e14610311578063f5298aca1461031f57600080fd5b8063949116281461028f57806395d89b41146102b4578063a457c2d71461021b578063a9059cbb146102bc578063b16a19de146102ca57600080fd5b806323b872dd1161010a57806323b872dd146101f3578063313ce56714610206578063395093511461021b5780636bd76d241461022e5780636d294f181461026757806370a082311461027c57600080fd5b806306fdde0314610147578063095ea7b3146101655780630afbcdc91461018857806318160ddd146101ca5780631da24f3e146101e0575b600080fd5b61014f610332565b60405161015c9190610d73565b60405180910390f35b610178610173366004610dd9565b6103c4565b604051901515815260200161015c565b6101b5610196366004610e05565b6001600160a01b03166000908152602081905260409020546002549091565b6040805192835260208301919091520161015c565b6101d261040d565b60405190815260200161015c565b6101d26101ee366004610e05565b6104a1565b610178610201366004610e22565b6104c1565b60055460405160ff909116815260200161015c565b610178610229366004610dd9565b610505565b6101d261023c366004610e63565b6001600160a01b03918216600090815260066020908152604080832093909416825291909152205490565b61027a610275366004610f9e565b610550565b005b6101d261028a366004610e05565b6105bd565b6007546001600160a01b03165b6040516001600160a01b03909116815260200161015c565b61014f61067b565b610178610201366004610dd9565b6008546001600160a01b031661029c565b6101d261068a565b6101786102f1366004611073565b610695565b6101d2600181565b61027a61030c366004610dd9565b610826565b6101d2610229366004610e63565b61027a61032d3660046110b9565b61089d565b606060038054610341906110ee565b80601f016020809104026020016040519081016040528092919081815260200182805461036d906110ee565b80156103ba5780601f1061038f576101008083540402835291602001916103ba565b820191906000526020600020905b81548152906001019060200180831161039d57829003601f168201915b5050505050905090565b60405162461bcd60e51b81526020600482015260166024820152751054141493d5905317d393d517d4d5541413d495115160521b60448201526000906064015b60405180910390fd5b60075460085460405163013351ef60e01b81526001600160a01b038083166004830152600160a01b90920460ff16602482015260009261049c92169063013351ef90604401602060405180830381865afa15801561046f573d6000803e3d6000fd5b505050506040513d601f19601f820116820180604052508101906104939190611128565b600254906109bf565b905090565b6001600160a01b0381166000908152602081905260408120545b92915050565b60405162461bcd60e51b81526020600482015260166024820152751514905394d1915497d393d517d4d5541413d495115160521b6044820152600090606401610404565b60405162461bcd60e51b815260206004820152601760248201527f414c4c4f57414e43455f4e4f545f535550504f525445440000000000000000006044820152600090606401610404565b61055984610a7a565b61056283610a8a565b50506005805460ff94851660ff199091161790555050600780546001600160a01b03199081166001600160a01b0396871617909155600880546001600160a81b031916600160a01b9490931693909302161791909216179055565b6001600160a01b038116600090815260208190526040812054806000036105e75750600092915050565b60075460085460405163013351ef60e01b81526001600160a01b038083166004830152600160a01b90920460ff16602482015261067492919091169063013351ef90604401602060405180830381865afa158015610649573d6000803e3d6000fd5b505050506040513d601f19601f8201168201806040525081019061066d9190611128565b82906109bf565b9392505050565b606060048054610341906110ee565b600061049c60025490565b60006106a96007546001600160a01b031690565b6001600160a01b0316336001600160a01b03161460405180604001604052806002815260200161323960f01b815250906106f65760405162461bcd60e51b81526004016104049190610d73565b50836001600160a01b0316856001600160a01b03161461071b5761071b848685610a96565b6001600160a01b0384166000908152602081905260408120549061073f8585610b52565b6040805180820190915260028152611a9b60f11b6020820152909150816107795760405162461bcd60e51b81526004016104049190610d73565b506107848682610c30565b6040518581526001600160a01b038716906000907fddf252ad1be2c89b69c2b068fc378daa952ba7f163c4a11628f55a4df523b3ef9060200160405180910390a3856001600160a01b0316876001600160a01b03167f2f00e3cdd69a77be7ed215ec7b2a36784dd158f921fca79ac29deffa353fe6ee8787604051610813929190918252602082015260400190565b60405180910390a3501595945050505050565b3360008181526006602090815260408083206001600160a01b038781168086529190935292208490556008549192917fda919360433220e13b51e8c211e490d148e61a3bd53de8c097194e458b97f3e19116604080516001600160a01b039092168252602082018690520160405180910390a35050565b600754604080518082019091526002815261323960f01b6020820152906001600160a01b031633146108e25760405162461bcd60e51b81526004016104049190610d73565b5060006108ef8383610b52565b60408051808201909152600281526106a760f31b6020820152909150816109295760405162461bcd60e51b81526004016104049190610d73565b506109348482610cdb565b6040518381526000906001600160a01b038616907fddf252ad1be2c89b69c2b068fc378daa952ba7f163c4a11628f55a4df523b3ef9060200160405180910390a360408051848152602081018490526001600160a01b038616917f49995e5dd6158cf69ad3e9777c46755a1a826a446c6416992167462dad033b2a910160405180910390a250505050565b60008215806109cc575081155b156109d9575060006104bb565b816109f160026b033b2e3c9fd0803ce8000000611157565b6109fd90600019611179565b610a079190611157565b83111560405180604001604052806002815260200161068760f31b81525090610a435760405162461bcd60e51b81526004016104049190610d73565b506b033b2e3c9fd0803ce8000000610a5c600282611157565b610a66848661118c565b610a7091906111a3565b6106749190611157565b6003610a868282611204565b5050565b6004610a868282611204565b6001600160a01b038084166000908152600660209081526040808320938616835292905290812054610ac9908390611179565b6001600160a01b038086166000818152600660209081526040808320948916808452949091529020839055919250907fda919360433220e13b51e8c211e490d148e61a3bd53de8c097194e458b97f3e1610b2b6008546001600160a01b031690565b604080516001600160a01b039092168252602082018690520160405180910390a350505050565b604080518082019091526002815261035360f41b602082015260009082610b8c5760405162461bcd60e51b81526004016104049190610d73565b506000610b9a600284611157565b90506b033b2e3c9fd0803ce8000000610bb582600019611179565b610bbf9190611157565b84111560405180604001604052806002815260200161068760f31b81525090610bfb5760405162461bcd60e51b81526004016104049190610d73565b508281610c146b033b2e3c9fd0803ce80000008761118c565b610c1e91906111a3565b610c289190611157565b949350505050565b6001600160a01b038216610c865760405162461bcd60e51b815260206004820152601f60248201527f45524332303a206d696e7420746f20746865207a65726f2061646472657373006044820152606401610404565b600254610c9382826111a3565b6002556001600160a01b038316600090815260208190526040902054610cb983826111a3565b6001600160a01b03909416600090815260208190526040902093909355505050565b6001600160a01b038216610d3b5760405162461bcd60e51b815260206004820152602160248201527f45524332303a206275726e2066726f6d20746865207a65726f206164647265736044820152607360f81b6064820152608401610404565b600254610d488282611179565b6002556001600160a01b038316600090815260208190526040902054610cb98382611179565b505050565b600060208083528351808285015260005b81811015610da057858101830151858201604001528201610d84565b506000604082860101526040601f19601f8301168501019250505092915050565b6001600160a01b0381168114610dd657600080fd5b50565b60008060408385031215610dec57600080fd5b8235610df781610dc1565b946020939093013593505050565b600060208284031215610e1757600080fd5b813561067481610dc1565b600080600060608486031215610e3757600080fd5b8335610e4281610dc1565b92506020840135610e5281610dc1565b929592945050506040919091013590565b60008060408385031215610e7657600080fd5b8235610e8181610dc1565b91506020830135610e9181610dc1565b809150509250929050565b803560ff81168114610ead57600080fd5b919050565b634e487b7160e01b600052604160045260246000fd5b600082601f830112610ed957600080fd5b813567ffffffffffffffff80821115610ef457610ef4610eb2565b604051601f8301601f19908116603f01168101908282118183101715610f1c57610f1c610eb2565b81604052838152866020858801011115610f3557600080fd5b836020870160208301376000602085830101528094505050505092915050565b60008083601f840112610f6757600080fd5b50813567ffffffffffffffff811115610f7f57600080fd5b602083019150836020828501011115610f9757600080fd5b9250929050565b60008060008060008060008060e0898b031215610fba57600080fd5b8835610fc581610dc1565b97506020890135610fd581610dc1565b9650610fe360408a01610e9c565b9550610ff160608a01610e9c565b9450608089013567ffffffffffffffff8082111561100e57600080fd5b61101a8c838d01610ec8565b955060a08b013591508082111561103057600080fd5b61103c8c838d01610ec8565b945060c08b013591508082111561105257600080fd5b5061105f8b828c01610f55565b999c989b5096995094979396929594505050565b6000806000806080858703121561108957600080fd5b843561109481610dc1565b935060208501356110a481610dc1565b93969395505050506040820135916060013590565b6000806000606084860312156110ce57600080fd5b83356110d981610dc1565b95602085013595506040909401359392505050565b600181811c9082168061110257607f821691505b60208210810361112257634e487b7160e01b600052602260045260246000fd5b50919050565b60006020828403121561113a57600080fd5b5051919050565b634e487b7160e01b600052601160045260246000fd5b60008261117457634e487b7160e01b600052601260045260246000fd5b500490565b818103818111156104bb576104bb611141565b80820281158282048414176104bb576104bb611141565b808201808211156104bb576104bb611141565b601f821115610d6e57600081815260208120601f850160051c810160208610156111dd5750805b601f850160051c820191505b818110156111fc578281556001016111e9565b505050505050565b815167ffffffffffffffff81111561121e5761121e610eb2565b6112328161122c84546110ee565b846111b6565b602080601f831160018114611267576000841561124f5750858301515b600019600386901b1c1916600185901b1785556111fc565b600085815260208120601f198616915b8281101561129657888601518255948401946001909101908401611277565b50858210156112b45787850151600019600388901b60f8161c191681555b5050505050600190811b0190555056fea26469706673582212201ee9ad6cafb3e3affabe43b41ebd5f1bfc3f6e00296f5757191a7406c95b5eaa64736f6c63430008110033",
  "linkReferences": {},
  "deployedLinkReferences": {}
}