{
  "_format": "hh-sol-artifact-1",
  "contractName": "CRTLogic",
  "sourceName": "contracts/protocol/libraries/logic/CRTLogic.sol",
  "abi": [
    {
      "inputs": [],
      "name": "FLOODPRICE",
      "outputs": [
        {
          "internalType": "uint256",
          "name": "",
          "type": "uint256"
        }
      ],
      "stateMutability": "view",
      "type": "function"
    },
    {
      "inputs": [
        {
          "internalType": "address",
          "name": "userAddress",
          "type": "address"
        },
        {
          "internalType": "uint256",
          "name": "ltv",
          "type": "uint256"
        },
        {
          "internalType": "uint256",
          "name": "amountInUSD",
          "type": "uint256"
        },
        {
          "components": [
            {
              "internalType": "uint256",
              "name": "userCollateralBalanceUSD",
              "type": "uint256"
            },
            {
              "internalType": "uint256",
              "name": "userBorrowBalanceUSD",
              "type": "uint256"
            },
            {
              "internalType": "uint256",
              "name": "currentLtv",
              "type": "uint256"
            },
            {
              "internalType": "uint256",
              "name": "currentLiquidationThreshold",
              "type": "uint256"
            },
            {
              "internalType": "uint256",
              "name": "healthFactor",
              "type": "uint256"
            },
            {
              "internalType": "uint256",
              "name": "userLockCRTValue",
              "type": "uint256"
            },
            {
              "internalType": "uint256",
              "name": "newCrtValue",
              "type": "uint256"
            },
            {
              "internalType": "uint256",
              "name": "idleCRT",
              "type": "uint256"
            }
          ],
          "internalType": "struct DataTypes.UserAccountVars",
          "name": "userStateVars",
          "type": "tuple"
        },
        {
          "components": [
            {
              "internalType": "uint256",
              "name": "crtValue",
              "type": "uint256"
            }
          ],
          "internalType": "struct DataTypes.UserCreditData",
          "name": "userCredit",
          "type": "tuple"
        },
        {
          "internalType": "address",
          "name": "crtaddress",
          "type": "address"
        }
      ],
      "name": "calculateCRTRepay",
      "outputs": [
        {
          "internalType": "uint256",
          "name": "",
          "type": "uint256"
        },
        {
          "internalType": "uint256",
          "name": "",
          "type": "uint256"
        }
      ],
      "stateMutability": "view",
      "type": "function"
    },
    {
      "inputs": [],
      "name": "dec",
      "outputs": [
        {
          "internalType": "uint256",
          "name": "",
          "type": "uint256"
        }
      ],
      "stateMutability": "view",
      "type": "function"
    },
    {
      "inputs": [
        {
          "internalType": "address",
          "name": "crt",
          "type": "address"
        },
        {
          "internalType": "address",
          "name": "user",
          "type": "address"
        },
        {
          "internalType": "uint256",
          "name": "amount",
          "type": "uint256"
        }
      ],
      "name": "validateCRTBalance",
      "outputs": [],
      "stateMutability": "view",
      "type": "function"
    }
  ],
  "bytecode": "0x610fc861003a600b82828239805160001a60731461002d57634e487b7160e01b600052600060045260246000fd5b30600052607381538281f3fe73000000000000000000000000000000000000000030146080604052600436106100615760003560e01c8063391403ce1461006657806352857250146100935780638c1a4f1d146100aa5780639752d349146100bf578063b3bcfa82146100df575b600080fd5b610079610074366004610bcf565b6100e7565b604080519283526020830191909152015b60405180910390f35b61009c61164481565b60405190815260200161008a565b6100bd6100b8366004610c7d565b6103f0565b005b8180156100cb57600080fd5b506100796100da366004610cb9565b610522565b61009c600081565b60008061011c6040518060a0016040528060008152602001600081526020016000815260200160008152602001600081525090565b604051637441b8bb60e01b81526001600160a01b038a8116600483015260009190861690637441b8bb90602401602060405180830381865afa158015610166573d6000803e3d6000fd5b505050506040513d601f19601f8201168201806040525081019061018a9190610d13565b905061019581610773565b806000036101ab576000809350935050506103e5565b8787602001516101bb9190610d42565b825285518751670de0b6b3a7640000916101e1916101d99190610d55565b8451906107bb565b6101ed90612710610d68565b6101f79190610d7f565b8260200181815250506102436040518060400160405280601d81526020017f63616c63756c6174654352545265706179202d206e65776c74762069730000008152508360200151610893565b88826040018181525050610273604051806060016040528060218152602001610e4b602191398860400151610893565b6102b66040518060400160405280601f81526020017f63616c63756c6174654352545265706179202d2020766172732e6366206973008152508360400151610893565b81604001518260200151116102d357925061271091506103e59050565b6102e5826020015183604001516108dc565b606083018190526102f7908290610a02565b60808301526040805180820190915260208082527f63616c63756c6174654352545265706179202d2063727456616c75652069732090820152865161033c9190610893565b610362604051806060016040528060238152602001610f70602391398360800151610893565b855160808301511161037d57505083516000925090506103e5565b60006103a183606001518860000151856080015161039b9190610d42565b90610a83565b90506103d760405180604001604052806012815260200171034b232b621a92a103b30b63ab29034b99d160751b81525082610893565b808360800151945094505050505b965096945050505050565b604051637441b8bb60e01b81526001600160a01b03838116600483015260009190851690637441b8bb90602401602060405180830381865afa15801561043a573d6000803e3d6000fd5b505050506040513d601f19601f8201168201806040525081019061045e9190610d13565b6040516370a0823160e01b81526001600160a01b0385811660048301528616906370a0823190602401602060405180830381865afa1580156104a4573d6000803e3d6000fd5b505050506040513d601f19601f820116820180604052508101906104c89190610d13565b6104d29190610d42565b9050818110156040518060400160405280600381526020016203230360ec1b8152509061051b5760405162461bcd60e51b81526004016105129190610de7565b60405180910390fd5b5050505050565b60008061055e6040518060c001604052806000815260200160008152602001600081526020016000815260200160008152602001600081525090565b868152604080516060810190915260228082526105849190610ebe602083013987610893565b6105a76040518060600160405280602b8152602001610e6c602b91398251610893565b6105ca604051806060016040528060328152602001610f10603291398651610893565b6105f06040518060600160405280602e8152602001610f42602e91398660200151610893565b8051602086015161060091610a83565b855161060c9190610d42565b60208201819052670de0b6b3a7640000906106289088906107bb565b61063490612710610d68565b61063e9190610d7f565b6040808301918252805180820190915260208082527f63616c63756c617465435254426f72726f77202d206372746c74762069733a209082015290516106849190610893565b8051600090610694908890610a83565b90506106b8604051806060016040528060308152602001610ee06030913982610893565b6000606083015260208201518111156106e05760208201516106da9082610d42565b60608301525b6107066040518060600160405280602e8152602001610e1d602e91398360600151610893565b610718826040015183600001516108dc565b60a08301819052606083015161072d91610ae7565b6080830152604080516060810190915260278082526107599190610e9760208301398360800151610893565b816080015182606001519350935050509550959350505050565b6107b88160405160240161078991815260200190565b60408051601f198184030181529190526020810180516001600160e01b031663f82c50f160e01b179052610af4565b50565b604080518082019091526002815261035360f41b6020820152600090826107f55760405162461bcd60e51b81526004016105129190610de7565b506000610803600284610d7f565b9050670de0b6b3a764000061081a82600019610d42565b6108249190610d7f565b84111560405180604001604052806002815260200161068760f31b815250906108605760405162461bcd60e51b81526004016105129190610de7565b508281610875670de0b6b3a764000087610d68565b61087f9190610d55565b6108899190610d7f565b9150505b92915050565b6108d882826040516024016108a9929190610dfa565b60408051601f198184030181529190526020810180516001600160e01b0316632d839cb360e21b179052610af4565b5050565b6000610907604051806040016040528060078152602001660363a3b1034b9960cd1b81525084610893565b61093e60405180604001604052806015815260200174031b7b63630ba32b930b6103330b1ba37b91034b99605d1b81525083610893565b8183101561094f575061271061088d565b612710600061096e8261039b6109658789610d42565b61138890610a02565b61097a90612710610d42565b9050600081116109c55760405162461bcd60e51b815260206004820152601660248201527504372742076616c7565206c6f776572207468616e20360541b6044820152606401610512565b6116448110156109d457506116445b6108896040518060400160405280600c81526020016b031b93a3b30b63ab29034b9960a51b81525082610893565b6000821580610a0f575081155b15610a1c5750600061088d565b612710610a298385610d68565b116040518060400160405280600381526020016232303160e81b81525090610a645760405162461bcd60e51b81526004016105129190610de7565b50612710610a728385610d68565b610a7c9190610d7f565b9392505050565b6000821580610a90575081155b15610a9d5750600061088d565b60408051808201909152600381526219181960e91b60208201526127118310610ad95760405162461bcd60e51b81526004016105129190610de7565b5081610a7284612710610d68565b6000806108898484610a83565b80516a636f6e736f6c652e6c6f67602083016000808483855afa5050505050565b80356001600160a01b0381168114610b2c57600080fd5b919050565b6000610100808385031215610b4557600080fd5b6040519081019067ffffffffffffffff82118183101715610b7657634e487b7160e01b600052604160045260246000fd5b81604052809250833581526020840135602082015260408401356040820152606084013560608201526080840135608082015260a084013560a082015260c084013560c082015260e084013560e0820152505092915050565b6000806000806000808688036101a0811215610bea57600080fd5b610bf388610b15565b96506020880135955060408801359450610c108960608a01610b31565b9350602061015f1982011215610c2557600080fd5b506040516020810181811067ffffffffffffffff82111715610c5757634e487b7160e01b600052604160045260246000fd5b60405261016088013581529150610c716101808801610b15565b90509295509295509295565b600080600060608486031215610c9257600080fd5b610c9b84610b15565b9250610ca960208501610b15565b9150604084013590509250925092565b60008060008060006101808688031215610cd257600080fd5b610cdb86610b15565b94506020860135935060408601359250610cf88760608801610b31565b9150610d076101608701610b15565b90509295509295909350565b600060208284031215610d2557600080fd5b5051919050565b634e487b7160e01b600052601160045260246000fd5b8181038181111561088d5761088d610d2c565b8082018082111561088d5761088d610d2c565b808202811582820484141761088d5761088d610d2c565b600082610d9c57634e487b7160e01b600052601260045260246000fd5b500490565b6000815180845260005b81811015610dc757602081850181015186830182015201610dab565b506000602082860101526020601f19601f83011685010191505092915050565b602081526000610a7c6020830184610da1565b604081526000610e0d6040830185610da1565b9050826020830152939250505056fe63616c63756c617465435254426f72726f77202d206164646974696f6e616c416d6f756e74206e65656465643a2063616c63756c6174654352545265706179202d2063757272656e744c747620697363616c63756c617465435254426f72726f77202d20636f6c6c61746572616c20466163746f722069733a2063616c63756c617465435254426f72726f77202d20637274616d6f756e74206e65656465643a2063616c63756c617465435254426f72726f77202d20616d6f756e74496e5553443a2063616c63756c617465435254426f72726f77202d20616d6f756e744f66436f6c6c61746572616c4e6565645553443a2063616c63756c617465435254426f72726f77202d2075736572436f6c6c61746572616c42616c616e63655553442069733a2063616c63756c617465435254426f72726f77202d2075736572426f72726f7742616c616e63655553442069733a2063616c63756c6174654352545265706179202d206e657743727456616c756520697320a2646970667358221220c12e4b9340610e6d80eb9ca2ed8578216a43d9b77a65a57196df6ab628095c6364736f6c63430008110033",
  "linkReferences": {},
  "deployedLinkReferences": {}
}