{
  "_format": "hh-sol-artifact-1",
  "contractName": "LendingRateOracle",
  "sourceName": "contracts/mocks/oracle/LendingRateOracle.sol",
  "abi": [
    {
      "anonymous": false,
      "inputs": [
        {
          "indexed": true,
          "internalType": "address",
          "name": "previousOwner",
          "type": "address"
        },
        {
          "indexed": true,
          "internalType": "address",
          "name": "newOwner",
          "type": "address"
        }
      ],
      "name": "OwnershipTransferred",
      "type": "event"
    },
    {
      "inputs": [
        {
          "internalType": "address",
          "name": "_asset",
          "type": "address"
        }
      ],
      "name": "getMarketBorrowRate",
      "outputs": [
        {
          "internalType": "uint256",
          "name": "",
          "type": "uint256"
        }
      ],
      "stateMutability": "view",
      "type": "function"
    },
    {
      "inputs": [
        {
          "internalType": "address",
          "name": "_asset",
          "type": "address"
        }
      ],
      "name": "getMarketLiquidityRate",
      "outputs": [
        {
          "internalType": "uint256",
          "name": "",
          "type": "uint256"
        }
      ],
      "stateMutability": "view",
      "type": "function"
    },
    {
      "inputs": [],
      "name": "owner",
      "outputs": [
        {
          "internalType": "address",
          "name": "",
          "type": "address"
        }
      ],
      "stateMutability": "view",
      "type": "function"
    },
    {
      "inputs": [],
      "name": "renounceOwnership",
      "outputs": [],
      "stateMutability": "nonpayable",
      "type": "function"
    },
    {
      "inputs": [
        {
          "internalType": "address",
          "name": "_asset",
          "type": "address"
        },
        {
          "internalType": "uint256",
          "name": "_rate",
          "type": "uint256"
        }
      ],
      "name": "setMarketBorrowRate",
      "outputs": [],
      "stateMutability": "nonpayable",
      "type": "function"
    },
    {
      "inputs": [
        {
          "internalType": "address",
          "name": "_asset",
          "type": "address"
        },
        {
          "internalType": "uint256",
          "name": "_rate",
          "type": "uint256"
        }
      ],
      "name": "setMarketLiquidityRate",
      "outputs": [],
      "stateMutability": "nonpayable",
      "type": "function"
    },
    {
      "inputs": [
        {
          "internalType": "address",
          "name": "newOwner",
          "type": "address"
        }
      ],
      "name": "transferOwnership",
      "outputs": [],
      "stateMutability": "nonpayable",
      "type": "function"
    }
  ],
  "bytecode": "0x608060405234801561001057600080fd5b50600080546001600160a01b031916339081178255604051909182917f8be0079c531659141344cd1fd0a4f28419497f9722a3daafe3b4186f6b6457e0908290a35061040b806100616000396000f3fe608060405234801561001057600080fd5b506004361061007d5760003560e01c80639f86a0ee1161005b5780639f86a0ee146100bf578063bb85c0bb146100d2578063f2fde38b14610109578063fbe5ba1e1461011c57600080fd5b8063715018a61461008257806372eb293d1461008c5780638da5cb5b1461009f575b600080fd5b61008a610145565b005b61008a61009a366004610354565b6101c2565b6000546040516001600160a01b0390911681526020015b60405180910390f35b61008a6100cd366004610354565b610208565b6100fb6100e036600461037e565b6001600160a01b031660009081526001602052604090205490565b6040519081526020016100b6565b61008a61011736600461037e565b61024e565b6100fb61012a36600461037e565b6001600160a01b031660009081526002602052604090205490565b6000546001600160a01b031633146101785760405162461bcd60e51b815260040161016f906103a0565b60405180910390fd5b600080546040516001600160a01b03909116907f8be0079c531659141344cd1fd0a4f28419497f9722a3daafe3b4186f6b6457e0908390a3600080546001600160a01b0319169055565b6000546001600160a01b031633146101ec5760405162461bcd60e51b815260040161016f906103a0565b6001600160a01b03909116600090815260016020526040902055565b6000546001600160a01b031633146102325760405162461bcd60e51b815260040161016f906103a0565b6001600160a01b03909116600090815260026020526040902055565b6000546001600160a01b031633146102785760405162461bcd60e51b815260040161016f906103a0565b6001600160a01b0381166102dd5760405162461bcd60e51b815260206004820152602660248201527f4f776e61626c653a206e6577206f776e657220697320746865207a65726f206160448201526564647265737360d01b606482015260840161016f565b600080546040516001600160a01b03808516939216917f8be0079c531659141344cd1fd0a4f28419497f9722a3daafe3b4186f6b6457e091a3600080546001600160a01b0319166001600160a01b0392909216919091179055565b80356001600160a01b038116811461034f57600080fd5b919050565b6000806040838503121561036757600080fd5b61037083610338565b946020939093013593505050565b60006020828403121561039057600080fd5b61039982610338565b9392505050565b6020808252818101527f4f776e61626c653a2063616c6c6572206973206e6f7420746865206f776e657260408201526060019056fea26469706673582212209cee59e2b45c5ebc8ff70d4101a3fac4f6fa81233892bfb2bc59bb4e96293b0864736f6c63430008110033",
  "linkReferences": {},
  "deployedLinkReferences": {}
}