{
  "_format": "hh-sol-artifact-1",
  "contractName": "DefaultReserveInterestRateStrategy",
  "sourceName": "contracts/protocol/Pool/InterestRate/DefaultReserveInterestRateStrategy.sol",
  "abi": [
    {
      "inputs": [
        {
          "internalType": "contract ICounterAddressesProvider",
          "name": "provider",
          "type": "address"
        },
        {
          "internalType": "uint256",
          "name": "optimalUtilizationRate",
          "type": "uint256"
        },
        {
          "internalType": "uint256",
          "name": "baseVariableBorrowRate",
          "type": "uint256"
        },
        {
          "internalType": "uint256",
          "name": "variableRateSlope1",
          "type": "uint256"
        },
        {
          "internalType": "uint256",
          "name": "variableRateSlope2",
          "type": "uint256"
        }
      ],
      "stateMutability": "nonpayable",
      "type": "constructor"
    },
    {
      "inputs": [],
      "name": "EXCESS_UTILIZATION_RATE",
      "outputs": [
        {
          "internalType": "uint256",
          "name": "",
          "type": "uint256"
        }
      ],
      "stateMutability": "view",
      "type": "function"
    },
    {
      "inputs": [],
      "name": "OPTIMAL_UTILIZATION_RATE",
      "outputs": [
        {
          "internalType": "uint256",
          "name": "",
          "type": "uint256"
        }
      ],
      "stateMutability": "view",
      "type": "function"
    },
    {
      "inputs": [],
      "name": "addressesProvider",
      "outputs": [
        {
          "internalType": "contract ICounterAddressesProvider",
          "name": "",
          "type": "address"
        }
      ],
      "stateMutability": "view",
      "type": "function"
    },
    {
      "inputs": [],
      "name": "baseVariableBorrowRate",
      "outputs": [
        {
          "internalType": "uint256",
          "name": "",
          "type": "uint256"
        }
      ],
      "stateMutability": "view",
      "type": "function"
    },
    {
      "inputs": [
        {
          "internalType": "address",
          "name": "reserve",
          "type": "address"
        },
        {
          "internalType": "uint256",
          "name": "availableLiquidity",
          "type": "uint256"
        },
        {
          "internalType": "uint256",
          "name": "totalVariableDebt",
          "type": "uint256"
        },
        {
          "internalType": "uint256",
          "name": "reserveFactor",
          "type": "uint256"
        }
      ],
      "name": "calculateInterestRates",
      "outputs": [
        {
          "internalType": "uint256",
          "name": "",
          "type": "uint256"
        },
        {
          "internalType": "uint256",
          "name": "",
          "type": "uint256"
        }
      ],
      "stateMutability": "view",
      "type": "function"
    },
    {
      "inputs": [
        {
          "internalType": "address",
          "name": "reserve",
          "type": "address"
        },
        {
          "internalType": "address",
          "name": "pToken",
          "type": "address"
        },
        {
          "internalType": "uint256",
          "name": "liquidityAdded",
          "type": "uint256"
        },
        {
          "internalType": "uint256",
          "name": "liquidityTaken",
          "type": "uint256"
        },
        {
          "internalType": "uint256",
          "name": "totalVariableDebt",
          "type": "uint256"
        },
        {
          "internalType": "uint256",
          "name": "reserveFactor",
          "type": "uint256"
        }
      ],
      "name": "calculateInterestRates",
      "outputs": [
        {
          "internalType": "uint256",
          "name": "",
          "type": "uint256"
        },
        {
          "internalType": "uint256",
          "name": "",
          "type": "uint256"
        }
      ],
      "stateMutability": "view",
      "type": "function"
    },
    {
      "inputs": [],
      "name": "getMaxVariableBorrowRate",
      "outputs": [
        {
          "internalType": "uint256",
          "name": "",
          "type": "uint256"
        }
      ],
      "stateMutability": "view",
      "type": "function"
    },
    {
      "inputs": [],
      "name": "variableRateSlope1",
      "outputs": [
        {
          "internalType": "uint256",
          "name": "",
          "type": "uint256"
        }
      ],
      "stateMutability": "view",
      "type": "function"
    },
    {
      "inputs": [],
      "name": "variableRateSlope2",
      "outputs": [
        {
          "internalType": "uint256",
          "name": "",
          "type": "uint256"
        }
      ],
      "stateMutability": "view",
      "type": "function"
    }
  ],
  "bytecode": "0x61014060405234801561001157600080fd5b50604051610f2c380380610f2c8339810160408190526100309161008a565b83608081815250508361004b61007a60201b6106b31760201c565b61005591906100df565b60a0526001600160a01b0390941660c05260e091909152610100525061012052610106565b6b033b2e3c9fd0803ce800000090565b600080600080600060a086880312156100a257600080fd5b85516001600160a01b03811681146100b957600080fd5b602087015160408801516060890151608090990151929a91995097965090945092505050565b8181038181111561010057634e487b7160e01b600052601160045260246000fd5b92915050565b60805160a05160c05160e0516101005161012051610d856101a76000396000818160d40152818161031001526104ca0152600081816101220152818161033a015281816103bd01526104ee01526000818161018a0152818161035b015281816103f5015261050f015260006101b3015260008181609d01526102b401526000818161016601528181610283015281816102d501526103990152610d856000f3fe608060405234801561001057600080fd5b50600436106100935760003560e01c806380031e371161006657806380031e371461014657806381c8c9721461014e578063a15f30ac14610161578063b258954414610188578063c72c4d10146101ae57600080fd5b8063173198731461009857806365614f81146100d25780636ee082ca146100f85780637b832f5814610120575b600080fd5b6100bf7f000000000000000000000000000000000000000000000000000000000000000081565b6040519081526020015b60405180910390f35b7f00000000000000000000000000000000000000000000000000000000000000006100bf565b61010b610106366004610a51565b6101ed565b604080519283526020830191909152016100c9565b7f00000000000000000000000000000000000000000000000000000000000000006100bf565b6100bf6104c6565b61010b61015c366004610a8a565b610542565b6100bf7f000000000000000000000000000000000000000000000000000000000000000081565b7f00000000000000000000000000000000000000000000000000000000000000006100bf565b6101d57f000000000000000000000000000000000000000000000000000000000000000081565b6040516001600160a01b0390911681526020016100c9565b60008061021b6040518060800160405280600081526020016000815260200160008152602001600081525090565b8481526000602082018190526040820152841561024f57805161024a906102429088610af5565b8251906106c3565b610252565b60005b816060018181525050610281604051806060016040528060288152602001610cd26028913982606001516107ac565b7f0000000000000000000000000000000000000000000000000000000000000000816060015111156103945760006103097f00000000000000000000000000000000000000000000000000000000000000007f000000000000000000000000000000000000000000000000000000000000000084606001516103039190610b08565b906106c3565b90506103357f0000000000000000000000000000000000000000000000000000000000000000826107f5565b61037f7f00000000000000000000000000000000000000000000000000000000000000007f0000000000000000000000000000000000000000000000000000000000000000610af5565b6103899190610af5565b60208301525061041f565b6103ef7f00000000000000000000000000000000000000000000000000000000000000006103037f000000000000000000000000000000000000000000000000000000000000000084606001516107f590919063ffffffff16565b610419907f0000000000000000000000000000000000000000000000000000000000000000610af5565b60208201525b610445604051806060016040528060328152602001610c466032913982602001516107ac565b61047661045485612710610b08565b610470836060015161046a8986602001516108b7565b906107f5565b906108fb565b8160400181815250506104ae6040518060600160405280602f8152602001610c78602f91396104a98784602001516108b7565b6107ac565b80604001518160200151925092505094509492505050565b60007f00000000000000000000000000000000000000000000000000000000000000006105337f00000000000000000000000000000000000000000000000000000000000000007f0000000000000000000000000000000000000000000000000000000000000000610af5565b61053d9190610af5565b905090565b6000806105666040518060600160405280602b8152602001610ca7602b913961096b565b6040516370a0823160e01b81526001600160a01b038881166004830152600091908a16906370a0823190602401602060405180830381865afa1580156105b0573d6000803e3d6000fd5b505050506040513d601f19601f820116820180604052508101906105d49190610b1b565b90506105f86040518060600160405280602f8152602001610c17602f9139826107ac565b61061a6040518060600160405280602b8152602001610cfa602b9139886107ac565b61063c6040518060600160405280602b8152602001610d25602b9139876107ac565b856106478883610af5565b6106519190610b08565b90506106756040518060600160405280602f8152602001610c17602f9139826107ac565b6106976040518060600160405280602e8152602001610be9602e9139866107ac565b6106a3898287876101ed565b9250925050965096945050505050565b6b033b2e3c9fd0803ce800000090565b604080518082019091526002815261035360f41b6020820152600090826107065760405162461bcd60e51b81526004016106fd9190610b7a565b60405180910390fd5b506000610714600284610b8d565b90506b033b2e3c9fd0803ce800000061072f82600019610b08565b6107399190610b8d565b84111560405180604001604052806002815260200161068760f31b815250906107755760405162461bcd60e51b81526004016106fd9190610b7a565b50828161078e6b033b2e3c9fd0803ce800000087610baf565b6107989190610af5565b6107a29190610b8d565b9150505b92915050565b6107f182826040516024016107c2929190610bc6565b60408051601f198184030181529190526020810180516001600160e01b0316632d839cb360e21b1790526109b1565b5050565b6000821580610802575081155b1561080f575060006107a6565b8161082760026b033b2e3c9fd0803ce8000000610b8d565b61083390600019610b08565b61083d9190610b8d565b83111560405180604001604052806002815260200161068760f31b815250906108795760405162461bcd60e51b81526004016106fd9190610b7a565b506b033b2e3c9fd0803ce8000000610892600282610b8d565b61089c8486610baf565b6108a69190610af5565b6108b09190610b8d565b9392505050565b6000828082036108cb5760009150506107a6565b60006108da8461046a876109d2565b905060006108f16108ea846109d2565b83906106c3565b9695505050505050565b6000821580610908575081155b15610915575060006107a6565b6127106109228385610baf565b116040518060400160405280600381526020016232303160e81b8152509061095d5760405162461bcd60e51b81526004016106fd9190610b7a565b506127106108a68385610baf565b6109ae8160405160240161097f9190610b7a565b60408051601f198184030181529190526020810180516001600160e01b031663104c13eb60e21b1790526109b1565b50565b80516a636f6e736f6c652e6c6f67602083016000808483855afa5050505050565b6000806109e3633b9aca0084610baf565b9050826109f4633b9aca0083610b8d565b1460405180604001604052806002815260200161068760f31b81525090610a2e5760405162461bcd60e51b81526004016106fd9190610b7a565b5092915050565b80356001600160a01b0381168114610a4c57600080fd5b919050565b60008060008060808587031215610a6757600080fd5b610a7085610a35565b966020860135965060408601359560600135945092505050565b60008060008060008060c08789031215610aa357600080fd5b610aac87610a35565b9550610aba60208801610a35565b95989597505050506040840135936060810135936080820135935060a0909101359150565b634e487b7160e01b600052601160045260246000fd5b808201808211156107a6576107a6610adf565b818103818111156107a6576107a6610adf565b600060208284031215610b2d57600080fd5b5051919050565b6000815180845260005b81811015610b5a57602081850181015186830182015201610b3e565b506000602082860101526020601f19601f83011685010191505092915050565b6020815260006108b06020830184610b34565b600082610baa57634e487b7160e01b600052601260045260246000fd5b500490565b80820281158282048414176107a6576107a6610adf565b604081526000610bd96040830185610b34565b9050826020830152939250505056fe63616c63756c617465496e7465726573745261746573202d20746f74616c5661726961626c65446562742069732063616c63756c617465496e7465726573745261746573202d20617661696c61626c654c69717569646974792069732063616c63756c617465496e7465726573745261746573202d2063757272656e745661726961626c65426f72726f775261746563616c63756c617465496e7465726573745261746573202d205f6765744f766572616c6c426f72726f77526174653a5573696e672044656661756c7452657365727665496e7465726573745261746553747261746567792e2e2e63616c63756c617465496e7465726573745261746573202d207574696c697a6174696f6e5261746563616c63756c617465496e7465726573745261746573202d206c697175696469747941646465642069732063616c63756c617465496e7465726573745261746573202d206c697175696469747954616b656e20697320a26469706673582212207c48111a3e00d9ab6de69c3b698906c546a75e2582b06669da3a98c8eb61430364736f6c63430008110033",
  "linkReferences": {},
  "deployedLinkReferences": {}
}