{
  "_format": "hh-sol-artifact-1",
  "contractName": "PToken",
  "sourceName": "contracts/protocol/tokenization/PToken.sol",
  "abi": [
    {
      "anonymous": false,
      "inputs": [
        {
          "indexed": true,
          "internalType": "address",
          "name": "owner",
          "type": "address"
        },
        {
          "indexed": true,
          "internalType": "address",
          "name": "spender",
          "type": "address"
        },
        {
          "indexed": false,
          "internalType": "uint256",
          "name": "value",
          "type": "uint256"
        }
      ],
      "name": "Approval",
      "type": "event"
    },
    {
      "anonymous": false,
      "inputs": [
        {
          "indexed": true,
          "internalType": "address",
          "name": "from",
          "type": "address"
        },
        {
          "indexed": true,
          "internalType": "address",
          "name": "to",
          "type": "address"
        },
        {
          "indexed": false,
          "internalType": "uint256",
          "name": "value",
          "type": "uint256"
        },
        {
          "indexed": false,
          "internalType": "uint256",
          "name": "index",
          "type": "uint256"
        }
      ],
      "name": "BalanceTransfer",
      "type": "event"
    },
    {
      "anonymous": false,
      "inputs": [
        {
          "indexed": true,
          "internalType": "address",
          "name": "from",
          "type": "address"
        },
        {
          "indexed": true,
          "internalType": "address",
          "name": "target",
          "type": "address"
        },
        {
          "indexed": false,
          "internalType": "uint256",
          "name": "value",
          "type": "uint256"
        },
        {
          "indexed": false,
          "internalType": "uint256",
          "name": "index",
          "type": "uint256"
        }
      ],
      "name": "Burn",
      "type": "event"
    },
    {
      "anonymous": false,
      "inputs": [
        {
          "indexed": true,
          "internalType": "address",
          "name": "from",
          "type": "address"
        },
        {
          "indexed": false,
          "internalType": "uint256",
          "name": "value",
          "type": "uint256"
        },
        {
          "indexed": false,
          "internalType": "uint256",
          "name": "index",
          "type": "uint256"
        }
      ],
      "name": "Mint",
      "type": "event"
    },
    {
      "anonymous": false,
      "inputs": [
        {
          "indexed": true,
          "internalType": "address",
          "name": "from",
          "type": "address"
        },
        {
          "indexed": true,
          "internalType": "address",
          "name": "to",
          "type": "address"
        },
        {
          "indexed": false,
          "internalType": "uint256",
          "name": "value",
          "type": "uint256"
        }
      ],
      "name": "Transfer",
      "type": "event"
    },
    {
      "inputs": [],
      "name": "COUNTER",
      "outputs": [
        {
          "internalType": "contract ICounter",
          "name": "",
          "type": "address"
        }
      ],
      "stateMutability": "view",
      "type": "function"
    },
    {
      "inputs": [],
      "name": "DOMAIN_SEPARATOR",
      "outputs": [
        {
          "internalType": "bytes32",
          "name": "",
          "type": "bytes32"
        }
      ],
      "stateMutability": "view",
      "type": "function"
    },
    {
      "inputs": [],
      "name": "EIP712_REVISION",
      "outputs": [
        {
          "internalType": "bytes",
          "name": "",
          "type": "bytes"
        }
      ],
      "stateMutability": "view",
      "type": "function"
    },
    {
      "inputs": [],
      "name": "PERMIT_TYPEHASH",
      "outputs": [
        {
          "internalType": "bytes32",
          "name": "",
          "type": "bytes32"
        }
      ],
      "stateMutability": "view",
      "type": "function"
    },
    {
      "inputs": [],
      "name": "PTOKEN_REVISION",
      "outputs": [
        {
          "internalType": "uint256",
          "name": "",
          "type": "uint256"
        }
      ],
      "stateMutability": "view",
      "type": "function"
    },
    {
      "inputs": [],
      "name": "RESERVE_TREASURY_ADDRESS",
      "outputs": [
        {
          "internalType": "address",
          "name": "",
          "type": "address"
        }
      ],
      "stateMutability": "view",
      "type": "function"
    },
    {
      "inputs": [],
      "name": "UNDERLYING_ASSET_ADDRESS",
      "outputs": [
        {
          "internalType": "address",
          "name": "",
          "type": "address"
        }
      ],
      "stateMutability": "view",
      "type": "function"
    },
    {
      "inputs": [
        {
          "internalType": "address",
          "name": "",
          "type": "address"
        }
      ],
      "name": "_nonces",
      "outputs": [
        {
          "internalType": "uint256",
          "name": "",
          "type": "uint256"
        }
      ],
      "stateMutability": "view",
      "type": "function"
    },
    {
      "inputs": [
        {
          "internalType": "address",
          "name": "owner",
          "type": "address"
        },
        {
          "internalType": "address",
          "name": "spender",
          "type": "address"
        }
      ],
      "name": "allowance",
      "outputs": [
        {
          "internalType": "uint256",
          "name": "",
          "type": "uint256"
        }
      ],
      "stateMutability": "view",
      "type": "function"
    },
    {
      "inputs": [
        {
          "internalType": "address",
          "name": "spender",
          "type": "address"
        },
        {
          "internalType": "uint256",
          "name": "amount",
          "type": "uint256"
        }
      ],
      "name": "approve",
      "outputs": [
        {
          "internalType": "bool",
          "name": "",
          "type": "bool"
        }
      ],
      "stateMutability": "nonpayable",
      "type": "function"
    },
    {
      "inputs": [
        {
          "internalType": "address",
          "name": "user",
          "type": "address"
        }
      ],
      "name": "balanceOf",
      "outputs": [
        {
          "internalType": "uint256",
          "name": "",
          "type": "uint256"
        }
      ],
      "stateMutability": "view",
      "type": "function"
    },
    {
      "inputs": [
        {
          "internalType": "address",
          "name": "user",
          "type": "address"
        },
        {
          "internalType": "address",
          "name": "receiverOfUnderlying",
          "type": "address"
        },
        {
          "internalType": "uint256",
          "name": "amount",
          "type": "uint256"
        },
        {
          "internalType": "uint256",
          "name": "index",
          "type": "uint256"
        }
      ],
      "name": "burn",
      "outputs": [],
      "stateMutability": "nonpayable",
      "type": "function"
    },
    {
      "inputs": [],
      "name": "decimals",
      "outputs": [
        {
          "internalType": "uint8",
          "name": "",
          "type": "uint8"
        }
      ],
      "stateMutability": "view",
      "type": "function"
    },
    {
      "inputs": [
        {
          "internalType": "address",
          "name": "spender",
          "type": "address"
        },
        {
          "internalType": "uint256",
          "name": "subtractedValue",
          "type": "uint256"
        }
      ],
      "name": "decreaseAllowance",
      "outputs": [
        {
          "internalType": "bool",
          "name": "",
          "type": "bool"
        }
      ],
      "stateMutability": "nonpayable",
      "type": "function"
    },
    {
      "inputs": [
        {
          "internalType": "address",
          "name": "user",
          "type": "address"
        }
      ],
      "name": "getScaledUserBalanceAndSupply",
      "outputs": [
        {
          "internalType": "uint256",
          "name": "",
          "type": "uint256"
        },
        {
          "internalType": "uint256",
          "name": "",
          "type": "uint256"
        }
      ],
      "stateMutability": "view",
      "type": "function"
    },
    {
      "inputs": [
        {
          "internalType": "address",
          "name": "user",
          "type": "address"
        },
        {
          "internalType": "uint256",
          "name": "amount",
          "type": "uint256"
        }
      ],
      "name": "handleRepayment",
      "outputs": [],
      "stateMutability": "nonpayable",
      "type": "function"
    },
    {
      "inputs": [
        {
          "internalType": "address",
          "name": "spender",
          "type": "address"
        },
        {
          "internalType": "uint256",
          "name": "addedValue",
          "type": "uint256"
        }
      ],
      "name": "increaseAllowance",
      "outputs": [
        {
          "internalType": "bool",
          "name": "",
          "type": "bool"
        }
      ],
      "stateMutability": "nonpayable",
      "type": "function"
    },
    {
      "inputs": [
        {
          "internalType": "contract ICounter",
          "name": "counter",
          "type": "address"
        },
        {
          "internalType": "address",
          "name": "treasury",
          "type": "address"
        },
        {
          "internalType": "address",
          "name": "underlyingAsset",
          "type": "address"
        },
        {
          "internalType": "uint8",
          "name": "riskTier",
          "type": "uint8"
        },
        {
          "internalType": "uint8",
          "name": "pTokenDecimals",
          "type": "uint8"
        },
        {
          "internalType": "string",
          "name": "pTokenName",
          "type": "string"
        },
        {
          "internalType": "string",
          "name": "pTokenSymbol",
          "type": "string"
        },
        {
          "internalType": "bytes",
          "name": "params",
          "type": "bytes"
        }
      ],
      "name": "initialize",
      "outputs": [],
      "stateMutability": "nonpayable",
      "type": "function"
    },
    {
      "inputs": [
        {
          "internalType": "address",
          "name": "user",
          "type": "address"
        },
        {
          "internalType": "uint256",
          "name": "amount",
          "type": "uint256"
        },
        {
          "internalType": "uint256",
          "name": "index",
          "type": "uint256"
        }
      ],
      "name": "mint",
      "outputs": [
        {
          "internalType": "bool",
          "name": "",
          "type": "bool"
        }
      ],
      "stateMutability": "nonpayable",
      "type": "function"
    },
    {
      "inputs": [
        {
          "internalType": "address",
          "name": "crt",
          "type": "address"
        },
        {
          "internalType": "uint256",
          "name": "amount",
          "type": "uint256"
        },
        {
          "internalType": "uint256",
          "name": "index",
          "type": "uint256"
        }
      ],
      "name": "mintToCRT",
      "outputs": [],
      "stateMutability": "nonpayable",
      "type": "function"
    },
    {
      "inputs": [
        {
          "internalType": "uint256",
          "name": "amount",
          "type": "uint256"
        },
        {
          "internalType": "uint256",
          "name": "index",
          "type": "uint256"
        }
      ],
      "name": "mintToTreasury",
      "outputs": [],
      "stateMutability": "nonpayable",
      "type": "function"
    },
    {
      "inputs": [],
      "name": "name",
      "outputs": [
        {
          "internalType": "string",
          "name": "",
          "type": "string"
        }
      ],
      "stateMutability": "view",
      "type": "function"
    },
    {
      "inputs": [
        {
          "internalType": "address",
          "name": "owner",
          "type": "address"
        },
        {
          "internalType": "address",
          "name": "spender",
          "type": "address"
        },
        {
          "internalType": "uint256",
          "name": "value",
          "type": "uint256"
        },
        {
          "internalType": "uint256",
          "name": "deadline",
          "type": "uint256"
        },
        {
          "internalType": "uint8",
          "name": "v",
          "type": "uint8"
        },
        {
          "internalType": "bytes32",
          "name": "r",
          "type": "bytes32"
        },
        {
          "internalType": "bytes32",
          "name": "s",
          "type": "bytes32"
        }
      ],
      "name": "permit",
      "outputs": [],
      "stateMutability": "nonpayable",
      "type": "function"
    },
    {
      "inputs": [
        {
          "internalType": "address",
          "name": "user",
          "type": "address"
        }
      ],
      "name": "scaledBalanceOf",
      "outputs": [
        {
          "internalType": "uint256",
          "name": "",
          "type": "uint256"
        }
      ],
      "stateMutability": "view",
      "type": "function"
    },
    {
      "inputs": [],
      "name": "scaledTotalSupply",
      "outputs": [
        {
          "internalType": "uint256",
          "name": "",
          "type": "uint256"
        }
      ],
      "stateMutability": "view",
      "type": "function"
    },
    {
      "inputs": [],
      "name": "symbol",
      "outputs": [
        {
          "internalType": "string",
          "name": "",
          "type": "string"
        }
      ],
      "stateMutability": "view",
      "type": "function"
    },
    {
      "inputs": [],
      "name": "totalSupply",
      "outputs": [
        {
          "internalType": "uint256",
          "name": "",
          "type": "uint256"
        }
      ],
      "stateMutability": "view",
      "type": "function"
    },
    {
      "inputs": [
        {
          "internalType": "address",
          "name": "recipient",
          "type": "address"
        },
        {
          "internalType": "uint256",
          "name": "amount",
          "type": "uint256"
        }
      ],
      "name": "transfer",
      "outputs": [
        {
          "internalType": "bool",
          "name": "",
          "type": "bool"
        }
      ],
      "stateMutability": "nonpayable",
      "type": "function"
    },
    {
      "inputs": [
        {
          "internalType": "address",
          "name": "sender",
          "type": "address"
        },
        {
          "internalType": "address",
          "name": "recipient",
          "type": "address"
        },
        {
          "internalType": "uint256",
          "name": "amount",
          "type": "uint256"
        }
      ],
      "name": "transferFrom",
      "outputs": [
        {
          "internalType": "bool",
          "name": "",
          "type": "bool"
        }
      ],
      "stateMutability": "nonpayable",
      "type": "function"
    },
    {
      "inputs": [
        {
          "internalType": "address",
          "name": "from",
          "type": "address"
        },
        {
          "internalType": "address",
          "name": "to",
          "type": "address"
        },
        {
          "internalType": "uint256",
          "name": "value",
          "type": "uint256"
        }
      ],
      "name": "transferOnLiquidation",
      "outputs": [],
      "stateMutability": "nonpayable",
      "type": "function"
    },
    {
      "inputs": [
        {
          "internalType": "address",
          "name": "target",
          "type": "address"
        },
        {
          "internalType": "uint256",
          "name": "amount",
          "type": "uint256"
        }
      ],
      "name": "transferUnderlyingTo",
      "outputs": [
        {
          "internalType": "uint256",
          "name": "",
          "type": "uint256"
        }
      ],
      "stateMutability": "nonpayable",
      "type": "function"
    }
  ],
  "bytecode": "0x60806040523480156200001157600080fd5b50604080518082018252600b8082526a141513d2d15397d253541360aa1b6020808401829052845180860190955291845290830152906000600362000057848262000129565b50600462000066838262000129565b506005805460ff191660ff9290921691909117905550620001f59050565b634e487b7160e01b600052604160045260246000fd5b600181811c90821680620000af57607f821691505b602082108103620000d057634e487b7160e01b600052602260045260246000fd5b50919050565b601f8211156200012457600081815260208120601f850160051c81016020861015620000ff5750805b601f850160051c820191505b8181101562000120578281556001016200010b565b5050505b505050565b81516001600160401b0381111562000145576200014562000084565b6200015d816200015684546200009a565b84620000d6565b602080601f8311600181146200019557600084156200017c5750858301515b600019600386901b1c1916600185901b17855562000120565b600085815260208120601f198616915b82811015620001c657888601518255948401946001909101908401620001a5565b5085821015620001e55787850151600019600388901b60f8161c191681555b5050505050600190811b01905550565b61221880620002056000396000f3fe608060405234801561001057600080fd5b50600436106101e55760003560e01c80637df5bd3b1161010f578063b16a19de116100a2578063d7020d0a11610071578063d7020d0a14610458578063dd62ed3e1461046b578063f866c319146104a4578063fb42a9a3146104b757600080fd5b8063b16a19de1461040c578063b1bf962d1461041d578063b9844d8d14610425578063d505accf1461044557600080fd5b806399b70579116100de57806399b70579146103b0578063a457c2d7146103d5578063a9059cbb146103e8578063ae167335146103fb57600080fd5b80637df5bd3b1461036f57806386f18e931461038257806388dd91a11461039557806395d89b41146103a857600080fd5b806330adf81f116101875780633aec6afe116101565780633aec6afe146103145780634efecaa51461032957806370a082311461033c578063781603761461034f57600080fd5b806330adf81f146102bc578063313ce567146102e35780633644e515146102f8578063395093511461030157600080fd5b8063156e29f6116101c3578063156e29f61461026d57806318160ddd146102805780631da24f3e1461029657806323b872dd146102a957600080fd5b806306fdde03146101ea578063095ea7b3146102085780630afbcdc91461022b575b600080fd5b6101f26104bf565b6040516101ff9190611c15565b60405180910390f35b61021b610216366004611c50565b610551565b60405190151581526020016101ff565b610258610239366004611c7c565b6001600160a01b03166000908152602081905260409020546002549091565b604080519283526020830191909152016101ff565b61021b61027b366004611c99565b610568565b6102886106d5565b6040519081526020016101ff565b6102886102a4366004611c7c565b610785565b61021b6102b7366004611cce565b6107a3565b6102887f6e71edae12b1b97f4d1f60370fef10105fa2faae0126114a169c64845d6126c981565b60055460405160ff90911681526020016101ff565b61028860075481565b61021b61030f366004611c50565b610830565b610327610322366004611c99565b610867565b005b610288610337366004611c50565b61094b565b61028861034a366004611c7c565b6109b0565b6101f2604051806040016040528060018152602001603160f81b81525081565b61032761037d366004611d0f565b610a55565b610327610390366004611d8b565b610b3a565b6103276103a3366004611c50565b610cd7565b6101f2610d27565b6008546001600160a01b03165b6040516001600160a01b0390911681526020016101ff565b61021b6103e3366004611c50565b610d36565b61021b6103f6366004611c50565b610d6d565b6009546001600160a01b03166103bd565b600a546001600160a01b03166103bd565b610288610db1565b610288610433366004611c7c565b60066020526000908152604090205481565b610327610453366004611e7f565b610dc1565b610327610466366004611eed565b610ff3565b610288610479366004611f33565b6001600160a01b03918216600090815260016020908152604080832093909416825291909152205490565b6103276104b2366004611cce565b611138565b610288600181565b6060600380546104ce90611f6c565b80601f01602080910402602001604051908101604052809291908181526020018280546104fa90611f6c565b80156105475780601f1061051c57610100808354040283529160200191610547565b820191906000526020600020905b81548152906001019060200180831161052a57829003601f168201915b5050505050905090565b600061055e3384846111d6565b5060015b92915050565b600854604080518082019091526002815261323960f01b60208201526000916001600160a01b031633146105b85760405162461bcd60e51b81526004016105af9190611c15565b60405180910390fd5b506001600160a01b038416600090815260208190526040812054906105dd85856112f2565b6040805180820190915260028152611a9b60f11b6020820152909150816106175760405162461bcd60e51b81526004016105af9190611c15565b5061062286826113d0565b6040518581526001600160a01b038716906000906000805160206121c38339815191529060200160405180910390a360408051868152602081018690526001600160a01b038816917f4c209b5fc8ad50758f13e2e1088ba56a560dff690a1c6fef26394f4c03821c4f910160405180910390a26106cb604051806040016040528060148152602001730383932bb34b7bab9a130b630b731b29034b99d160651b8152508361147b565b5015949350505050565b6000806106e160025490565b9050806000036106f357600091505090565b600854600a5460405163776f689160e01b81526001600160a01b039182166004820152600160a01b830460ff16602482015261077f92919091169063776f689190604401602060405180830381865afa158015610754573d6000803e3d6000fd5b505050506040513d601f19601f820116820180604052508101906107789190611fa0565b82906114c0565b91505090565b6001600160a01b038116600090815260208190526040812054610562565b60006107b0848484611582565b6001600160a01b0384166000908152600160209081526040808320338085529252909120546107eb9186916107e6908690611fcf565b6111d6565b826001600160a01b0316846001600160a01b03166000805160206121c38339815191528460405161081e91815260200190565b60405180910390a35060019392505050565b3360008181526001602090815260408083206001600160a01b0387168452909152812054909161055e9185906107e6908690611fe2565b6008546001600160a01b0316336001600160a01b03161460405180604001604052806002815260200161323960f01b815250906108b75760405162461bcd60e51b81526004016105af9190611c15565b508115610946576108d1836108cc84846112f2565b6113d0565b6040518281526001600160a01b038416906000906000805160206121c38339815191529060200160405180910390a360408051838152602081018390526001600160a01b038516917f4c209b5fc8ad50758f13e2e1088ba56a560dff690a1c6fef26394f4c03821c4f91015b60405180910390a25b505050565b600854604080518082019091526002815261323960f01b60208201526000916001600160a01b031633146109925760405162461bcd60e51b81526004016105af9190611c15565b50600a546109aa906001600160a01b0316848461158f565b50919050565b600854600a5460405163776f689160e01b81526001600160a01b039182166004820152600160a01b830460ff16602482015260009261056292169063776f689190604401602060405180830381865afa158015610a11573d6000803e3d6000fd5b505050506040513d601f19601f82011682018060405250810190610a359190611fa0565b6001600160a01b0384166000908152602081905260409020545b906114c0565b6008546001600160a01b0316336001600160a01b03161460405180604001604052806002815260200161323960f01b81525090610aa55760405162461bcd60e51b81526004016105af9190611c15565b508115610b36576009546001600160a01b0316610ac6816108cc85856112f2565b6040518381526001600160a01b038216906000906000805160206121c38339815191529060200160405180910390a360408051848152602081018490526001600160a01b038316917f4c209b5fc8ad50758f13e2e1088ba56a560dff690a1c6fef26394f4c03821c4f910161093d565b5050565b60405146907f8b73c3c69bb8fe3d512ecc4cf759cc79239f7b179b0ffacaa9a75d522b39400f90610b6e9089908990611ff5565b60408051918290038220828201825260018352603160f81b6020938401528151928301939093528101919091527fc89efdaa54c0f20c7adf612882df0950f5a951637e0307cdcb4c672f298b8bc66060820152608081018290523060a082015260c00160408051601f198184030181528282528051602091820120600755601f8901819004810283018101909152878252610c24919089908990819084018382808284376000920191909152506115e192505050565b610c6385858080601f0160208091040260200160405190810160405280939291908181526020018383808284376000920191909152506115ed92505050565b6005805460ff191660ff8a16179055505060088054600980546001600160a01b039c8d166001600160a01b031991821617909155600a80549b8d169b9091169a909a1790995560ff909716600160a01b026001600160a81b0319909816989099169790971795909517909355505050505050565b6008546001600160a01b0316336001600160a01b03161460405180604001604052806002815260200161323960f01b815250906109465760405162461bcd60e51b81526004016105af9190611c15565b6060600480546104ce90611f6c565b3360008181526001602090815260408083206001600160a01b0387168452909152812054909161055e9185906107e6908690611fcf565b6000610d7a338484611582565b6040518281526001600160a01b0384169033906000805160206121c38339815191529060200160405180910390a350600192915050565b6000610dbc60025490565b905090565b6001600160a01b038716610e075760405162461bcd60e51b815260206004820152600d60248201526c24a72b20a624a22fa7aba722a960991b60448201526064016105af565b83421115610e4c5760405162461bcd60e51b815260206004820152601260248201527124a72b20a624a22fa2ac2824a920aa24a7a760711b60448201526064016105af565b6001600160a01b0387811660008181526006602090815260408083205460075482517f6e71edae12b1b97f4d1f60370fef10105fa2faae0126114a169c64845d6126c98186015280840196909652958c166060860152608085018b905260a0850181905260c08086018b90528251808703909101815260e086019092528151919092012061190160f01b610100850152610102840194909452610122830193909352906101420160408051601f1981840301815282825280516020918201206000845290830180835281905260ff8816918301919091526060820186905260808201859052915060019060a0016020604051602081039080840390855afa158015610f5b573d6000803e3d6000fd5b505050602060405103516001600160a01b0316896001600160a01b031614610fb95760405162461bcd60e51b8152602060048201526011602482015270494e56414c49445f5349474e415455524560781b60448201526064016105af565b610fc4826001611fe2565b6001600160a01b038a16600090815260066020526040902055610fe88989896111d6565b505050505050505050565b6008546001600160a01b0316336001600160a01b03161460405180604001604052806002815260200161323960f01b815250906110435760405162461bcd60e51b81526004016105af9190611c15565b50600061105083836112f2565b60408051808201909152600281526106a760f31b60208201529091508161108a5760405162461bcd60e51b81526004016105af9190611c15565b5061109585826115f9565b600a546110ac906001600160a01b0316858561158f565b6040518381526000906001600160a01b038716906000805160206121c38339815191529060200160405180910390a3836001600160a01b0316856001600160a01b03167f5d624aa9c148153ab3446c1b154f660ee7701e549fe9b62dab7171b1c80e6fa28585604051611129929190918252602082015260400190565b60405180910390a35050505050565b6008546001600160a01b0316336001600160a01b03161460405180604001604052806002815260200161323960f01b815250906111885760405162461bcd60e51b81526004016105af9190611c15565b50611196838383600061168c565b816001600160a01b0316836001600160a01b03166000805160206121c3833981519152836040516111c991815260200190565b60405180910390a3505050565b6001600160a01b0383166112385760405162461bcd60e51b8152602060048201526024808201527f45524332303a20617070726f76652066726f6d20746865207a65726f206164646044820152637265737360e01b60648201526084016105af565b6001600160a01b0382166112995760405162461bcd60e51b815260206004820152602260248201527f45524332303a20617070726f766520746f20746865207a65726f206164647265604482015261737360f01b60648201526084016105af565b6001600160a01b0383811660008181526001602090815260408083209487168084529482529182902085905590518481527f8c5be1e5ebec7d5bd14f71427d1e84f3dd0314c0f7b2291e5b200ac8c7c3b92591016111c9565b604080518082019091526002815261035360f41b60208201526000908261132c5760405162461bcd60e51b81526004016105af9190611c15565b50600061133a600284612005565b90506b033b2e3c9fd0803ce800000061135582600019611fcf565b61135f9190612005565b84111560405180604001604052806002815260200161068760f31b8152509061139b5760405162461bcd60e51b81526004016105af9190611c15565b5082816113b46b033b2e3c9fd0803ce800000087612027565b6113be9190611fe2565b6113c89190612005565b949350505050565b6001600160a01b0382166114265760405162461bcd60e51b815260206004820152601f60248201527f45524332303a206d696e7420746f20746865207a65726f20616464726573730060448201526064016105af565b6002546114338282611fe2565b6002556001600160a01b0383166000908152602081905260409020546114598382611fe2565b6001600160a01b03909416600090815260208190526040902093909355505050565b610b36828260405160240161149192919061203e565b60408051601f198184030181529190526020810180516001600160e01b0316632d839cb360e21b179052611874565b60008215806114cd575081155b156114da57506000610562565b816114f260026b033b2e3c9fd0803ce8000000612005565b6114fe90600019611fcf565b6115089190612005565b83111560405180604001604052806002815260200161068760f31b815250906115445760405162461bcd60e51b81526004016105af9190611c15565b506b033b2e3c9fd0803ce800000061155d600282612005565b6115678486612027565b6115719190611fe2565b61157b9190612005565b9392505050565b610946838383600161168c565b604080516001600160a01b038416602482015260448082018490528251808303909101815260649091019091526020810180516001600160e01b031663a9059cbb60e01b179052610946908490611895565b6003610b3682826120c4565b6004610b3682826120c4565b6001600160a01b0382166116595760405162461bcd60e51b815260206004820152602160248201527f45524332303a206275726e2066726f6d20746865207a65726f206164647265736044820152607360f81b60648201526084016105af565b6002546116668282611fcf565b6002556001600160a01b0383166000908152602081905260409020546114598382611fcf565b600a5460085460405163776f689160e01b81526001600160a01b0392831660048201819052600160a01b830460ff1660248301529290911690600090829063776f689190604401602060405180830381865afa1580156116f0573d6000803e3d6000fd5b505050506040513d601f19601f820116820180604052508101906117149190611fa0565b9050600061173b82610a4f8a6001600160a01b031660009081526020819052604090205490565b9050600061176283610a4f8a6001600160a01b031660009081526020819052604090205490565b905061177889896117738a876112f2565b611967565b851561181357600854604051630c1fc1e960e41b81526001600160a01b038781166004830152600160a01b90920460ff1660248201528a8216604482015289821660648201526084810189905260a4810184905260c481018390529085169063c1fc1e909060e401600060405180830381600087803b1580156117fa57600080fd5b505af115801561180e573d6000803e3d6000fd5b505050505b876001600160a01b0316896001600160a01b03167f4beccb90f994c31aced7a23b5611020728a23d8ec5cddd1a3e9d97b96fda86668986604051611861929190918252602082015260400190565b60405180910390a3505050505050505050565b80516a636f6e736f6c652e6c6f67602083016000808483855afa5050505050565b60006118ea826040518060400160405280602081526020017f5361666545524332303a206c6f772d6c6576656c2063616c6c206661696c6564815250856001600160a01b0316611aa29092919063ffffffff16565b80519091501561094657808060200190518101906119089190612184565b6109465760405162461bcd60e51b815260206004820152602a60248201527f5361666545524332303a204552433230206f7065726174696f6e20646964206e6044820152691bdd081cdd58d8d9595960b21b60648201526084016105af565b6001600160a01b0383166119cb5760405162461bcd60e51b815260206004820152602560248201527f45524332303a207472616e736665722066726f6d20746865207a65726f206164604482015264647265737360d81b60648201526084016105af565b6001600160a01b038216611a2d5760405162461bcd60e51b815260206004820152602360248201527f45524332303a207472616e7366657220746f20746865207a65726f206164647260448201526265737360e81b60648201526084016105af565b6001600160a01b038316600090815260208190526040902054611a508282611fcf565b6001600160a01b038086166000908152602081905260408082209390935590851681522054611a7f8382611fe2565b6001600160a01b0390941660009081526020819052604090209390935550505050565b60606113c8848460008585600080866001600160a01b03168587604051611ac991906121a6565b60006040518083038185875af1925050503d8060008114611b06576040519150601f19603f3d011682016040523d82523d6000602084013e611b0b565b606091505b5091509150611b1c87838387611b27565b979650505050505050565b60608315611b96578251600003611b8f576001600160a01b0385163b611b8f5760405162461bcd60e51b815260206004820152601d60248201527f416464726573733a2063616c6c20746f206e6f6e2d636f6e747261637400000060448201526064016105af565b50816113c8565b6113c88383815115611bab5781518083602001fd5b8060405162461bcd60e51b81526004016105af9190611c15565b60005b83811015611be0578181015183820152602001611bc8565b50506000910152565b60008151808452611c01816020860160208601611bc5565b601f01601f19169290920160200192915050565b60208152600061157b6020830184611be9565b6001600160a01b0381168114611c3d57600080fd5b50565b8035611c4b81611c28565b919050565b60008060408385031215611c6357600080fd5b8235611c6e81611c28565b946020939093013593505050565b600060208284031215611c8e57600080fd5b813561157b81611c28565b600080600060608486031215611cae57600080fd5b8335611cb981611c28565b95602085013595506040909401359392505050565b600080600060608486031215611ce357600080fd5b8335611cee81611c28565b92506020840135611cfe81611c28565b929592945050506040919091013590565b60008060408385031215611d2257600080fd5b50508035926020909101359150565b803560ff81168114611c4b57600080fd5b60008083601f840112611d5457600080fd5b50813567ffffffffffffffff811115611d6c57600080fd5b602083019150836020828501011115611d8457600080fd5b9250929050565b60008060008060008060008060008060006101008c8e031215611dad57600080fd5b611db68c611c40565b9a50611dc460208d01611c40565b9950611dd260408d01611c40565b9850611de060608d01611d31565b9750611dee60808d01611d31565b965067ffffffffffffffff8060a08e01351115611e0a57600080fd5b611e1a8e60a08f01358f01611d42565b909750955060c08d0135811015611e3057600080fd5b611e408e60c08f01358f01611d42565b909550935060e08d0135811015611e5657600080fd5b50611e678d60e08e01358e01611d42565b81935080925050509295989b509295989b9093969950565b600080600080600080600060e0888a031215611e9a57600080fd5b8735611ea581611c28565b96506020880135611eb581611c28565b95506040880135945060608801359350611ed160808901611d31565b925060a0880135915060c0880135905092959891949750929550565b60008060008060808587031215611f0357600080fd5b8435611f0e81611c28565b93506020850135611f1e81611c28565b93969395505050506040820135916060013590565b60008060408385031215611f4657600080fd5b8235611f5181611c28565b91506020830135611f6181611c28565b809150509250929050565b600181811c90821680611f8057607f821691505b6020821081036109aa57634e487b7160e01b600052602260045260246000fd5b600060208284031215611fb257600080fd5b5051919050565b634e487b7160e01b600052601160045260246000fd5b8181038181111561056257610562611fb9565b8082018082111561056257610562611fb9565b8183823760009101908152919050565b60008261202257634e487b7160e01b600052601260045260246000fd5b500490565b808202811582820484141761056257610562611fb9565b6040815260006120516040830185611be9565b90508260208301529392505050565b634e487b7160e01b600052604160045260246000fd5b601f82111561094657600081815260208120601f850160051c8101602086101561209d5750805b601f850160051c820191505b818110156120bc578281556001016120a9565b505050505050565b815167ffffffffffffffff8111156120de576120de612060565b6120f2816120ec8454611f6c565b84612076565b602080601f831160018114612127576000841561210f5750858301515b600019600386901b1c1916600185901b1785556120bc565b600085815260208120601f198616915b8281101561215657888601518255948401946001909101908401612137565b50858210156121745787850151600019600388901b60f8161c191681555b5050505050600190811b01905550565b60006020828403121561219657600080fd5b8151801515811461157b57600080fd5b600082516121b8818460208701611bc5565b919091019291505056feddf252ad1be2c89b69c2b068fc378daa952ba7f163c4a11628f55a4df523b3efa264697066735822122014976729e6c9830fa82557edc2bd5392aa446aa3edc3c4c9dcda3f66ecd19b1b64736f6c63430008110033",
  "linkReferences": {},
  "deployedLinkReferences": {}
}